{
  "_format": "hh-sol-artifact-1",
  "contractName": "TRKBlockchain",
  "sourceName": "src/TRKBlockchain.sol",
  "abi": [
    {
      "inputs": [
        {
          "internalType": "address",
          "name": "_usdt",
          "type": "address"
        }
      ],
      "stateMutability": "nonpayable",
      "type": "constructor"
    },
    {
      "anonymous": false,
      "inputs": [
        {
          "indexed": true,
          "internalType": "address",
          "name": "user",
          "type": "address"
        },
        {
          "indexed": false,
          "internalType": "uint256",
          "name": "amount",
          "type": "uint256"
        },
        {
          "indexed": false,
          "internalType": "uint256",
          "name": "timestamp",
          "type": "uint256"
        }
      ],
      "name": "CashbackCredited",
      "type": "event"
    },
    {
      "anonymous": false,
      "inputs": [
        {
          "indexed": true,
          "internalType": "address",
          "name": "user",
          "type": "address"
        },
        {
          "indexed": false,
          "internalType": "uint256",
          "name": "amount",
          "type": "uint256"
        },
        {
          "indexed": false,
          "internalType": "uint256",
          "name": "timestamp",
          "type": "uint256"
        }
      ],
      "name": "Deposit",
      "type": "event"
    },
    {
      "anonymous": false,
      "inputs": [
        {
          "indexed": true,
          "internalType": "address",
          "name": "user",
          "type": "address"
        },
        {
          "indexed": false,
          "internalType": "bool",
          "name": "isPractice",
          "type": "bool"
        },
        {
          "indexed": false,
          "internalType": "uint256",
          "name": "betAmount",
          "type": "uint256"
        },
        {
          "indexed": false,
          "internalType": "uint8",
          "name": "selected",
          "type": "uint8"
        },
        {
          "indexed": false,
          "internalType": "uint8",
          "name": "winning",
          "type": "uint8"
        },
        {
          "indexed": false,
          "internalType": "bool",
          "name": "isWin",
          "type": "bool"
        },
        {
          "indexed": false,
          "internalType": "uint256",
          "name": "payout",
          "type": "uint256"
        }
      ],
      "name": "GamePlayed",
      "type": "event"
    },
    {
      "anonymous": false,
      "inputs": [
        {
          "indexed": true,
          "internalType": "address",
          "name": "user",
          "type": "address"
        },
        {
          "indexed": false,
          "internalType": "uint256",
          "name": "amount",
          "type": "uint256"
        }
      ],
      "name": "PracticeBalanceConverted",
      "type": "event"
    },
    {
      "anonymous": false,
      "inputs": [
        {
          "indexed": true,
          "internalType": "address",
          "name": "from",
          "type": "address"
        },
        {
          "indexed": true,
          "internalType": "address",
          "name": "to",
          "type": "address"
        },
        {
          "indexed": false,
          "internalType": "uint256",
          "name": "amount",
          "type": "uint256"
        },
        {
          "indexed": false,
          "internalType": "uint8",
          "name": "level",
          "type": "uint8"
        },
        {
          "indexed": false,
          "internalType": "string",
          "name": "incomeType",
          "type": "string"
        }
      ],
      "name": "ReferralCommission",
      "type": "event"
    },
    {
      "anonymous": false,
      "inputs": [
        {
          "indexed": true,
          "internalType": "address",
          "name": "user",
          "type": "address"
        },
        {
          "indexed": true,
          "internalType": "address",
          "name": "referrer",
          "type": "address"
        },
        {
          "indexed": false,
          "internalType": "uint256",
          "name": "timestamp",
          "type": "uint256"
        }
      ],
      "name": "UserRegistered",
      "type": "event"
    },
    {
      "anonymous": false,
      "inputs": [
        {
          "indexed": true,
          "internalType": "address",
          "name": "user",
          "type": "address"
        },
        {
          "indexed": false,
          "internalType": "uint256",
          "name": "amount",
          "type": "uint256"
        },
        {
          "indexed": false,
          "internalType": "uint256",
          "name": "fee",
          "type": "uint256"
        },
        {
          "indexed": false,
          "internalType": "uint256",
          "name": "timestamp",
          "type": "uint256"
        }
      ],
      "name": "Withdrawal",
      "type": "event"
    },
    {
      "inputs": [],
      "name": "CASHBACK_TRIGGER",
      "outputs": [
        {
          "internalType": "uint256",
          "name": "",
          "type": "uint256"
        }
      ],
      "stateMutability": "view",
      "type": "function"
    },
    {
      "inputs": [],
      "name": "GAME_MULTIPLIER",
      "outputs": [
        {
          "internalType": "uint8",
          "name": "",
          "type": "uint8"
        }
      ],
      "stateMutability": "view",
      "type": "function"
    },
    {
      "inputs": [],
      "name": "MAX_PRACTICE_USERS",
      "outputs": [
        {
          "internalType": "uint256",
          "name": "",
          "type": "uint256"
        }
      ],
      "stateMutability": "view",
      "type": "function"
    },
    {
      "inputs": [],
      "name": "MAX_WITHDRAWAL",
      "outputs": [
        {
          "internalType": "uint256",
          "name": "",
          "type": "uint256"
        }
      ],
      "stateMutability": "view",
      "type": "function"
    },
    {
      "inputs": [],
      "name": "MIN_BET",
      "outputs": [
        {
          "internalType": "uint256",
          "name": "",
          "type": "uint256"
        }
      ],
      "stateMutability": "view",
      "type": "function"
    },
    {
      "inputs": [],
      "name": "MIN_WITHDRAWAL",
      "outputs": [
        {
          "internalType": "uint256",
          "name": "",
          "type": "uint256"
        }
      ],
      "stateMutability": "view",
      "type": "function"
    },
    {
      "inputs": [],
      "name": "PRACTICE_BONUS",
      "outputs": [
        {
          "internalType": "uint256",
          "name": "",
          "type": "uint256"
        }
      ],
      "stateMutability": "view",
      "type": "function"
    },
    {
      "inputs": [],
      "name": "TOTAL_NUMBERS",
      "outputs": [
        {
          "internalType": "uint8",
          "name": "",
          "type": "uint8"
        }
      ],
      "stateMutability": "view",
      "type": "function"
    },
    {
      "inputs": [],
      "name": "WITHDRAWAL_FEE",
      "outputs": [
        {
          "internalType": "uint256",
          "name": "",
          "type": "uint256"
        }
      ],
      "stateMutability": "view",
      "type": "function"
    },
    {
      "inputs": [],
      "name": "cashbackRate",
      "outputs": [
        {
          "internalType": "uint256",
          "name": "",
          "type": "uint256"
        }
      ],
      "stateMutability": "view",
      "type": "function"
    },
    {
      "inputs": [],
      "name": "claimCashback",
      "outputs": [],
      "stateMutability": "nonpayable",
      "type": "function"
    },
    {
      "inputs": [],
      "name": "convertPracticeToCash",
      "outputs": [],
      "stateMutability": "nonpayable",
      "type": "function"
    },
    {
      "inputs": [
        {
          "internalType": "uint256",
          "name": "_amount",
          "type": "uint256"
        }
      ],
      "name": "deposit",
      "outputs": [],
      "stateMutability": "nonpayable",
      "type": "function"
    },
    {
      "inputs": [
        {
          "internalType": "uint256",
          "name": "",
          "type": "uint256"
        }
      ],
      "name": "directLevelCommission",
      "outputs": [
        {
          "internalType": "uint16",
          "name": "",
          "type": "uint16"
        }
      ],
      "stateMutability": "view",
      "type": "function"
    },
    {
      "inputs": [
        {
          "internalType": "address",
          "name": "",
          "type": "address"
        },
        {
          "internalType": "uint256",
          "name": "",
          "type": "uint256"
        }
      ],
      "name": "directReferralsList",
      "outputs": [
        {
          "internalType": "address",
          "name": "",
          "type": "address"
        }
      ],
      "stateMutability": "view",
      "type": "function"
    },
    {
      "inputs": [
        {
          "internalType": "address",
          "name": "_token",
          "type": "address"
        },
        {
          "internalType": "uint256",
          "name": "_amount",
          "type": "uint256"
        }
      ],
      "name": "emergencyWithdraw",
      "outputs": [],
      "stateMutability": "nonpayable",
      "type": "function"
    },
    {
      "inputs": [
        {
          "internalType": "address",
          "name": "",
          "type": "address"
        },
        {
          "internalType": "uint256",
          "name": "",
          "type": "uint256"
        }
      ],
      "name": "gameHistory",
      "outputs": [
        {
          "internalType": "uint256",
          "name": "timestamp",
          "type": "uint256"
        },
        {
          "internalType": "uint8",
          "name": "selectedNumber",
          "type": "uint8"
        },
        {
          "internalType": "uint8",
          "name": "winningNumber",
          "type": "uint8"
        },
        {
          "internalType": "uint256",
          "name": "betAmount",
          "type": "uint256"
        },
        {
          "internalType": "bool",
          "name": "isWin",
          "type": "bool"
        },
        {
          "internalType": "bool",
          "name": "isPractice",
          "type": "bool"
        }
      ],
      "stateMutability": "view",
      "type": "function"
    },
    {
      "inputs": [
        {
          "internalType": "address",
          "name": "_user",
          "type": "address"
        }
      ],
      "name": "getDirectReferrals",
      "outputs": [
        {
          "internalType": "address[]",
          "name": "",
          "type": "address[]"
        }
      ],
      "stateMutability": "view",
      "type": "function"
    },
    {
      "inputs": [
        {
          "internalType": "address",
          "name": "_user",
          "type": "address"
        },
        {
          "internalType": "uint256",
          "name": "_limit",
          "type": "uint256"
        }
      ],
      "name": "getGameHistory",
      "outputs": [
        {
          "components": [
            {
              "internalType": "uint256",
              "name": "timestamp",
              "type": "uint256"
            },
            {
              "internalType": "uint8",
              "name": "selectedNumber",
              "type": "uint8"
            },
            {
              "internalType": "uint8",
              "name": "winningNumber",
              "type": "uint8"
            },
            {
              "internalType": "uint256",
              "name": "betAmount",
              "type": "uint256"
            },
            {
              "internalType": "bool",
              "name": "isWin",
              "type": "bool"
            },
            {
              "internalType": "bool",
              "name": "isPractice",
              "type": "bool"
            }
          ],
          "internalType": "struct TRKBlockchain.GameResult[]",
          "name": "",
          "type": "tuple[]"
        }
      ],
      "stateMutability": "view",
      "type": "function"
    },
    {
      "inputs": [
        {
          "internalType": "address",
          "name": "_user",
          "type": "address"
        }
      ],
      "name": "getReferralLink",
      "outputs": [
        {
          "internalType": "string",
          "name": "",
          "type": "string"
        }
      ],
      "stateMutability": "pure",
      "type": "function"
    },
    {
      "inputs": [
        {
          "internalType": "address",
          "name": "_user",
          "type": "address"
        }
      ],
      "name": "getUserInfo",
      "outputs": [
        {
          "components": [
            {
              "internalType": "bool",
              "name": "isRegistered",
              "type": "bool"
            },
            {
              "internalType": "address",
              "name": "referrer",
              "type": "address"
            },
            {
              "internalType": "uint256",
              "name": "registrationTime",
              "type": "uint256"
            },
            {
              "internalType": "uint256",
              "name": "totalDeposited",
              "type": "uint256"
            },
            {
              "internalType": "uint256",
              "name": "totalWithdrawn",
              "type": "uint256"
            },
            {
              "internalType": "uint256",
              "name": "directReferrals",
              "type": "uint256"
            },
            {
              "internalType": "uint256",
              "name": "teamSize",
              "type": "uint256"
            },
            {
              "internalType": "bool",
              "name": "isActivated",
              "type": "bool"
            },
            {
              "internalType": "bool",
              "name": "isPremiumActivated",
              "type": "bool"
            },
            {
              "internalType": "uint256",
              "name": "totalLosses",
              "type": "uint256"
            },
            {
              "internalType": "uint256",
              "name": "cashbackReceived",
              "type": "uint256"
            },
            {
              "internalType": "uint256",
              "name": "lastCashbackTime",
              "type": "uint256"
            }
          ],
          "internalType": "struct TRKBlockchain.User",
          "name": "",
          "type": "tuple"
        }
      ],
      "stateMutability": "view",
      "type": "function"
    },
    {
      "inputs": [
        {
          "internalType": "address",
          "name": "_user",
          "type": "address"
        }
      ],
      "name": "getUserWallets",
      "outputs": [
        {
          "components": [
            {
              "internalType": "uint256",
              "name": "cashBalance",
              "type": "uint256"
            },
            {
              "internalType": "uint256",
              "name": "practiceBalance",
              "type": "uint256"
            },
            {
              "internalType": "uint256",
              "name": "directWallet",
              "type": "uint256"
            },
            {
              "internalType": "uint256",
              "name": "luckyDrawWallet",
              "type": "uint256"
            }
          ],
          "internalType": "struct TRKBlockchain.Wallets",
          "name": "",
          "type": "tuple"
        }
      ],
      "stateMutability": "view",
      "type": "function"
    },
    {
      "inputs": [],
      "name": "owner",
      "outputs": [
        {
          "internalType": "address",
          "name": "",
          "type": "address"
        }
      ],
      "stateMutability": "view",
      "type": "function"
    },
    {
      "inputs": [
        {
          "internalType": "uint256",
          "name": "_betAmount",
          "type": "uint256"
        },
        {
          "internalType": "uint8",
          "name": "_selectedNumber",
          "type": "uint8"
        },
        {
          "internalType": "bool",
          "name": "_isPractice",
          "type": "bool"
        }
      ],
      "name": "playGame",
      "outputs": [],
      "stateMutability": "nonpayable",
      "type": "function"
    },
    {
      "inputs": [],
      "name": "practiceUsersCount",
      "outputs": [
        {
          "internalType": "uint256",
          "name": "",
          "type": "uint256"
        }
      ],
      "stateMutability": "view",
      "type": "function"
    },
    {
      "inputs": [
        {
          "internalType": "address",
          "name": "",
          "type": "address"
        },
        {
          "internalType": "uint256",
          "name": "",
          "type": "uint256"
        }
      ],
      "name": "referralLevels",
      "outputs": [
        {
          "internalType": "uint256",
          "name": "",
          "type": "uint256"
        }
      ],
      "stateMutability": "view",
      "type": "function"
    },
    {
      "inputs": [
        {
          "internalType": "address",
          "name": "_referrer",
          "type": "address"
        }
      ],
      "name": "register",
      "outputs": [],
      "stateMutability": "nonpayable",
      "type": "function"
    },
    {
      "inputs": [
        {
          "internalType": "uint256",
          "name": "",
          "type": "uint256"
        }
      ],
      "name": "roiCommission",
      "outputs": [
        {
          "internalType": "uint16",
          "name": "",
          "type": "uint16"
        }
      ],
      "stateMutability": "view",
      "type": "function"
    },
    {
      "inputs": [],
      "name": "totalGamesPlayed",
      "outputs": [
        {
          "internalType": "uint256",
          "name": "",
          "type": "uint256"
        }
      ],
      "stateMutability": "view",
      "type": "function"
    },
    {
      "inputs": [],
      "name": "totalUsers",
      "outputs": [
        {
          "internalType": "uint256",
          "name": "",
          "type": "uint256"
        }
      ],
      "stateMutability": "view",
      "type": "function"
    },
    {
      "inputs": [],
      "name": "totalVolume",
      "outputs": [
        {
          "internalType": "uint256",
          "name": "",
          "type": "uint256"
        }
      ],
      "stateMutability": "view",
      "type": "function"
    },
    {
      "inputs": [
        {
          "internalType": "uint256",
          "name": "_newRate",
          "type": "uint256"
        }
      ],
      "name": "updateCashbackRate",
      "outputs": [],
      "stateMutability": "nonpayable",
      "type": "function"
    },
    {
      "inputs": [],
      "name": "usdt",
      "outputs": [
        {
          "internalType": "contract IERC20",
          "name": "",
          "type": "address"
        }
      ],
      "stateMutability": "view",
      "type": "function"
    },
    {
      "inputs": [
        {
          "internalType": "address",
          "name": "",
          "type": "address"
        }
      ],
      "name": "users",
      "outputs": [
        {
          "internalType": "bool",
          "name": "isRegistered",
          "type": "bool"
        },
        {
          "internalType": "address",
          "name": "referrer",
          "type": "address"
        },
        {
          "internalType": "uint256",
          "name": "registrationTime",
          "type": "uint256"
        },
        {
          "internalType": "uint256",
          "name": "totalDeposited",
          "type": "uint256"
        },
        {
          "internalType": "uint256",
          "name": "totalWithdrawn",
          "type": "uint256"
        },
        {
          "internalType": "uint256",
          "name": "directReferrals",
          "type": "uint256"
        },
        {
          "internalType": "uint256",
          "name": "teamSize",
          "type": "uint256"
        },
        {
          "internalType": "bool",
          "name": "isActivated",
          "type": "bool"
        },
        {
          "internalType": "bool",
          "name": "isPremiumActivated",
          "type": "bool"
        },
        {
          "internalType": "uint256",
          "name": "totalLosses",
          "type": "uint256"
        },
        {
          "internalType": "uint256",
          "name": "cashbackReceived",
          "type": "uint256"
        },
        {
          "internalType": "uint256",
          "name": "lastCashbackTime",
          "type": "uint256"
        }
      ],
      "stateMutability": "view",
      "type": "function"
    },
    {
      "inputs": [
        {
          "internalType": "address",
          "name": "",
          "type": "address"
        }
      ],
      "name": "wallets",
      "outputs": [
        {
          "internalType": "uint256",
          "name": "cashBalance",
          "type": "uint256"
        },
        {
          "internalType": "uint256",
          "name": "practiceBalance",
          "type": "uint256"
        },
        {
          "internalType": "uint256",
          "name": "directWallet",
          "type": "uint256"
        },
        {
          "internalType": "uint256",
          "name": "luckyDrawWallet",
          "type": "uint256"
        }
      ],
      "stateMutability": "view",
      "type": "function"
    },
    {
      "inputs": [
        {
          "internalType": "uint256",
          "name": "",
          "type": "uint256"
        }
      ],
      "name": "winnerLevelCommission",
      "outputs": [
        {
          "internalType": "uint16",
          "name": "",
          "type": "uint16"
        }
      ],
      "stateMutability": "view",
      "type": "function"
    },
    {
      "inputs": [
        {
          "internalType": "uint256",
          "name": "_amount",
          "type": "uint256"
        }
      ],
      "name": "withdraw",
      "outputs": [],
      "stateMutability": "nonpayable",
      "type": "function"
    }
  ],
  "bytecode": "0x6102606040526101f4608090815260c860a052606460c081905260e08190526101005260326101208190526101408190526101608190526101808190526101a08190526101c08190526101e0819052610200819052610220819052610240526200006e90600890600f620003a4565b50604080516101e0810182526101f4815260c860208201526064918101829052606081018290526080810191909152603260a0820181905260c0820181905260e08201819052610100820181905261012082018190526101408201819052610160820181905261018082018190526101a082018190526101c0820152620000fa90600990600f620003a4565b50604080516101e0810182526107d081526103e8602082018190529181018290526060810182905260808101919091526101f460a0820181905260c0820181905260e08201819052610100820181905261012082015261012c6101408201819052610160820181905261018082018190526101a082018190526101c08201526200018990600a90600f620003a4565b506032600b553480156200019c57600080fd5b50604051620031e7380380620031e7833981016040819052620001bf916200046b565b806000806101000a8154816001600160a01b0302191690836001600160a01b0316021790555033600160006101000a8154816001600160a01b0302191690836001600160a01b0316021790555060405180610180016040528060011515815260200160006001600160a01b031681526020014281526020016000815260200160008152602001600081526020016000815260200160011515815260200160011515815260200160008152602001600081526020014281525060026000600160009054906101000a90046001600160a01b03166001600160a01b03166001600160a01b0316815260200190815260200160002060008201518160000160006101000a81548160ff02191690831515021790555060208201518160000160016101000a8154816001600160a01b0302191690836001600160a01b0316021790555060408201518160010155606082015181600201556080820151816003015560a0820151816004015560c0820151816005015560e08201518160060160006101000a81548160ff0219169083151502179055506101008201518160060160016101000a81548160ff0219169083151502179055506101208201518160070155610140820151816008015561016082015181600901559050506001600c81905550506200049d565b82805482825590600052602060002090600f01601090048101928215620004425791602002820160005b838211156200041057835183826101000a81548161ffff021916908361ffff1602179055509260200192600201602081600101049283019260010302620003ce565b8015620004405782816101000a81549061ffff021916905560020160208160010104928301926001030262000410565b505b506200045092915062000454565b5090565b5b8082111562000450576000815560010162000455565b6000602082840312156200047e57600080fd5b81516001600160a01b03811681146200049657600080fd5b9392505050565b612d3a80620004ad6000396000f3fe608060405234801561001057600080fd5b50600436106102275760003560e01c806395ccea6711610130578063bdca79b5116100b8578063d18afe1a1161007c578063d18afe1a1461030e578063d2c8e0e5146105ff578063ddea08511461061f578063efc1cdc714610632578063f0aaa16c1461064557600080fd5b8063bdca79b5146105cc578063bff1f9e1146105df578063c6f6bb11146102f4578063d15ca166146105e8578063d1680d2f146105f757600080fd5b8063a87430ba116100ff578063a87430ba14610498578063b57543c814610573578063b59703a314610593578063b6b55f25146105a6578063b9f71b89146105b957600080fd5b806395ccea671461046257806397ec642c146104755780639c7bc08e14610486578063a5d33ed51461048f57600080fd5b80635f81a57c116101b357806370faad321161018257806370faad32146103bd5780637ec7586c146103c557806383d7d37a146103d857806389b08f11146103f85780638da5cb5b1461044f57600080fd5b80635f81a57c1461033f5780636386c1c7146103485780636540742f146103685780636cbae1571461037757600080fd5b80634420e486116101fa5780634420e486146102e15780634d1a6699146102f4578063524b5f7d1461030e57806356f4256b1461032c5780635c4921291461033657600080fd5b8063141c591c1461022c5780632e1a7d4d146102575780632f48ab7d1461026c5780633f2ea8bb14610297575b600080fd5b61023f61023a3660046128b3565b61064e565b60405161ffff90911681526020015b60405180910390f35b61026a6102653660046128b3565b610686565b005b60005461027f906001600160a01b031681565b6040516001600160a01b03909116815260200161024e565b6102aa6102a53660046128e8565b61097d565b6040805196875260ff95861660208801529390941692850192909252606084015215156080830152151560a082015260c00161024e565b61026a6102ef366004612912565b6109da565b6102fc600881565b60405160ff909116815260200161024e565b61031e68056bc75e2d6310000081565b60405190815260200161024e565b61031e620186a081565b61031e600d5481565b61031e600e5481565b61035b610356366004612912565b610d9b565b60405161024e9190612934565b61031e670de0b6b3a764000081565b61038a610385366004612912565b610ec7565b60405161024e91908151815260208083015190820152604080830151908201526060918201519181019190915260800190565b61026a610f3d565b61023f6103d33660046128b3565b611231565b6103eb6103e63660046128e8565b611241565b60405161024e91906129d5565b61042f610406366004612912565b600360208190526000918252604090912080546001820154600283015492909301549092919084565b60408051948552602085019390935291830152606082015260800161024e565b60015461027f906001600160a01b031681565b61026a6104703660046128e8565b6113d8565b61031e69010f0cf064dd5920000081565b61031e600b5481565b61031e6103e881565b61050c6104a6366004612912565b6002602081905260009182526040909120805460018201549282015460038301546004840154600585015460068601546007870154600888015460099098015460ff8089169a6001600160a01b036101009a8b9004169a9099858316950490911692918c565b604080519c15158d526001600160a01b03909b1660208d0152998b019890985260608a0196909652608089019490945260a088019290925260c0870152151560e086015215156101008501526101208401526101408301526101608201526101800161024e565b610586610581366004612912565b61149a565b60405161024e9190612a7b565b61027f6105a13660046128e8565b6114cb565b61026a6105b43660046128b3565b611503565b61026a6105c73660046128b3565b6117ab565b61031e6105da3660046128e8565b611830565b61031e600c5481565b61031e674563918244f4000081565b61026a611861565b61061261060d366004612912565b6119a7565b60405161024e9190612aae565b61023f61062d3660046128b3565b611a1d565b61026a610640366004612b0c565b611a2d565b61031e60075481565b600a818154811061065e57600080fd5b9060005260206000209060109182820401919006600202915054906101000a900461ffff1681565b3360009081526002602052604090205460ff166106be5760405162461bcd60e51b81526004016106b590612b54565b60405180910390fd5b3360009081526002602052604090206006015460ff166107185760405162461bcd60e51b81526020600482015260156024820152741058d8dbdd5b9d081b9bdd081858dd1a5d985d1959605a1b60448201526064016106b5565b674563918244f400008110156107605760405162461bcd60e51b815260206004820152600d60248201526c42656c6f77206d696e696d756d60981b60448201526064016106b5565b69010f0cf064dd592000008111156107aa5760405162461bcd60e51b815260206004820152600d60248201526c41626f7665206d6178696d756d60981b60448201526064016106b5565b336000908152600360205260409020600201548111156108035760405162461bcd60e51b8152602060048201526014602482015273496e73756666696369656e742062616c616e636560601b60448201526064016106b5565b60006127106108146103e884612b92565b61081e9190612bbf565b9050600061082c8284612bd3565b33600090815260036020526040812060020180549293508592909190610853908490612bd3565b9091555050336000908152600260205260408120600301805483929061087a908490612be6565b909155505060005460405163a9059cbb60e01b8152336004820152602481018390526001600160a01b039091169063a9059cbb906044016020604051808303816000875af11580156108d0573d6000803e3d6000fd5b505050506040513d601f19601f820116820180604052508101906108f49190612bf9565b6109325760405162461bcd60e51b815260206004820152600f60248201526e151c985b9cd9995c8819985a5b1959608a1b60448201526064016106b5565b6040805182815260208101849052429181019190915233907f650fdf669e93aa6c8ff3defe2da9c12b64f1548e5e1e54e803f4c1beb6466c8e906060015b60405180910390a2505050565b6005602052816000526040600020818154811061099957600080fd5b6000918252602090912060049091020180546001820154600283015460039093015491945060ff808216945061010091829004811693928082169290041686565b3360009081526002602052604090205460ff1615610a2f5760405162461bcd60e51b8152602060048201526012602482015271105b1c9958591e481c9959da5cdd195c995960721b60448201526064016106b5565b336001600160a01b03821603610a7f5760405162461bcd60e51b815260206004820152601560248201527421b0b73737ba103932b332b9103cb7bab939b2b63360591b60448201526064016106b5565b6001600160a01b03811615610afb576001600160a01b03811660009081526002602052604090205460ff16610af65760405162461bcd60e51b815260206004820152601760248201527f5265666572726572206e6f74207265676973746572656400000000000000000060448201526064016106b5565b610b09565b506001546001600160a01b03165b604051806101800160405280600115158152602001826001600160a01b031681526020014281526020016000815260200160008152602001600081526020016000815260200160001515815260200160001515815260200160008152602001600081526020014281525060026000336001600160a01b03166001600160a01b0316815260200190815260200160002060008201518160000160006101000a81548160ff02191690831515021790555060208201518160000160016101000a8154816001600160a01b0302191690836001600160a01b0316021790555060408201518160010155606082015181600201556080820151816003015560a0820151816004015560c0820151816005015560e08201518160060160006101000a81548160ff0219169083151502179055506101008201518160060160016101000a81548160ff02191690831515021790555061012082015181600701556101408201518160080155610160820151816009015590505060026000826001600160a01b03166001600160a01b031681526020019081526020016000206004016000815480929190610cb590612c16565b90915550506001600160a01b03811660009081526004602090815260408220805460018101825590835291200180546001600160a01b03191633179055610cfb81611ec3565b620186a06007541015610d435733600090815260036020526040812068056bc75e2d631000006001909101556007805491610d3583612c16565b9190505550610d4333611f48565b600c8054906000610d5383612c16565b90915550506040514281526001600160a01b0382169033907f05345a91f639184e946e5aac384b1e9f74ae9ab08d775a7deddb3180cebecb239060200160405180910390a350565b610e0e60405180610180016040528060001515815260200160006001600160a01b0316815260200160008152602001600081526020016000815260200160008152602001600081526020016000151581526020016000151581526020016000815260200160008152602001600081525090565b506001600160a01b03908116600090815260026020818152604092839020835161018081018552815460ff80821615158352610100918290049097169382019390935260018201549481019490945291820154606084015260038201546080840152600482015460a0840152600582015460c08401526006820154808516151560e08501528190049093161515928201929092526007820154610120820152600882015461014082015260099091015461016082015290565b610ef26040518060800160405280600081526020016000815260200160008152602001600081525090565b506001600160a01b0316600090815260036020818152604092839020835160808101855281548152600182015492810192909252600281015493820193909352910154606082015290565b3360009081526002602052604090205460ff16610f6c5760405162461bcd60e51b81526004016106b590612b54565b33600090815260026020526040902060060154610100900460ff16610fcc5760405162461bcd60e51b815260206004820152601660248201527513995959080c4c0c0ac81554d1150819195c1bdcda5d60521b60448201526064016106b5565b3360009081526002602052604090206007015468056bc75e2d6310000011156110305760405162461bcd60e51b8152602060048201526016602482015275131bdcdcd95cc818995b1bddc81d1a1c995cda1bdb1960521b60448201526064016106b5565b336000908152600260205260409020600901546110509062015180612be6565b4210156110975760405162461bcd60e51b8152602060048201526015602482015274416c726561647920636c61696d656420746f64617960581b60448201526064016106b5565b33600090815260026020526040812060088101546007909101546110bb9190612bd3565b9050600081116111045760405162461bcd60e51b81526020600482015260146024820152732737903637b9b9b2b9903a37903932b1b7bb32b960611b60448201526064016106b5565b6000612710600b54836111179190612b92565b6111219190612bbf565b33600090815260026020526040812060080180549293508392909190611148908490612be6565b9091555050336000908152600260208181526040808420426009909101556003909152822001805483929061117e908490612be6565b9091555061118e905033826120f3565b6000606461119d836014612b92565b6111a79190612bbf565b336000908152600360208190526040822001805492935083929091906111ce908490612be6565b909155505033600090815260036020526040812060020180548392906111f5908490612bd3565b90915550506040805183815242602082015233917f7d7980008d7cbf10859df70b685a3e1f69189b5620763976c2c2fc6aa5d619659101610970565b6008818154811061065e57600080fd5b6001600160a01b03821660009081526005602052604081205460609181841161126a578361126c565b815b905060008167ffffffffffffffff81111561128957611289612c2f565b6040519080825280602002602001820160405280156112e957816020015b6040805160c08101825260008082526020808301829052928201819052606082018190526080820181905260a082015282526000199092019101816112a75790505b50905060005b828110156113cc576001600160a01b03871660009081526005602052604090208161131b600187612bd3565b6113259190612bd3565b8154811061133557611335612c45565b60009182526020918290206040805160c081018252600490930290910180548352600181015460ff808216958501959095526101009081900485169284019290925260028101546060840152600301548084161515608084015204909116151560a082015282518390839081106113ae576113ae612c45565b602002602001018190525080806113c490612c16565b9150506112ef565b50925050505b92915050565b6001546001600160a01b0316331461141e5760405162461bcd60e51b81526020600482015260096024820152682737ba1037bbb732b960b91b60448201526064016106b5565b60015460405163a9059cbb60e01b81526001600160a01b039182166004820152602481018390529083169063a9059cbb906044016020604051808303816000875af1158015611471573d6000803e3d6000fd5b505050506040513d601f19601f820116820180604052508101906114959190612bf9565b505050565b60606114a58261229e565b6040516020016114b59190612c5b565b6040516020818303038152906040529050919050565b600460205281600052604060002081815481106114e757600080fd5b6000918252602090912001546001600160a01b03169150829050565b3360009081526002602052604090205460ff166115325760405162461bcd60e51b81526004016106b590612b54565b678ac7230489e8000081101561157c5760405162461bcd60e51b815260206004820152600f60248201526e135a5b9a5b5d5b480c4c081554d115608a1b60448201526064016106b5565b6000546040516323b872dd60e01b8152336004820152306024820152604481018390526001600160a01b03909116906323b872dd906064016020604051808303816000875af11580156115d3573d6000803e3d6000fd5b505050506040513d601f19601f820116820180604052508101906115f79190612bf9565b6116355760405162461bcd60e51b815260206004820152600f60248201526e151c985b9cd9995c8819985a5b1959608a1b60448201526064016106b5565b3360009081526003602052604081208054839290611654908490612be6565b9091555050336000908152600260208190526040822001805483929061167b908490612be6565b9250508190555080600e60008282546116949190612be6565b90915550503360009081526002602052604090206006015460ff161580156116d757503360009081526002602081905260409091200154678ac7230489e8000011155b156116fa57336000908152600260205260409020600601805460ff191660011790555b33600090815260026020526040902060060154610100900460ff1615801561173e5750336000908152600260208190526040909120015468056bc75e2d6310000011155b1561176357336000908152600260205260409020600601805461ff0019166101001790555b61176d33826124b5565b6040805182815242602082015233917f90890809c654f11d6e72a28fa60149770a0d11ec6c92319d6ceb2bb0a4ea1a1591015b60405180910390a250565b6001546001600160a01b031633146117f15760405162461bcd60e51b81526020600482015260096024820152682737ba1037bbb732b960b91b60448201526064016106b5565b606481111561182b5760405162461bcd60e51b81526020600482015260066024820152654d617820312560d01b60448201526064016106b5565b600b55565b6006602052816000526040600020818154811061184c57600080fd5b90600052602060002001600091509150505481565b3360009081526002602052604090205460ff166118905760405162461bcd60e51b81526004016106b590612b54565b33600090815260026020526040902060060154610100900460ff166118f05760405162461bcd60e51b815260206004820152601660248201527513995959080c4c0c0ac81554d1150819195c1bdcda5d60521b60448201526064016106b5565b336000908152600360205260409020600101546119455760405162461bcd60e51b81526020600482015260136024820152724e6f2070726163746963652062616c616e636560681b60448201526064016106b5565b3360009081526003602052604081206001810180549083905581549092839291611970908490612be6565b909155505060405181815233907f5d2a47d91f9a9718b496e04429c7e05815a9f5cce410c5c681df340413887957906020016117a0565b6001600160a01b038116600090815260046020908152604091829020805483518184028101840190945280845260609392830182828015611a1157602002820191906000526020600020905b81546001600160a01b031681526001909101906020018083116119f3575b50505050509050919050565b6009818154811061065e57600080fd5b3360009081526002602052604090205460ff16611a5c5760405162461bcd60e51b81526004016106b590612b54565b60018260ff1610158015611a745750600860ff831611155b611ab15760405162461bcd60e51b815260206004820152600e60248201526d24b73b30b634b210373ab6b132b960911b60448201526064016106b5565b670de0b6b3a7640000831015611af95760405162461bcd60e51b815260206004820152600d60248201526c10995d081d1bdbc81cdb585b1b609a1b60448201526064016106b5565b8015611b8e5733600090815260036020526040902060010154831115611b615760405162461bcd60e51b815260206004820152601d60248201527f496e73756666696369656e742070726163746963652062616c616e636500000060448201526064016106b5565b3360009081526003602052604081206001018054859290611b83908490612bd3565b90915550611c6c9050565b33600090815260036020526040902054831115611bed5760405162461bcd60e51b815260206004820152601960248201527f496e73756666696369656e7420636173682062616c616e63650000000000000060448201526064016106b5565b3360009081526002602052604090206006015460ff16611c475760405162461bcd60e51b81526020600482015260156024820152741058d8dbdd5b9d081b9bdd081858dd1a5d985d1959605a1b60448201526064016106b5565b3360009081526003602052604081208054859290611c66908490612bd3565b90915550505b6000611c7661266f565b905060ff8381169082161460008115611d4757611c94600887612b92565b90508315611cc9573360009081526003602052604081206001018054839290611cbe908490612be6565b90915550611d749050565b6000611cd6876002612b92565b90506000611ce5886006612b92565b33600090815260036020526040812060020180549293508492909190611d0c908490612be6565b90915550503360009081526003602052604081208054839290611d30908490612be6565b90915550611d40905033846126ff565b5050611d74565b83611d74573360009081526002602052604081206007018054889290611d6e908490612be6565b90915550505b336000908152600560209081526040808320815160c08101835242815260ff808b16828601908152898216948301948552606083018d8152891515608085019081528c151560a08601908152865460018181018955978b52988a2095516004909902909501978855915194870180549651841661010090810261ffff199889169790951696909617939093179092559051600286015551600390940180549151151590920293151561ff001916921691909117919091179055600d805491611e3b83612c16565b919050555083611e5d5785600e6000828254611e579190612be6565b90915550505b6040805185151581526020810188905260ff8781168284015285166060820152831515608082015260a08101839052905133917fa51cb652fd861f42f91d0fa2395b63594214ea9bdd9891505eeb416fa7dbdb2a919081900360c00190a2505050505050565b8060005b60648160ff16108015611ee257506001600160a01b03821615155b15611495576001600160a01b0382166000908152600260205260408120600501805491611f0e83612c16565b90915550506001600160a01b0391821660009081526002602052604090205461010090049091169080611f4081612c98565b915050611ec7565b6001600160a01b0380821660009081526002602052604090205461010090041660015b6001600160a01b03821615801590611f87575060648160ff1611155b156114955760008160ff16600103611fa85750678ac7230489e8000061201b565b60058260ff1611611fc25750671bc16d674ec8000061201b565b600a8260ff1611611fdc5750670de0b6b3a764000061201b565b600f8260ff1611611ff657506706f05b59d3b2000061201b565b60328260ff161161201057506703782dace9d9000061201b565b5067016345785d8a00005b6001600160a01b03831660009081526003602052604081206001018054839290612046908490612be6565b92505081905550826001600160a01b0316846001600160a01b0316600080516020612ce583398151915283856040516120b592919091825260ff1660208201526060604082018190526011908201527014149050d51250d157d491519154949053607a1b608082015260a00190565b60405180910390a36001600160a01b03928316600090815260026020526040902054610100900490921691816120ea81612c98565b92505050611f6b565b6001600160a01b038083166000908152600260205260408120546101009004909116906064612123846032612b92565b61212d9190612bbf565b905060005b600f8160ff1610801561214d57506001600160a01b03831615155b15612297576001600160a01b03831660009081526002602052604090206006015460ff1615612262576000612710600a8360ff168154811061219157612191612c45565b600091825260209091206010820401546121bb91600f166002026101000a900461ffff1685612b92565b6121c59190612bbf565b6001600160a01b0385166000908152600360205260408120600201805492935083929091906121f5908490612be6565b90915550506001600160a01b03808516908716600080516020612ce583398151915283612223866001612cb7565b6040805192835260ff90911660208301526060908201819052600a9082015269524f495f4f4e5f524f4960b01b608082015260a00160405180910390a3505b6001600160a01b039283166000908152600260205260409020546101009004909216918061228f81612c98565b915050612132565b5050505050565b606060006040518060400160405280601081526020016f181899199a1a9b1b9c1cb0b131b232b360811b81525090506000836040516020016122f8919060609190911b6bffffffffffffffffffffffff1916815260140190565b60408051808303601f19018152602a80845260608401909252925060009190602082018180368337019050509050600360fc1b8160008151811061233e5761233e612c45565b60200101906001600160f81b031916908160001a905350600f60fb1b8160018151811061236d5761236d612c45565b60200101906001600160f81b031916908160001a90535060005b60148110156124ac578360048483815181106123a5576123a5612c45565b016020015182516001600160f81b031990911690911c60f81c9081106123cd576123cd612c45565b01602001516001600160f81b031916826123e8836002612b92565b6123f3906002612be6565b8151811061240357612403612c45565b60200101906001600160f81b031916908160001a9053508383828151811061242d5761242d612c45565b602091010151815160f89190911c600f1690811061244d5761244d612c45565b01602001516001600160f81b03191682612468836002612b92565b612473906003612be6565b8151811061248357612483612c45565b60200101906001600160f81b031916908160001a905350806124a481612c16565b915050612387565b50949350505050565b6001600160a01b038083166000908152600260205260408120546101009004909116905b600f8160ff161080156124f457506001600160a01b03821615155b15612669576001600160a01b03821660009081526002602052604090206004015460ff821610801561254157506001600160a01b03821660009081526002602052604090206006015460ff165b1561263457600061271060088360ff168154811061256157612561612c45565b6000918252602090912060108204015461258b91600f166002026101000a900461ffff1686612b92565b6125959190612bbf565b6001600160a01b0384166000908152600360205260408120600201805492935083929091906125c5908490612be6565b90915550506001600160a01b03808416908616600080516020612ce5833981519152836125f3866001612cb7565b6040805192835260ff90911660208301526060908201819052600c908201526b1112549150d517d31155915360a21b608082015260a00160405180910390a3505b6001600160a01b039182166000908152600260205260409020546101009004909116908061266181612c98565b9150506124d9565b50505050565b600f80546000918261268083612c16565b9091555050600f54600d5460408051426020820152449181019190915233606090811b6bffffffffffffffffffffffff1916908201526074810192909252609482015260009060b40160408051601f19818403018152919052805160209091012090506126ee600882612cd0565b6126f9906001612be6565b91505090565b6001600160a01b038083166000908152600260205260408120546101009004909116905b600f8160ff1610801561273e57506001600160a01b03821615155b15612669576001600160a01b03821660009081526002602052604090206004015460ff821610801561278b57506001600160a01b03821660009081526002602052604090206006015460ff165b1561287e57600061271060098360ff16815481106127ab576127ab612c45565b600091825260209091206010820401546127d591600f166002026101000a900461ffff1686612b92565b6127df9190612bbf565b6001600160a01b03841660009081526003602052604081206002018054929350839290919061280f908490612be6565b90915550506001600160a01b03808416908616600080516020612ce58339815191528361283d866001612cb7565b6040805192835260ff90911660208301526060908201819052600c908201526b15d25393915497d31155915360a21b608082015260a00160405180910390a3505b6001600160a01b03918216600090815260026020526040902054610100900490911690806128ab81612c98565b915050612723565b6000602082840312156128c557600080fd5b5035919050565b80356001600160a01b03811681146128e357600080fd5b919050565b600080604083850312156128fb57600080fd5b612904836128cc565b946020939093013593505050565b60006020828403121561292457600080fd5b61292d826128cc565b9392505050565b8151151581526101808101602083015161295960208401826001600160a01b03169052565b5060408301516040830152606083015160608301526080830151608083015260a083015160a083015260c083015160c083015260e083015161299f60e084018215159052565b50610100838101511515908301526101208084015190830152610140808401519083015261016092830151929091019190915290565b602080825282518282018190526000919060409081850190868401855b82811015612a4a578151805185528681015160ff908116888701528682015116868601526060808201519086015260808082015115159086015260a09081015115159085015260c090930192908501906001016129f2565b5091979650505050505050565b60005b83811015612a72578181015183820152602001612a5a565b50506000910152565b6020815260008251806020840152612a9a816040850160208701612a57565b601f01601f19169190910160400192915050565b6020808252825182820181905260009190848201906040850190845b81811015612aef5783516001600160a01b031683529284019291840191600101612aca565b50909695505050505050565b8015158114612b0957600080fd5b50565b600080600060608486031215612b2157600080fd5b83359250602084013560ff81168114612b3957600080fd5b91506040840135612b4981612afb565b809150509250925092565b6020808252600e908201526d139bdd081c9959da5cdd195c995960921b604082015260600190565b634e487b7160e01b600052601160045260246000fd5b80820281158282048414176113d2576113d2612b7c565b634e487b7160e01b600052601260045260246000fd5b600082612bce57612bce612ba9565b500490565b818103818111156113d2576113d2612b7c565b808201808211156113d2576113d2612b7c565b600060208284031215612c0b57600080fd5b815161292d81612afb565b600060018201612c2857612c28612b7c565b5060010190565b634e487b7160e01b600052604160045260246000fd5b634e487b7160e01b600052603260045260246000fd5b7468747470733a2f2f74726b2e67616d652f7265662f60581b815260008251612c8b816015850160208701612a57565b9190910160150192915050565b600060ff821660ff8103612cae57612cae612b7c565b60010192915050565b60ff81811683821601908111156113d2576113d2612b7c565b600082612cdf57612cdf612ba9565b50069056feec04d2a7f4b308bdaca6a57da056cdcfa0a844c6cb4b38a24173d35420a49561a2646970667358221220c0d7aa9a41f3f5e7ced56bbf325ce291915fe9bae6cd3383f8b144b484e131fc64736f6c63430008130033",
  "linkReferences": {},
  "deployedLinkReferences": {}
}