{"src/TRKBlockchain.sol":{"TRKBlockchain":{"abi":[{"inputs":[{"internalType":"address","name":"_usdt","type":"address"}],"stateMutability":"nonpayable","type":"constructor"},{"anonymous":false,"inputs":[{"indexed":true,"internalType":"address","name":"user","type":"address"},{"indexed":false,"internalType":"uint256","name":"amount","type":"uint256"},{"indexed":false,"internalType":"uint256","name":"timestamp","type":"uint256"}],"name":"CashbackCredited","type":"event"},{"anonymous":false,"inputs":[{"indexed":true,"internalType":"address","name":"user","type":"address"},{"indexed":false,"internalType":"uint256","name":"amount","type":"uint256"},{"indexed":false,"internalType":"uint256","name":"timestamp","type":"uint256"}],"name":"Deposit","type":"event"},{"anonymous":false,"inputs":[{"indexed":true,"internalType":"address","name":"user","type":"address"},{"indexed":false,"internalType":"bool","name":"isPractice","type":"bool"},{"indexed":false,"internalType":"uint256","name":"betAmount","type":"uint256"},{"indexed":false,"internalType":"uint8","name":"selected","type":"uint8"},{"indexed":false,"internalType":"uint8","name":"winning","type":"uint8"},{"indexed":false,"internalType":"bool","name":"isWin","type":"bool"},{"indexed":false,"internalType":"uint256","name":"payout","type":"uint256"}],"name":"GamePlayed","type":"event"},{"anonymous":false,"inputs":[{"indexed":true,"internalType":"address","name":"user","type":"address"},{"indexed":false,"internalType":"uint256","name":"amount","type":"uint256"}],"name":"PracticeBalanceConverted","type":"event"},{"anonymous":false,"inputs":[{"indexed":true,"internalType":"address","name":"from","type":"address"},{"indexed":true,"internalType":"address","name":"to","type":"address"},{"indexed":false,"internalType":"uint256","name":"amount","type":"uint256"},{"indexed":false,"internalType":"uint8","name":"level","type":"uint8"},{"indexed":false,"internalType":"string","name":"incomeType","type":"string"}],"name":"ReferralCommission","type":"event"},{"anonymous":false,"inputs":[{"indexed":true,"internalType":"address","name":"user","type":"address"},{"indexed":true,"internalType":"address","name":"referrer","type":"address"},{"indexed":false,"internalType":"uint256","name":"timestamp","type":"uint256"}],"name":"UserRegistered","type":"event"},{"anonymous":false,"inputs":[{"indexed":true,"internalType":"address","name":"user","type":"address"},{"indexed":false,"internalType":"uint256","name":"amount","type":"uint256"},{"indexed":false,"internalType":"uint256","name":"fee","type":"uint256"},{"indexed":false,"internalType":"uint256","name":"timestamp","type":"uint256"}],"name":"Withdrawal","type":"event"},{"inputs":[],"name":"CASHBACK_TRIGGER","outputs":[{"internalType":"uint256","name":"","type":"uint256"}],"stateMutability":"view","type":"function"},{"inputs":[],"name":"GAME_MULTIPLIER","outputs":[{"internalType":"uint8","name":"","type":"uint8"}],"stateMutability":"view","type":"function"},{"inputs":[],"name":"MAX_PRACTICE_USERS","outputs":[{"internalType":"uint256","name":"","type":"uint256"}],"stateMutability":"view","type":"function"},{"inputs":[],"name":"MAX_WITHDRAWAL","outputs":[{"internalType":"uint256","name":"","type":"uint256"}],"stateMutability":"view","type":"function"},{"inputs":[],"name":"MIN_BET","outputs":[{"internalType":"uint256","name":"","type":"uint256"}],"stateMutability":"view","type":"function"},{"inputs":[],"name":"MIN_WITHDRAWAL","outputs":[{"internalType":"uint256","name":"","type":"uint256"}],"stateMutability":"view","type":"function"},{"inputs":[],"name":"PRACTICE_BONUS","outputs":[{"internalType":"uint256","name":"","type":"uint256"}],"stateMutability":"view","type":"function"},{"inputs":[],"name":"TOTAL_NUMBERS","outputs":[{"internalType":"uint8","name":"","type":"uint8"}],"stateMutability":"view","type":"function"},{"inputs":[],"name":"WITHDRAWAL_FEE","outputs":[{"internalType":"uint256","name":"","type":"uint256"}],"stateMutability":"view","type":"function"},{"inputs":[],"name":"cashbackRate","outputs":[{"internalType":"uint256","name":"","type":"uint256"}],"stateMutability":"view","type":"function"},{"inputs":[],"name":"claimCashback","outputs":[],"stateMutability":"nonpayable","type":"function"},{"inputs":[],"name":"convertPracticeToCash","outputs":[],"stateMutability":"nonpayable","type":"function"},{"inputs":[{"internalType":"uint256","name":"_amount","type":"uint256"}],"name":"deposit","outputs":[],"stateMutability":"nonpayable","type":"function"},{"inputs":[{"internalType":"uint256","name":"","type":"uint256"}],"name":"directLevelCommission","outputs":[{"internalType":"uint16","name":"","type":"uint16"}],"stateMutability":"view","type":"function"},{"inputs":[{"internalType":"address","name":"","type":"address"},{"internalType":"uint256","name":"","type":"uint256"}],"name":"directReferralsList","outputs":[{"internalType":"address","name":"","type":"address"}],"stateMutability":"view","type":"function"},{"inputs":[{"internalType":"address","name":"_token","type":"address"},{"internalType":"uint256","name":"_amount","type":"uint256"}],"name":"emergencyWithdraw","outputs":[],"stateMutability":"nonpayable","type":"function"},{"inputs":[{"internalType":"address","name":"","type":"address"},{"internalType":"uint256","name":"","type":"uint256"}],"name":"gameHistory","outputs":[{"internalType":"uint256","name":"timestamp","type":"uint256"},{"internalType":"uint8","name":"selectedNumber","type":"uint8"},{"internalType":"uint8","name":"winningNumber","type":"uint8"},{"internalType":"uint256","name":"betAmount","type":"uint256"},{"internalType":"bool","name":"isWin","type":"bool"},{"internalType":"bool","name":"isPractice","type":"bool"}],"stateMutability":"view","type":"function"},{"inputs":[{"internalType":"address","name":"_user","type":"address"}],"name":"getDirectReferrals","outputs":[{"internalType":"address[]","name":"","type":"address[]"}],"stateMutability":"view","type":"function"},{"inputs":[{"internalType":"address","name":"_user","type":"address"},{"internalType":"uint256","name":"_limit","type":"uint256"}],"name":"getGameHistory","outputs":[{"components":[{"internalType":"uint256","name":"timestamp","type":"uint256"},{"internalType":"uint8","name":"selectedNumber","type":"uint8"},{"internalType":"uint8","name":"winningNumber","type":"uint8"},{"internalType":"uint256","name":"betAmount","type":"uint256"},{"internalType":"bool","name":"isWin","type":"bool"},{"internalType":"bool","name":"isPractice","type":"bool"}],"internalType":"struct TRKBlockchain.GameResult[]","name":"","type":"tuple[]"}],"stateMutability":"view","type":"function"},{"inputs":[{"internalType":"address","name":"_user","type":"address"}],"name":"getReferralLink","outputs":[{"internalType":"string","name":"","type":"string"}],"stateMutability":"pure","type":"function"},{"inputs":[{"internalType":"address","name":"_user","type":"address"}],"name":"getUserInfo","outputs":[{"components":[{"internalType":"bool","name":"isRegistered","type":"bool"},{"internalType":"address","name":"referrer","type":"address"},{"internalType":"uint256","name":"registrationTime","type":"uint256"},{"internalType":"uint256","name":"totalDeposited","type":"uint256"},{"internalType":"uint256","name":"totalWithdrawn","type":"uint256"},{"internalType":"uint256","name":"directReferrals","type":"uint256"},{"internalType":"uint256","name":"teamSize","type":"uint256"},{"internalType":"bool","name":"isActivated","type":"bool"},{"internalType":"bool","name":"isPremiumActivated","type":"bool"},{"internalType":"uint256","name":"totalLosses","type":"uint256"},{"internalType":"uint256","name":"cashbackReceived","type":"uint256"},{"internalType":"uint256","name":"lastCashbackTime","type":"uint256"}],"internalType":"struct TRKBlockchain.User","name":"","type":"tuple"}],"stateMutability":"view","type":"function"},{"inputs":[{"internalType":"address","name":"_user","type":"address"}],"name":"getUserWallets","outputs":[{"components":[{"internalType":"uint256","name":"cashBalance","type":"uint256"},{"internalType":"uint256","name":"practiceBalance","type":"uint256"},{"internalType":"uint256","name":"directWallet","type":"uint256"},{"internalType":"uint256","name":"luckyDrawWallet","type":"uint256"}],"internalType":"struct TRKBlockchain.Wallets","name":"","type":"tuple"}],"stateMutability":"view","type":"function"},{"inputs":[],"name":"owner","outputs":[{"internalType":"address","name":"","type":"address"}],"stateMutability":"view","type":"function"},{"inputs":[{"internalType":"uint256","name":"_betAmount","type":"uint256"},{"internalType":"uint8","name":"_selectedNumber","type":"uint8"},{"internalType":"bool","name":"_isPractice","type":"bool"}],"name":"playGame","outputs":[],"stateMutability":"nonpayable","type":"function"},{"inputs":[],"name":"practiceUsersCount","outputs":[{"internalType":"uint256","name":"","type":"uint256"}],"stateMutability":"view","type":"function"},{"inputs":[{"internalType":"address","name":"","type":"address"},{"internalType":"uint256","name":"","type":"uint256"}],"name":"referralLevels","outputs":[{"internalType":"uint256","name":"","type":"uint256"}],"stateMutability":"view","type":"function"},{"inputs":[{"internalType":"address","name":"_referrer","type":"address"}],"name":"register","outputs":[],"stateMutability":"nonpayable","type":"function"},{"inputs":[{"internalType":"uint256","name":"","type":"uint256"}],"name":"roiCommission","outputs":[{"internalType":"uint16","name":"","type":"uint16"}],"stateMutability":"view","type":"function"},{"inputs":[],"name":"totalGamesPlayed","outputs":[{"internalType":"uint256","name":"","type":"uint256"}],"stateMutability":"view","type":"function"},{"inputs":[],"name":"totalUsers","outputs":[{"internalType":"uint256","name":"","type":"uint256"}],"stateMutability":"view","type":"function"},{"inputs":[],"name":"totalVolume","outputs":[{"internalType":"uint256","name":"","type":"uint256"}],"stateMutability":"view","type":"function"},{"inputs":[{"internalType":"uint256","name":"_newRate","type":"uint256"}],"name":"updateCashbackRate","outputs":[],"stateMutability":"nonpayable","type":"function"},{"inputs":[],"name":"usdt","outputs":[{"internalType":"contract IERC20","name":"","type":"address"}],"stateMutability":"view","type":"function"},{"inputs":[{"internalType":"address","name":"","type":"address"}],"name":"users","outputs":[{"internalType":"bool","name":"isRegistered","type":"bool"},{"internalType":"address","name":"referrer","type":"address"},{"internalType":"uint256","name":"registrationTime","type":"uint256"},{"internalType":"uint256","name":"totalDeposited","type":"uint256"},{"internalType":"uint256","name":"totalWithdrawn","type":"uint256"},{"internalType":"uint256","name":"directReferrals","type":"uint256"},{"internalType":"uint256","name":"teamSize","type":"uint256"},{"internalType":"bool","name":"isActivated","type":"bool"},{"internalType":"bool","name":"isPremiumActivated","type":"bool"},{"internalType":"uint256","name":"totalLosses","type":"uint256"},{"internalType":"uint256","name":"cashbackReceived","type":"uint256"},{"internalType":"uint256","name":"lastCashbackTime","type":"uint256"}],"stateMutability":"view","type":"function"},{"inputs":[{"internalType":"address","name":"","type":"address"}],"name":"wallets","outputs":[{"internalType":"uint256","name":"cashBalance","type":"uint256"},{"internalType":"uint256","name":"practiceBalance","type":"uint256"},{"internalType":"uint256","name":"directWallet","type":"uint256"},{"internalType":"uint256","name":"luckyDrawWallet","type":"uint256"}],"stateMutability":"view","type":"function"},{"inputs":[{"internalType":"uint256","name":"","type":"uint256"}],"name":"winnerLevelCommission","outputs":[{"internalType":"uint16","name":"","type":"uint16"}],"stateMutability":"view","type":"function"},{"inputs":[{"internalType":"uint256","name":"_amount","type":"uint256"}],"name":"withdraw","outputs":[],"stateMutability":"nonpayable","type":"function"}],"evm":{"bytecode":{"linkReferences":{},"object":"6102606040526101f4608090815260c860a052606460c081905260e08190526101005260326101208190526101408190526101608190526101808190526101a08190526101c08190526101e0819052610200819052610220819052610240526200006e90600890600f620003a4565b50604080516101e0810182526101f4815260c860208201526064918101829052606081018290526080810191909152603260a0820181905260c0820181905260e08201819052610100820181905261012082018190526101408201819052610160820181905261018082018190526101a082018190526101c0820152620000fa90600990600f620003a4565b50604080516101e0810182526107d081526103e8602082018190529181018290526060810182905260808101919091526101f460a0820181905260c0820181905260e08201819052610100820181905261012082015261012c6101408201819052610160820181905261018082018190526101a082018190526101c08201526200018990600a90600f620003a4565b506032600b553480156200019c57600080fd5b50604051620031e7380380620031e7833981016040819052620001bf916200046b565b806000806101000a8154816001600160a01b0302191690836001600160a01b0316021790555033600160006101000a8154816001600160a01b0302191690836001600160a01b0316021790555060405180610180016040528060011515815260200160006001600160a01b031681526020014281526020016000815260200160008152602001600081526020016000815260200160011515815260200160011515815260200160008152602001600081526020014281525060026000600160009054906101000a90046001600160a01b03166001600160a01b03166001600160a01b0316815260200190815260200160002060008201518160000160006101000a81548160ff02191690831515021790555060208201518160000160016101000a8154816001600160a01b0302191690836001600160a01b0316021790555060408201518160010155606082015181600201556080820151816003015560a0820151816004015560c0820151816005015560e08201518160060160006101000a81548160ff0219169083151502179055506101008201518160060160016101000a81548160ff0219169083151502179055506101208201518160070155610140820151816008015561016082015181600901559050506001600c81905550506200049d565b82805482825590600052602060002090600f01601090048101928215620004425791602002820160005b838211156200041057835183826101000a81548161ffff021916908361ffff1602179055509260200192600201602081600101049283019260010302620003ce565b8015620004405782816101000a81549061ffff021916905560020160208160010104928301926001030262000410565b505b506200045092915062000454565b5090565b5b8082111562000450576000815560010162000455565b6000602082840312156200047e57600080fd5b81516001600160a01b03811681146200049657600080fd5b9392505050565b612d3a80620004ad6000396000f3fe608060405234801561001057600080fd5b50600436106102275760003560e01c806395ccea6711610130578063bdca79b5116100b8578063d18afe1a1161007c578063d18afe1a1461030e578063d2c8e0e5146105ff578063ddea08511461061f578063efc1cdc714610632578063f0aaa16c1461064557600080fd5b8063bdca79b5146105cc578063bff1f9e1146105df578063c6f6bb11146102f4578063d15ca166146105e8578063d1680d2f146105f757600080fd5b8063a87430ba116100ff578063a87430ba14610498578063b57543c814610573578063b59703a314610593578063b6b55f25146105a6578063b9f71b89146105b957600080fd5b806395ccea671461046257806397ec642c146104755780639c7bc08e14610486578063a5d33ed51461048f57600080fd5b80635f81a57c116101b357806370faad321161018257806370faad32146103bd5780637ec7586c146103c557806383d7d37a146103d857806389b08f11146103f85780638da5cb5b1461044f57600080fd5b80635f81a57c1461033f5780636386c1c7146103485780636540742f146103685780636cbae1571461037757600080fd5b80634420e486116101fa5780634420e486146102e15780634d1a6699146102f4578063524b5f7d1461030e57806356f4256b1461032c5780635c4921291461033657600080fd5b8063141c591c1461022c5780632e1a7d4d146102575780632f48ab7d1461026c5780633f2ea8bb14610297575b600080fd5b61023f61023a3660046128b3565b61064e565b60405161ffff90911681526020015b60405180910390f35b61026a6102653660046128b3565b610686565b005b60005461027f906001600160a01b031681565b6040516001600160a01b03909116815260200161024e565b6102aa6102a53660046128e8565b61097d565b6040805196875260ff95861660208801529390941692850192909252606084015215156080830152151560a082015260c00161024e565b61026a6102ef366004612912565b6109da565b6102fc600881565b60405160ff909116815260200161024e565b61031e68056bc75e2d6310000081565b60405190815260200161024e565b61031e620186a081565b61031e600d5481565b61031e600e5481565b61035b610356366004612912565b610d9b565b60405161024e9190612934565b61031e670de0b6b3a764000081565b61038a610385366004612912565b610ec7565b60405161024e91908151815260208083015190820152604080830151908201526060918201519181019190915260800190565b61026a610f3d565b61023f6103d33660046128b3565b611231565b6103eb6103e63660046128e8565b611241565b60405161024e91906129d5565b61042f610406366004612912565b600360208190526000918252604090912080546001820154600283015492909301549092919084565b60408051948552602085019390935291830152606082015260800161024e565b60015461027f906001600160a01b031681565b61026a6104703660046128e8565b6113d8565b61031e69010f0cf064dd5920000081565b61031e600b5481565b61031e6103e881565b61050c6104a6366004612912565b6002602081905260009182526040909120805460018201549282015460038301546004840154600585015460068601546007870154600888015460099098015460ff8089169a6001600160a01b036101009a8b9004169a9099858316950490911692918c565b604080519c15158d526001600160a01b03909b1660208d0152998b019890985260608a0196909652608089019490945260a088019290925260c0870152151560e086015215156101008501526101208401526101408301526101608201526101800161024e565b610586610581366004612912565b61149a565b60405161024e9190612a7b565b61027f6105a13660046128e8565b6114cb565b61026a6105b43660046128b3565b611503565b61026a6105c73660046128b3565b6117ab565b61031e6105da3660046128e8565b611830565b61031e600c5481565b61031e674563918244f4000081565b61026a611861565b61061261060d366004612912565b6119a7565b60405161024e9190612aae565b61023f61062d3660046128b3565b611a1d565b61026a610640366004612b0c565b611a2d565b61031e60075481565b600a818154811061065e57600080fd5b9060005260206000209060109182820401919006600202915054906101000a900461ffff1681565b3360009081526002602052604090205460ff166106be5760405162461bcd60e51b81526004016106b590612b54565b60405180910390fd5b3360009081526002602052604090206006015460ff166107185760405162461bcd60e51b81526020600482015260156024820152741058d8dbdd5b9d081b9bdd081858dd1a5d985d1959605a1b60448201526064016106b5565b674563918244f400008110156107605760405162461bcd60e51b815260206004820152600d60248201526c42656c6f77206d696e696d756d60981b60448201526064016106b5565b69010f0cf064dd592000008111156107aa5760405162461bcd60e51b815260206004820152600d60248201526c41626f7665206d6178696d756d60981b60448201526064016106b5565b336000908152600360205260409020600201548111156108035760405162461bcd60e51b8152602060048201526014602482015273496e73756666696369656e742062616c616e636560601b60448201526064016106b5565b60006127106108146103e884612b92565b61081e9190612bbf565b9050600061082c8284612bd3565b33600090815260036020526040812060020180549293508592909190610853908490612bd3565b9091555050336000908152600260205260408120600301805483929061087a908490612be6565b909155505060005460405163a9059cbb60e01b8152336004820152602481018390526001600160a01b039091169063a9059cbb906044016020604051808303816000875af11580156108d0573d6000803e3d6000fd5b505050506040513d601f19601f820116820180604052508101906108f49190612bf9565b6109325760405162461bcd60e51b815260206004820152600f60248201526e151c985b9cd9995c8819985a5b1959608a1b60448201526064016106b5565b6040805182815260208101849052429181019190915233907f650fdf669e93aa6c8ff3defe2da9c12b64f1548e5e1e54e803f4c1beb6466c8e906060015b60405180910390a2505050565b6005602052816000526040600020818154811061099957600080fd5b6000918252602090912060049091020180546001820154600283015460039093015491945060ff808216945061010091829004811693928082169290041686565b3360009081526002602052604090205460ff1615610a2f5760405162461bcd60e51b8152602060048201526012602482015271105b1c9958591e481c9959da5cdd195c995960721b60448201526064016106b5565b336001600160a01b03821603610a7f5760405162461bcd60e51b815260206004820152601560248201527421b0b73737ba103932b332b9103cb7bab939b2b63360591b60448201526064016106b5565b6001600160a01b03811615610afb576001600160a01b03811660009081526002602052604090205460ff16610af65760405162461bcd60e51b815260206004820152601760248201527f5265666572726572206e6f74207265676973746572656400000000000000000060448201526064016106b5565b610b09565b506001546001600160a01b03165b604051806101800160405280600115158152602001826001600160a01b031681526020014281526020016000815260200160008152602001600081526020016000815260200160001515815260200160001515815260200160008152602001600081526020014281525060026000336001600160a01b03166001600160a01b0316815260200190815260200160002060008201518160000160006101000a81548160ff02191690831515021790555060208201518160000160016101000a8154816001600160a01b0302191690836001600160a01b0316021790555060408201518160010155606082015181600201556080820151816003015560a0820151816004015560c0820151816005015560e08201518160060160006101000a81548160ff0219169083151502179055506101008201518160060160016101000a81548160ff02191690831515021790555061012082015181600701556101408201518160080155610160820151816009015590505060026000826001600160a01b03166001600160a01b031681526020019081526020016000206004016000815480929190610cb590612c16565b90915550506001600160a01b03811660009081526004602090815260408220805460018101825590835291200180546001600160a01b03191633179055610cfb81611ec3565b620186a06007541015610d435733600090815260036020526040812068056bc75e2d631000006001909101556007805491610d3583612c16565b9190505550610d4333611f48565b600c8054906000610d5383612c16565b90915550506040514281526001600160a01b0382169033907f05345a91f639184e946e5aac384b1e9f74ae9ab08d775a7deddb3180cebecb239060200160405180910390a350565b610e0e60405180610180016040528060001515815260200160006001600160a01b0316815260200160008152602001600081526020016000815260200160008152602001600081526020016000151581526020016000151581526020016000815260200160008152602001600081525090565b506001600160a01b03908116600090815260026020818152604092839020835161018081018552815460ff80821615158352610100918290049097169382019390935260018201549481019490945291820154606084015260038201546080840152600482015460a0840152600582015460c08401526006820154808516151560e08501528190049093161515928201929092526007820154610120820152600882015461014082015260099091015461016082015290565b610ef26040518060800160405280600081526020016000815260200160008152602001600081525090565b506001600160a01b0316600090815260036020818152604092839020835160808101855281548152600182015492810192909252600281015493820193909352910154606082015290565b3360009081526002602052604090205460ff16610f6c5760405162461bcd60e51b81526004016106b590612b54565b33600090815260026020526040902060060154610100900460ff16610fcc5760405162461bcd60e51b815260206004820152601660248201527513995959080c4c0c0ac81554d1150819195c1bdcda5d60521b60448201526064016106b5565b3360009081526002602052604090206007015468056bc75e2d6310000011156110305760405162461bcd60e51b8152602060048201526016602482015275131bdcdcd95cc818995b1bddc81d1a1c995cda1bdb1960521b60448201526064016106b5565b336000908152600260205260409020600901546110509062015180612be6565b4210156110975760405162461bcd60e51b8152602060048201526015602482015274416c726561647920636c61696d656420746f64617960581b60448201526064016106b5565b33600090815260026020526040812060088101546007909101546110bb9190612bd3565b9050600081116111045760405162461bcd60e51b81526020600482015260146024820152732737903637b9b9b2b9903a37903932b1b7bb32b960611b60448201526064016106b5565b6000612710600b54836111179190612b92565b6111219190612bbf565b33600090815260026020526040812060080180549293508392909190611148908490612be6565b9091555050336000908152600260208181526040808420426009909101556003909152822001805483929061117e908490612be6565b9091555061118e905033826120f3565b6000606461119d836014612b92565b6111a79190612bbf565b336000908152600360208190526040822001805492935083929091906111ce908490612be6565b909155505033600090815260036020526040812060020180548392906111f5908490612bd3565b90915550506040805183815242602082015233917f7d7980008d7cbf10859df70b685a3e1f69189b5620763976c2c2fc6aa5d619659101610970565b6008818154811061065e57600080fd5b6001600160a01b03821660009081526005602052604081205460609181841161126a578361126c565b815b905060008167ffffffffffffffff81111561128957611289612c2f565b6040519080825280602002602001820160405280156112e957816020015b6040805160c08101825260008082526020808301829052928201819052606082018190526080820181905260a082015282526000199092019101816112a75790505b50905060005b828110156113cc576001600160a01b03871660009081526005602052604090208161131b600187612bd3565b6113259190612bd3565b8154811061133557611335612c45565b60009182526020918290206040805160c081018252600490930290910180548352600181015460ff808216958501959095526101009081900485169284019290925260028101546060840152600301548084161515608084015204909116151560a082015282518390839081106113ae576113ae612c45565b602002602001018190525080806113c490612c16565b9150506112ef565b50925050505b92915050565b6001546001600160a01b0316331461141e5760405162461bcd60e51b81526020600482015260096024820152682737ba1037bbb732b960b91b60448201526064016106b5565b60015460405163a9059cbb60e01b81526001600160a01b039182166004820152602481018390529083169063a9059cbb906044016020604051808303816000875af1158015611471573d6000803e3d6000fd5b505050506040513d601f19601f820116820180604052508101906114959190612bf9565b505050565b60606114a58261229e565b6040516020016114b59190612c5b565b6040516020818303038152906040529050919050565b600460205281600052604060002081815481106114e757600080fd5b6000918252602090912001546001600160a01b03169150829050565b3360009081526002602052604090205460ff166115325760405162461bcd60e51b81526004016106b590612b54565b678ac7230489e8000081101561157c5760405162461bcd60e51b815260206004820152600f60248201526e135a5b9a5b5d5b480c4c081554d115608a1b60448201526064016106b5565b6000546040516323b872dd60e01b8152336004820152306024820152604481018390526001600160a01b03909116906323b872dd906064016020604051808303816000875af11580156115d3573d6000803e3d6000fd5b505050506040513d601f19601f820116820180604052508101906115f79190612bf9565b6116355760405162461bcd60e51b815260206004820152600f60248201526e151c985b9cd9995c8819985a5b1959608a1b60448201526064016106b5565b3360009081526003602052604081208054839290611654908490612be6565b9091555050336000908152600260208190526040822001805483929061167b908490612be6565b9250508190555080600e60008282546116949190612be6565b90915550503360009081526002602052604090206006015460ff161580156116d757503360009081526002602081905260409091200154678ac7230489e8000011155b156116fa57336000908152600260205260409020600601805460ff191660011790555b33600090815260026020526040902060060154610100900460ff1615801561173e5750336000908152600260208190526040909120015468056bc75e2d6310000011155b1561176357336000908152600260205260409020600601805461ff0019166101001790555b61176d33826124b5565b6040805182815242602082015233917f90890809c654f11d6e72a28fa60149770a0d11ec6c92319d6ceb2bb0a4ea1a1591015b60405180910390a250565b6001546001600160a01b031633146117f15760405162461bcd60e51b81526020600482015260096024820152682737ba1037bbb732b960b91b60448201526064016106b5565b606481111561182b5760405162461bcd60e51b81526020600482015260066024820152654d617820312560d01b60448201526064016106b5565b600b55565b6006602052816000526040600020818154811061184c57600080fd5b90600052602060002001600091509150505481565b3360009081526002602052604090205460ff166118905760405162461bcd60e51b81526004016106b590612b54565b33600090815260026020526040902060060154610100900460ff166118f05760405162461bcd60e51b815260206004820152601660248201527513995959080c4c0c0ac81554d1150819195c1bdcda5d60521b60448201526064016106b5565b336000908152600360205260409020600101546119455760405162461bcd60e51b81526020600482015260136024820152724e6f2070726163746963652062616c616e636560681b60448201526064016106b5565b3360009081526003602052604081206001810180549083905581549092839291611970908490612be6565b909155505060405181815233907f5d2a47d91f9a9718b496e04429c7e05815a9f5cce410c5c681df340413887957906020016117a0565b6001600160a01b038116600090815260046020908152604091829020805483518184028101840190945280845260609392830182828015611a1157602002820191906000526020600020905b81546001600160a01b031681526001909101906020018083116119f3575b50505050509050919050565b6009818154811061065e57600080fd5b3360009081526002602052604090205460ff16611a5c5760405162461bcd60e51b81526004016106b590612b54565b60018260ff1610158015611a745750600860ff831611155b611ab15760405162461bcd60e51b815260206004820152600e60248201526d24b73b30b634b210373ab6b132b960911b60448201526064016106b5565b670de0b6b3a7640000831015611af95760405162461bcd60e51b815260206004820152600d60248201526c10995d081d1bdbc81cdb585b1b609a1b60448201526064016106b5565b8015611b8e5733600090815260036020526040902060010154831115611b615760405162461bcd60e51b815260206004820152601d60248201527f496e73756666696369656e742070726163746963652062616c616e636500000060448201526064016106b5565b3360009081526003602052604081206001018054859290611b83908490612bd3565b90915550611c6c9050565b33600090815260036020526040902054831115611bed5760405162461bcd60e51b815260206004820152601960248201527f496e73756666696369656e7420636173682062616c616e63650000000000000060448201526064016106b5565b3360009081526002602052604090206006015460ff16611c475760405162461bcd60e51b81526020600482015260156024820152741058d8dbdd5b9d081b9bdd081858dd1a5d985d1959605a1b60448201526064016106b5565b3360009081526003602052604081208054859290611c66908490612bd3565b90915550505b6000611c7661266f565b905060ff8381169082161460008115611d4757611c94600887612b92565b90508315611cc9573360009081526003602052604081206001018054839290611cbe908490612be6565b90915550611d749050565b6000611cd6876002612b92565b90506000611ce5886006612b92565b33600090815260036020526040812060020180549293508492909190611d0c908490612be6565b90915550503360009081526003602052604081208054839290611d30908490612be6565b90915550611d40905033846126ff565b5050611d74565b83611d74573360009081526002602052604081206007018054889290611d6e908490612be6565b90915550505b336000908152600560209081526040808320815160c08101835242815260ff808b16828601908152898216948301948552606083018d8152891515608085019081528c151560a08601908152865460018181018955978b52988a2095516004909902909501978855915194870180549651841661010090810261ffff199889169790951696909617939093179092559051600286015551600390940180549151151590920293151561ff001916921691909117919091179055600d805491611e3b83612c16565b919050555083611e5d5785600e6000828254611e579190612be6565b90915550505b6040805185151581526020810188905260ff8781168284015285166060820152831515608082015260a08101839052905133917fa51cb652fd861f42f91d0fa2395b63594214ea9bdd9891505eeb416fa7dbdb2a919081900360c00190a2505050505050565b8060005b60648160ff16108015611ee257506001600160a01b03821615155b15611495576001600160a01b0382166000908152600260205260408120600501805491611f0e83612c16565b90915550506001600160a01b0391821660009081526002602052604090205461010090049091169080611f4081612c98565b915050611ec7565b6001600160a01b0380821660009081526002602052604090205461010090041660015b6001600160a01b03821615801590611f87575060648160ff1611155b156114955760008160ff16600103611fa85750678ac7230489e8000061201b565b60058260ff1611611fc25750671bc16d674ec8000061201b565b600a8260ff1611611fdc5750670de0b6b3a764000061201b565b600f8260ff1611611ff657506706f05b59d3b2000061201b565b60328260ff161161201057506703782dace9d9000061201b565b5067016345785d8a00005b6001600160a01b03831660009081526003602052604081206001018054839290612046908490612be6565b92505081905550826001600160a01b0316846001600160a01b0316600080516020612ce583398151915283856040516120b592919091825260ff1660208201526060604082018190526011908201527014149050d51250d157d491519154949053607a1b608082015260a00190565b60405180910390a36001600160a01b03928316600090815260026020526040902054610100900490921691816120ea81612c98565b92505050611f6b565b6001600160a01b038083166000908152600260205260408120546101009004909116906064612123846032612b92565b61212d9190612bbf565b905060005b600f8160ff1610801561214d57506001600160a01b03831615155b15612297576001600160a01b03831660009081526002602052604090206006015460ff1615612262576000612710600a8360ff168154811061219157612191612c45565b600091825260209091206010820401546121bb91600f166002026101000a900461ffff1685612b92565b6121c59190612bbf565b6001600160a01b0385166000908152600360205260408120600201805492935083929091906121f5908490612be6565b90915550506001600160a01b03808516908716600080516020612ce583398151915283612223866001612cb7565b6040805192835260ff90911660208301526060908201819052600a9082015269524f495f4f4e5f524f4960b01b608082015260a00160405180910390a3505b6001600160a01b039283166000908152600260205260409020546101009004909216918061228f81612c98565b915050612132565b5050505050565b606060006040518060400160405280601081526020016f181899199a1a9b1b9c1cb0b131b232b360811b81525090506000836040516020016122f8919060609190911b6bffffffffffffffffffffffff1916815260140190565b60408051808303601f19018152602a80845260608401909252925060009190602082018180368337019050509050600360fc1b8160008151811061233e5761233e612c45565b60200101906001600160f81b031916908160001a905350600f60fb1b8160018151811061236d5761236d612c45565b60200101906001600160f81b031916908160001a90535060005b60148110156124ac578360048483815181106123a5576123a5612c45565b016020015182516001600160f81b031990911690911c60f81c9081106123cd576123cd612c45565b01602001516001600160f81b031916826123e8836002612b92565b6123f3906002612be6565b8151811061240357612403612c45565b60200101906001600160f81b031916908160001a9053508383828151811061242d5761242d612c45565b602091010151815160f89190911c600f1690811061244d5761244d612c45565b01602001516001600160f81b03191682612468836002612b92565b612473906003612be6565b8151811061248357612483612c45565b60200101906001600160f81b031916908160001a905350806124a481612c16565b915050612387565b50949350505050565b6001600160a01b038083166000908152600260205260408120546101009004909116905b600f8160ff161080156124f457506001600160a01b03821615155b15612669576001600160a01b03821660009081526002602052604090206004015460ff821610801561254157506001600160a01b03821660009081526002602052604090206006015460ff165b1561263457600061271060088360ff168154811061256157612561612c45565b6000918252602090912060108204015461258b91600f166002026101000a900461ffff1686612b92565b6125959190612bbf565b6001600160a01b0384166000908152600360205260408120600201805492935083929091906125c5908490612be6565b90915550506001600160a01b03808416908616600080516020612ce5833981519152836125f3866001612cb7565b6040805192835260ff90911660208301526060908201819052600c908201526b1112549150d517d31155915360a21b608082015260a00160405180910390a3505b6001600160a01b039182166000908152600260205260409020546101009004909116908061266181612c98565b9150506124d9565b50505050565b600f80546000918261268083612c16565b9091555050600f54600d5460408051426020820152449181019190915233606090811b6bffffffffffffffffffffffff1916908201526074810192909252609482015260009060b40160408051601f19818403018152919052805160209091012090506126ee600882612cd0565b6126f9906001612be6565b91505090565b6001600160a01b038083166000908152600260205260408120546101009004909116905b600f8160ff1610801561273e57506001600160a01b03821615155b15612669576001600160a01b03821660009081526002602052604090206004015460ff821610801561278b57506001600160a01b03821660009081526002602052604090206006015460ff165b1561287e57600061271060098360ff16815481106127ab576127ab612c45565b600091825260209091206010820401546127d591600f166002026101000a900461ffff1686612b92565b6127df9190612bbf565b6001600160a01b03841660009081526003602052604081206002018054929350839290919061280f908490612be6565b90915550506001600160a01b03808416908616600080516020612ce58339815191528361283d866001612cb7565b6040805192835260ff90911660208301526060908201819052600c908201526b15d25393915497d31155915360a21b608082015260a00160405180910390a3505b6001600160a01b03918216600090815260026020526040902054610100900490911690806128ab81612c98565b915050612723565b6000602082840312156128c557600080fd5b5035919050565b80356001600160a01b03811681146128e357600080fd5b919050565b600080604083850312156128fb57600080fd5b612904836128cc565b946020939093013593505050565b60006020828403121561292457600080fd5b61292d826128cc565b9392505050565b8151151581526101808101602083015161295960208401826001600160a01b03169052565b5060408301516040830152606083015160608301526080830151608083015260a083015160a083015260c083015160c083015260e083015161299f60e084018215159052565b50610100838101511515908301526101208084015190830152610140808401519083015261016092830151929091019190915290565b602080825282518282018190526000919060409081850190868401855b82811015612a4a578151805185528681015160ff908116888701528682015116868601526060808201519086015260808082015115159086015260a09081015115159085015260c090930192908501906001016129f2565b5091979650505050505050565b60005b83811015612a72578181015183820152602001612a5a565b50506000910152565b6020815260008251806020840152612a9a816040850160208701612a57565b601f01601f19169190910160400192915050565b6020808252825182820181905260009190848201906040850190845b81811015612aef5783516001600160a01b031683529284019291840191600101612aca565b50909695505050505050565b8015158114612b0957600080fd5b50565b600080600060608486031215612b2157600080fd5b83359250602084013560ff81168114612b3957600080fd5b91506040840135612b4981612afb565b809150509250925092565b6020808252600e908201526d139bdd081c9959da5cdd195c995960921b604082015260600190565b634e487b7160e01b600052601160045260246000fd5b80820281158282048414176113d2576113d2612b7c565b634e487b7160e01b600052601260045260246000fd5b600082612bce57612bce612ba9565b500490565b818103818111156113d2576113d2612b7c565b808201808211156113d2576113d2612b7c565b600060208284031215612c0b57600080fd5b815161292d81612afb565b600060018201612c2857612c28612b7c565b5060010190565b634e487b7160e01b600052604160045260246000fd5b634e487b7160e01b600052603260045260246000fd5b7468747470733a2f2f74726b2e67616d652f7265662f60581b815260008251612c8b816015850160208701612a57565b9190910160150192915050565b600060ff821660ff8103612cae57612cae612b7c565b60010192915050565b60ff81811683821601908111156113d2576113d2612b7c565b600082612cdf57612cdf612ba9565b50069056feec04d2a7f4b308bdaca6a57da056cdcfa0a844c6cb4b38a24173d35420a49561a2646970667358221220c0d7aa9a41f3f5e7ced56bbf325ce291915fe9bae6cd3383f8b144b484e131fc64736f6c63430008130033","opcodes":"PUSH2 0x260 PUSH1 0x40 MSTORE PUSH2 0x1F4 PUSH1 0x80 SWAP1 DUP2 MSTORE PUSH1 0xC8 PUSH1 0xA0 MSTORE PUSH1 0x64 PUSH1 0xC0 DUP2 SWAP1 MSTORE PUSH1 0xE0 DUP2 SWAP1 MSTORE PUSH2 0x100 MSTORE PUSH1 0x32 PUSH2 0x120 DUP2 SWAP1 MSTORE PUSH2 0x140 DUP2 SWAP1 MSTORE PUSH2 0x160 DUP2 SWAP1 MSTORE PUSH2 0x180 DUP2 SWAP1 MSTORE PUSH2 0x1A0 DUP2 SWAP1 MSTORE PUSH2 0x1C0 DUP2 SWAP1 MSTORE PUSH2 0x1E0 DUP2 SWAP1 MSTORE PUSH2 0x200 DUP2 SWAP1 MSTORE PUSH2 0x220 DUP2 SWAP1 MSTORE PUSH2 0x240 MSTORE PUSH3 0x6E SWAP1 PUSH1 0x8 SWAP1 PUSH1 0xF PUSH3 0x3A4 JUMP JUMPDEST POP PUSH1 0x40 DUP1 MLOAD PUSH2 0x1E0 DUP2 ADD DUP3 MSTORE PUSH2 0x1F4 DUP2 MSTORE PUSH1 0xC8 PUSH1 0x20 DUP3 ADD MSTORE PUSH1 0x64 SWAP2 DUP2 ADD DUP3 SWAP1 MSTORE PUSH1 0x60 DUP2 ADD DUP3 SWAP1 MSTORE PUSH1 0x80 DUP2 ADD SWAP2 SWAP1 SWAP2 MSTORE PUSH1 0x32 PUSH1 0xA0 DUP3 ADD DUP2 SWAP1 MSTORE PUSH1 0xC0 DUP3 ADD DUP2 SWAP1 MSTORE PUSH1 0xE0 DUP3 ADD DUP2 SWAP1 MSTORE PUSH2 0x100 DUP3 ADD DUP2 SWAP1 MSTORE PUSH2 0x120 DUP3 ADD DUP2 SWAP1 MSTORE PUSH2 0x140 DUP3 ADD DUP2 SWAP1 MSTORE PUSH2 0x160 DUP3 ADD DUP2 SWAP1 MSTORE PUSH2 0x180 DUP3 ADD DUP2 SWAP1 MSTORE PUSH2 0x1A0 DUP3 ADD DUP2 SWAP1 MSTORE PUSH2 0x1C0 DUP3 ADD MSTORE PUSH3 0xFA SWAP1 PUSH1 0x9 SWAP1 PUSH1 0xF PUSH3 0x3A4 JUMP JUMPDEST POP PUSH1 0x40 DUP1 MLOAD PUSH2 0x1E0 DUP2 ADD DUP3 MSTORE PUSH2 0x7D0 DUP2 MSTORE PUSH2 0x3E8 PUSH1 0x20 DUP3 ADD DUP2 SWAP1 MSTORE SWAP2 DUP2 ADD DUP3 SWAP1 MSTORE PUSH1 0x60 DUP2 ADD DUP3 SWAP1 MSTORE PUSH1 0x80 DUP2 ADD SWAP2 SWAP1 SWAP2 MSTORE PUSH2 0x1F4 PUSH1 0xA0 DUP3 ADD DUP2 SWAP1 MSTORE PUSH1 0xC0 DUP3 ADD DUP2 SWAP1 MSTORE PUSH1 0xE0 DUP3 ADD DUP2 SWAP1 MSTORE PUSH2 0x100 DUP3 ADD DUP2 SWAP1 MSTORE PUSH2 0x120 DUP3 ADD MSTORE PUSH2 0x12C PUSH2 0x140 DUP3 ADD DUP2 SWAP1 MSTORE PUSH2 0x160 DUP3 ADD DUP2 SWAP1 MSTORE PUSH2 0x180 DUP3 ADD DUP2 SWAP1 MSTORE PUSH2 0x1A0 DUP3 ADD DUP2 SWAP1 MSTORE PUSH2 0x1C0 DUP3 ADD MSTORE PUSH3 0x189 SWAP1 PUSH1 0xA SWAP1 PUSH1 0xF PUSH3 0x3A4 JUMP JUMPDEST POP PUSH1 0x32 PUSH1 0xB SSTORE CALLVALUE DUP1 ISZERO PUSH3 0x19C JUMPI PUSH1 0x0 DUP1 REVERT JUMPDEST POP PUSH1 0x40 MLOAD PUSH3 0x31E7 CODESIZE SUB DUP1 PUSH3 0x31E7 DUP4 CODECOPY DUP2 ADD PUSH1 0x40 DUP2 SWAP1 MSTORE PUSH3 0x1BF SWAP2 PUSH3 0x46B JUMP JUMPDEST DUP1 PUSH1 0x0 DUP1 PUSH2 0x100 EXP DUP2 SLOAD DUP2 PUSH1 0x1 PUSH1 0x1 PUSH1 0xA0 SHL SUB MUL NOT AND SWAP1 DUP4 PUSH1 0x1 PUSH1 0x1 PUSH1 0xA0 SHL SUB AND MUL OR SWAP1 SSTORE POP CALLER PUSH1 0x1 PUSH1 0x0 PUSH2 0x100 EXP DUP2 SLOAD DUP2 PUSH1 0x1 PUSH1 0x1 PUSH1 0xA0 SHL SUB MUL NOT AND SWAP1 DUP4 PUSH1 0x1 PUSH1 0x1 PUSH1 0xA0 SHL SUB AND MUL OR SWAP1 SSTORE POP PUSH1 0x40 MLOAD DUP1 PUSH2 0x180 ADD PUSH1 0x40 MSTORE DUP1 PUSH1 0x1 ISZERO ISZERO DUP2 MSTORE PUSH1 0x20 ADD PUSH1 0x0 PUSH1 0x1 PUSH1 0x1 PUSH1 0xA0 SHL SUB AND DUP2 MSTORE PUSH1 0x20 ADD TIMESTAMP DUP2 MSTORE PUSH1 0x20 ADD PUSH1 0x0 DUP2 MSTORE PUSH1 0x20 ADD PUSH1 0x0 DUP2 MSTORE PUSH1 0x20 ADD PUSH1 0x0 DUP2 MSTORE PUSH1 0x20 ADD PUSH1 0x0 DUP2 MSTORE PUSH1 0x20 ADD PUSH1 0x1 ISZERO ISZERO DUP2 MSTORE PUSH1 0x20 ADD PUSH1 0x1 ISZERO ISZERO DUP2 MSTORE PUSH1 0x20 ADD PUSH1 0x0 DUP2 MSTORE PUSH1 0x20 ADD PUSH1 0x0 DUP2 MSTORE PUSH1 0x20 ADD TIMESTAMP DUP2 MSTORE POP PUSH1 0x2 PUSH1 0x0 PUSH1 0x1 PUSH1 0x0 SWAP1 SLOAD SWAP1 PUSH2 0x100 EXP SWAP1 DIV PUSH1 0x1 PUSH1 0x1 PUSH1 0xA0 SHL SUB AND PUSH1 0x1 PUSH1 0x1 PUSH1 0xA0 SHL SUB AND PUSH1 0x1 PUSH1 0x1 PUSH1 0xA0 SHL SUB AND DUP2 MSTORE PUSH1 0x20 ADD SWAP1 DUP2 MSTORE PUSH1 0x20 ADD PUSH1 0x0 KECCAK256 PUSH1 0x0 DUP3 ADD MLOAD DUP2 PUSH1 0x0 ADD PUSH1 0x0 PUSH2 0x100 EXP DUP2 SLOAD DUP2 PUSH1 0xFF MUL NOT AND SWAP1 DUP4 ISZERO ISZERO MUL OR SWAP1 SSTORE POP PUSH1 0x20 DUP3 ADD MLOAD DUP2 PUSH1 0x0 ADD PUSH1 0x1 PUSH2 0x100 EXP DUP2 SLOAD DUP2 PUSH1 0x1 PUSH1 0x1 PUSH1 0xA0 SHL SUB MUL NOT AND SWAP1 DUP4 PUSH1 0x1 PUSH1 0x1 PUSH1 0xA0 SHL SUB AND MUL OR SWAP1 SSTORE POP PUSH1 0x40 DUP3 ADD MLOAD DUP2 PUSH1 0x1 ADD SSTORE PUSH1 0x60 DUP3 ADD MLOAD DUP2 PUSH1 0x2 ADD SSTORE PUSH1 0x80 DUP3 ADD MLOAD DUP2 PUSH1 0x3 ADD SSTORE PUSH1 0xA0 DUP3 ADD MLOAD DUP2 PUSH1 0x4 ADD SSTORE PUSH1 0xC0 DUP3 ADD MLOAD DUP2 PUSH1 0x5 ADD SSTORE PUSH1 0xE0 DUP3 ADD MLOAD DUP2 PUSH1 0x6 ADD PUSH1 0x0 PUSH2 0x100 EXP DUP2 SLOAD DUP2 PUSH1 0xFF MUL NOT AND SWAP1 DUP4 ISZERO ISZERO MUL OR SWAP1 SSTORE POP PUSH2 0x100 DUP3 ADD MLOAD DUP2 PUSH1 0x6 ADD PUSH1 0x1 PUSH2 0x100 EXP DUP2 SLOAD DUP2 PUSH1 0xFF MUL NOT AND SWAP1 DUP4 ISZERO ISZERO MUL OR SWAP1 SSTORE POP PUSH2 0x120 DUP3 ADD MLOAD DUP2 PUSH1 0x7 ADD SSTORE PUSH2 0x140 DUP3 ADD MLOAD DUP2 PUSH1 0x8 ADD SSTORE PUSH2 0x160 DUP3 ADD MLOAD DUP2 PUSH1 0x9 ADD SSTORE SWAP1 POP POP PUSH1 0x1 PUSH1 0xC DUP2 SWAP1 SSTORE POP POP PUSH3 0x49D JUMP JUMPDEST DUP3 DUP1 SLOAD DUP3 DUP3 SSTORE SWAP1 PUSH1 0x0 MSTORE PUSH1 0x20 PUSH1 0x0 KECCAK256 SWAP1 PUSH1 0xF ADD PUSH1 0x10 SWAP1 DIV DUP2 ADD SWAP3 DUP3 ISZERO PUSH3 0x442 JUMPI SWAP2 PUSH1 0x20 MUL DUP3 ADD PUSH1 0x0 JUMPDEST DUP4 DUP3 GT ISZERO PUSH3 0x410 JUMPI DUP4 MLOAD DUP4 DUP3 PUSH2 0x100 EXP DUP2 SLOAD DUP2 PUSH2 0xFFFF MUL NOT AND SWAP1 DUP4 PUSH2 0xFFFF AND MUL OR SWAP1 SSTORE POP SWAP3 PUSH1 0x20 ADD SWAP3 PUSH1 0x2 ADD PUSH1 0x20 DUP2 PUSH1 0x1 ADD DIV SWAP3 DUP4 ADD SWAP3 PUSH1 0x1 SUB MUL PUSH3 0x3CE JUMP JUMPDEST DUP1 ISZERO PUSH3 0x440 JUMPI DUP3 DUP2 PUSH2 0x100 EXP DUP2 SLOAD SWAP1 PUSH2 0xFFFF MUL NOT AND SWAP1 SSTORE PUSH1 0x2 ADD PUSH1 0x20 DUP2 PUSH1 0x1 ADD DIV SWAP3 DUP4 ADD SWAP3 PUSH1 0x1 SUB MUL PUSH3 0x410 JUMP JUMPDEST POP JUMPDEST POP PUSH3 0x450 SWAP3 SWAP2 POP PUSH3 0x454 JUMP JUMPDEST POP SWAP1 JUMP JUMPDEST JUMPDEST DUP1 DUP3 GT ISZERO PUSH3 0x450 JUMPI PUSH1 0x0 DUP2 SSTORE PUSH1 0x1 ADD PUSH3 0x455 JUMP JUMPDEST PUSH1 0x0 PUSH1 0x20 DUP3 DUP5 SUB SLT ISZERO PUSH3 0x47E JUMPI PUSH1 0x0 DUP1 REVERT JUMPDEST DUP2 MLOAD PUSH1 0x1 PUSH1 0x1 PUSH1 0xA0 SHL SUB DUP2 AND DUP2 EQ PUSH3 0x496 JUMPI PUSH1 0x0 DUP1 REVERT JUMPDEST SWAP4 SWAP3 POP POP POP JUMP JUMPDEST PUSH2 0x2D3A DUP1 PUSH3 0x4AD PUSH1 0x0 CODECOPY PUSH1 0x0 RETURN INVALID PUSH1 0x80 PUSH1 0x40 MSTORE CALLVALUE DUP1 ISZERO PUSH2 0x10 JUMPI PUSH1 0x0 DUP1 REVERT JUMPDEST POP PUSH1 0x4 CALLDATASIZE LT PUSH2 0x227 JUMPI PUSH1 0x0 CALLDATALOAD PUSH1 0xE0 SHR DUP1 PUSH4 0x95CCEA67 GT PUSH2 0x130 JUMPI DUP1 PUSH4 0xBDCA79B5 GT PUSH2 0xB8 JUMPI DUP1 PUSH4 0xD18AFE1A GT PUSH2 0x7C JUMPI DUP1 PUSH4 0xD18AFE1A EQ PUSH2 0x30E JUMPI DUP1 PUSH4 0xD2C8E0E5 EQ PUSH2 0x5FF JUMPI DUP1 PUSH4 0xDDEA0851 EQ PUSH2 0x61F JUMPI DUP1 PUSH4 0xEFC1CDC7 EQ PUSH2 0x632 JUMPI DUP1 PUSH4 0xF0AAA16C EQ PUSH2 0x645 JUMPI PUSH1 0x0 DUP1 REVERT JUMPDEST DUP1 PUSH4 0xBDCA79B5 EQ PUSH2 0x5CC JUMPI DUP1 PUSH4 0xBFF1F9E1 EQ PUSH2 0x5DF JUMPI DUP1 PUSH4 0xC6F6BB11 EQ PUSH2 0x2F4 JUMPI DUP1 PUSH4 0xD15CA166 EQ PUSH2 0x5E8 JUMPI DUP1 PUSH4 0xD1680D2F EQ PUSH2 0x5F7 JUMPI PUSH1 0x0 DUP1 REVERT JUMPDEST DUP1 PUSH4 0xA87430BA GT PUSH2 0xFF JUMPI DUP1 PUSH4 0xA87430BA EQ PUSH2 0x498 JUMPI DUP1 PUSH4 0xB57543C8 EQ PUSH2 0x573 JUMPI DUP1 PUSH4 0xB59703A3 EQ PUSH2 0x593 JUMPI DUP1 PUSH4 0xB6B55F25 EQ PUSH2 0x5A6 JUMPI DUP1 PUSH4 0xB9F71B89 EQ PUSH2 0x5B9 JUMPI PUSH1 0x0 DUP1 REVERT JUMPDEST DUP1 PUSH4 0x95CCEA67 EQ PUSH2 0x462 JUMPI DUP1 PUSH4 0x97EC642C EQ PUSH2 0x475 JUMPI DUP1 PUSH4 0x9C7BC08E EQ PUSH2 0x486 JUMPI DUP1 PUSH4 0xA5D33ED5 EQ PUSH2 0x48F JUMPI PUSH1 0x0 DUP1 REVERT JUMPDEST DUP1 PUSH4 0x5F81A57C GT PUSH2 0x1B3 JUMPI DUP1 PUSH4 0x70FAAD32 GT PUSH2 0x182 JUMPI DUP1 PUSH4 0x70FAAD32 EQ PUSH2 0x3BD JUMPI DUP1 PUSH4 0x7EC7586C EQ PUSH2 0x3C5 JUMPI DUP1 PUSH4 0x83D7D37A EQ PUSH2 0x3D8 JUMPI DUP1 PUSH4 0x89B08F11 EQ PUSH2 0x3F8 JUMPI DUP1 PUSH4 0x8DA5CB5B EQ PUSH2 0x44F JUMPI PUSH1 0x0 DUP1 REVERT JUMPDEST DUP1 PUSH4 0x5F81A57C EQ PUSH2 0x33F JUMPI DUP1 PUSH4 0x6386C1C7 EQ PUSH2 0x348 JUMPI DUP1 PUSH4 0x6540742F EQ PUSH2 0x368 JUMPI DUP1 PUSH4 0x6CBAE157 EQ PUSH2 0x377 JUMPI PUSH1 0x0 DUP1 REVERT JUMPDEST DUP1 PUSH4 0x4420E486 GT PUSH2 0x1FA JUMPI DUP1 PUSH4 0x4420E486 EQ PUSH2 0x2E1 JUMPI DUP1 PUSH4 0x4D1A6699 EQ PUSH2 0x2F4 JUMPI DUP1 PUSH4 0x524B5F7D EQ PUSH2 0x30E JUMPI DUP1 PUSH4 0x56F4256B EQ PUSH2 0x32C JUMPI DUP1 PUSH4 0x5C492129 EQ PUSH2 0x336 JUMPI PUSH1 0x0 DUP1 REVERT JUMPDEST DUP1 PUSH4 0x141C591C EQ PUSH2 0x22C JUMPI DUP1 PUSH4 0x2E1A7D4D EQ PUSH2 0x257 JUMPI DUP1 PUSH4 0x2F48AB7D EQ PUSH2 0x26C JUMPI DUP1 PUSH4 0x3F2EA8BB EQ PUSH2 0x297 JUMPI JUMPDEST PUSH1 0x0 DUP1 REVERT JUMPDEST PUSH2 0x23F PUSH2 0x23A CALLDATASIZE PUSH1 0x4 PUSH2 0x28B3 JUMP JUMPDEST PUSH2 0x64E JUMP JUMPDEST PUSH1 0x40 MLOAD PUSH2 0xFFFF SWAP1 SWAP2 AND DUP2 MSTORE PUSH1 0x20 ADD JUMPDEST PUSH1 0x40 MLOAD DUP1 SWAP2 SUB SWAP1 RETURN JUMPDEST PUSH2 0x26A PUSH2 0x265 CALLDATASIZE PUSH1 0x4 PUSH2 0x28B3 JUMP JUMPDEST PUSH2 0x686 JUMP JUMPDEST STOP JUMPDEST PUSH1 0x0 SLOAD PUSH2 0x27F SWAP1 PUSH1 0x1 PUSH1 0x1 PUSH1 0xA0 SHL SUB AND DUP2 JUMP JUMPDEST PUSH1 0x40 MLOAD PUSH1 0x1 PUSH1 0x1 PUSH1 0xA0 SHL SUB SWAP1 SWAP2 AND DUP2 MSTORE PUSH1 0x20 ADD PUSH2 0x24E JUMP JUMPDEST PUSH2 0x2AA PUSH2 0x2A5 CALLDATASIZE PUSH1 0x4 PUSH2 0x28E8 JUMP JUMPDEST PUSH2 0x97D JUMP JUMPDEST PUSH1 0x40 DUP1 MLOAD SWAP7 DUP8 MSTORE PUSH1 0xFF SWAP6 DUP7 AND PUSH1 0x20 DUP9 ADD MSTORE SWAP4 SWAP1 SWAP5 AND SWAP3 DUP6 ADD SWAP3 SWAP1 SWAP3 MSTORE PUSH1 0x60 DUP5 ADD MSTORE ISZERO ISZERO PUSH1 0x80 DUP4 ADD MSTORE ISZERO ISZERO PUSH1 0xA0 DUP3 ADD MSTORE PUSH1 0xC0 ADD PUSH2 0x24E JUMP JUMPDEST PUSH2 0x26A PUSH2 0x2EF CALLDATASIZE PUSH1 0x4 PUSH2 0x2912 JUMP JUMPDEST PUSH2 0x9DA JUMP JUMPDEST PUSH2 0x2FC PUSH1 0x8 DUP2 JUMP JUMPDEST PUSH1 0x40 MLOAD PUSH1 0xFF SWAP1 SWAP2 AND DUP2 MSTORE PUSH1 0x20 ADD PUSH2 0x24E JUMP JUMPDEST PUSH2 0x31E PUSH9 0x56BC75E2D63100000 DUP2 JUMP JUMPDEST PUSH1 0x40 MLOAD SWAP1 DUP2 MSTORE PUSH1 0x20 ADD PUSH2 0x24E JUMP JUMPDEST PUSH2 0x31E PUSH3 0x186A0 DUP2 JUMP JUMPDEST PUSH2 0x31E PUSH1 0xD SLOAD DUP2 JUMP JUMPDEST PUSH2 0x31E PUSH1 0xE SLOAD DUP2 JUMP JUMPDEST PUSH2 0x35B PUSH2 0x356 CALLDATASIZE PUSH1 0x4 PUSH2 0x2912 JUMP JUMPDEST PUSH2 0xD9B JUMP JUMPDEST PUSH1 0x40 MLOAD PUSH2 0x24E SWAP2 SWAP1 PUSH2 0x2934 JUMP JUMPDEST PUSH2 0x31E PUSH8 0xDE0B6B3A7640000 DUP2 JUMP JUMPDEST PUSH2 0x38A PUSH2 0x385 CALLDATASIZE PUSH1 0x4 PUSH2 0x2912 JUMP JUMPDEST PUSH2 0xEC7 JUMP JUMPDEST PUSH1 0x40 MLOAD PUSH2 0x24E SWAP2 SWAP1 DUP2 MLOAD DUP2 MSTORE PUSH1 0x20 DUP1 DUP4 ADD MLOAD SWAP1 DUP3 ADD MSTORE PUSH1 0x40 DUP1 DUP4 ADD MLOAD SWAP1 DUP3 ADD MSTORE PUSH1 0x60 SWAP2 DUP3 ADD MLOAD SWAP2 DUP2 ADD SWAP2 SWAP1 SWAP2 MSTORE PUSH1 0x80 ADD SWAP1 JUMP JUMPDEST PUSH2 0x26A PUSH2 0xF3D JUMP JUMPDEST PUSH2 0x23F PUSH2 0x3D3 CALLDATASIZE PUSH1 0x4 PUSH2 0x28B3 JUMP JUMPDEST PUSH2 0x1231 JUMP JUMPDEST PUSH2 0x3EB PUSH2 0x3E6 CALLDATASIZE PUSH1 0x4 PUSH2 0x28E8 JUMP JUMPDEST PUSH2 0x1241 JUMP JUMPDEST PUSH1 0x40 MLOAD PUSH2 0x24E SWAP2 SWAP1 PUSH2 0x29D5 JUMP JUMPDEST PUSH2 0x42F PUSH2 0x406 CALLDATASIZE PUSH1 0x4 PUSH2 0x2912 JUMP JUMPDEST PUSH1 0x3 PUSH1 0x20 DUP2 SWAP1 MSTORE PUSH1 0x0 SWAP2 DUP3 MSTORE PUSH1 0x40 SWAP1 SWAP2 KECCAK256 DUP1 SLOAD PUSH1 0x1 DUP3 ADD SLOAD PUSH1 0x2 DUP4 ADD SLOAD SWAP3 SWAP1 SWAP4 ADD SLOAD SWAP1 SWAP3 SWAP2 SWAP1 DUP5 JUMP JUMPDEST PUSH1 0x40 DUP1 MLOAD SWAP5 DUP6 MSTORE PUSH1 0x20 DUP6 ADD SWAP4 SWAP1 SWAP4 MSTORE SWAP2 DUP4 ADD MSTORE PUSH1 0x60 DUP3 ADD MSTORE PUSH1 0x80 ADD PUSH2 0x24E JUMP JUMPDEST PUSH1 0x1 SLOAD PUSH2 0x27F SWAP1 PUSH1 0x1 PUSH1 0x1 PUSH1 0xA0 SHL SUB AND DUP2 JUMP JUMPDEST PUSH2 0x26A PUSH2 0x470 CALLDATASIZE PUSH1 0x4 PUSH2 0x28E8 JUMP JUMPDEST PUSH2 0x13D8 JUMP JUMPDEST PUSH2 0x31E PUSH10 0x10F0CF064DD59200000 DUP2 JUMP JUMPDEST PUSH2 0x31E PUSH1 0xB SLOAD DUP2 JUMP JUMPDEST PUSH2 0x31E PUSH2 0x3E8 DUP2 JUMP JUMPDEST PUSH2 0x50C PUSH2 0x4A6 CALLDATASIZE PUSH1 0x4 PUSH2 0x2912 JUMP JUMPDEST PUSH1 0x2 PUSH1 0x20 DUP2 SWAP1 MSTORE PUSH1 0x0 SWAP2 DUP3 MSTORE PUSH1 0x40 SWAP1 SWAP2 KECCAK256 DUP1 SLOAD PUSH1 0x1 DUP3 ADD SLOAD SWAP3 DUP3 ADD SLOAD PUSH1 0x3 DUP4 ADD SLOAD PUSH1 0x4 DUP5 ADD SLOAD PUSH1 0x5 DUP6 ADD SLOAD PUSH1 0x6 DUP7 ADD SLOAD PUSH1 0x7 DUP8 ADD SLOAD PUSH1 0x8 DUP9 ADD SLOAD PUSH1 0x9 SWAP1 SWAP9 ADD SLOAD PUSH1 0xFF DUP1 DUP10 AND SWAP11 PUSH1 0x1 PUSH1 0x1 PUSH1 0xA0 SHL SUB PUSH2 0x100 SWAP11 DUP12 SWAP1 DIV AND SWAP11 SWAP1 SWAP10 DUP6 DUP4 AND SWAP6 DIV SWAP1 SWAP2 AND SWAP3 SWAP2 DUP13 JUMP JUMPDEST PUSH1 0x40 DUP1 MLOAD SWAP13 ISZERO ISZERO DUP14 MSTORE PUSH1 0x1 PUSH1 0x1 PUSH1 0xA0 SHL SUB SWAP1 SWAP12 AND PUSH1 0x20 DUP14 ADD MSTORE SWAP10 DUP12 ADD SWAP9 SWAP1 SWAP9 MSTORE PUSH1 0x60 DUP11 ADD SWAP7 SWAP1 SWAP7 MSTORE PUSH1 0x80 DUP10 ADD SWAP5 SWAP1 SWAP5 MSTORE PUSH1 0xA0 DUP9 ADD SWAP3 SWAP1 SWAP3 MSTORE PUSH1 0xC0 DUP8 ADD MSTORE ISZERO ISZERO PUSH1 0xE0 DUP7 ADD MSTORE ISZERO ISZERO PUSH2 0x100 DUP6 ADD MSTORE PUSH2 0x120 DUP5 ADD MSTORE PUSH2 0x140 DUP4 ADD MSTORE PUSH2 0x160 DUP3 ADD MSTORE PUSH2 0x180 ADD PUSH2 0x24E JUMP JUMPDEST PUSH2 0x586 PUSH2 0x581 CALLDATASIZE PUSH1 0x4 PUSH2 0x2912 JUMP JUMPDEST PUSH2 0x149A JUMP JUMPDEST PUSH1 0x40 MLOAD PUSH2 0x24E SWAP2 SWAP1 PUSH2 0x2A7B JUMP JUMPDEST PUSH2 0x27F PUSH2 0x5A1 CALLDATASIZE PUSH1 0x4 PUSH2 0x28E8 JUMP JUMPDEST PUSH2 0x14CB JUMP JUMPDEST PUSH2 0x26A PUSH2 0x5B4 CALLDATASIZE PUSH1 0x4 PUSH2 0x28B3 JUMP JUMPDEST PUSH2 0x1503 JUMP JUMPDEST PUSH2 0x26A PUSH2 0x5C7 CALLDATASIZE PUSH1 0x4 PUSH2 0x28B3 JUMP JUMPDEST PUSH2 0x17AB JUMP JUMPDEST PUSH2 0x31E PUSH2 0x5DA CALLDATASIZE PUSH1 0x4 PUSH2 0x28E8 JUMP JUMPDEST PUSH2 0x1830 JUMP JUMPDEST PUSH2 0x31E PUSH1 0xC SLOAD DUP2 JUMP JUMPDEST PUSH2 0x31E PUSH8 0x4563918244F40000 DUP2 JUMP JUMPDEST PUSH2 0x26A PUSH2 0x1861 JUMP JUMPDEST PUSH2 0x612 PUSH2 0x60D CALLDATASIZE PUSH1 0x4 PUSH2 0x2912 JUMP JUMPDEST PUSH2 0x19A7 JUMP JUMPDEST PUSH1 0x40 MLOAD PUSH2 0x24E SWAP2 SWAP1 PUSH2 0x2AAE JUMP JUMPDEST PUSH2 0x23F PUSH2 0x62D CALLDATASIZE PUSH1 0x4 PUSH2 0x28B3 JUMP JUMPDEST PUSH2 0x1A1D JUMP JUMPDEST PUSH2 0x26A PUSH2 0x640 CALLDATASIZE PUSH1 0x4 PUSH2 0x2B0C JUMP JUMPDEST PUSH2 0x1A2D JUMP JUMPDEST PUSH2 0x31E PUSH1 0x7 SLOAD DUP2 JUMP JUMPDEST PUSH1 0xA DUP2 DUP2 SLOAD DUP2 LT PUSH2 0x65E JUMPI PUSH1 0x0 DUP1 REVERT JUMPDEST SWAP1 PUSH1 0x0 MSTORE PUSH1 0x20 PUSH1 0x0 KECCAK256 SWAP1 PUSH1 0x10 SWAP2 DUP3 DUP3 DIV ADD SWAP2 SWAP1 MOD PUSH1 0x2 MUL SWAP2 POP SLOAD SWAP1 PUSH2 0x100 EXP SWAP1 DIV PUSH2 0xFFFF AND DUP2 JUMP JUMPDEST CALLER PUSH1 0x0 SWAP1 DUP2 MSTORE PUSH1 0x2 PUSH1 0x20 MSTORE PUSH1 0x40 SWAP1 KECCAK256 SLOAD PUSH1 0xFF AND PUSH2 0x6BE JUMPI PUSH1 0x40 MLOAD PUSH3 0x461BCD PUSH1 0xE5 SHL DUP2 MSTORE PUSH1 0x4 ADD PUSH2 0x6B5 SWAP1 PUSH2 0x2B54 JUMP JUMPDEST PUSH1 0x40 MLOAD DUP1 SWAP2 SUB SWAP1 REVERT JUMPDEST CALLER PUSH1 0x0 SWAP1 DUP2 MSTORE PUSH1 0x2 PUSH1 0x20 MSTORE PUSH1 0x40 SWAP1 KECCAK256 PUSH1 0x6 ADD SLOAD PUSH1 0xFF AND PUSH2 0x718 JUMPI PUSH1 0x40 MLOAD PUSH3 0x461BCD PUSH1 0xE5 SHL DUP2 MSTORE PUSH1 0x20 PUSH1 0x4 DUP3 ADD MSTORE PUSH1 0x15 PUSH1 0x24 DUP3 ADD MSTORE PUSH21 0x1058D8DBDD5B9D081B9BDD081858DD1A5D985D1959 PUSH1 0x5A SHL PUSH1 0x44 DUP3 ADD MSTORE PUSH1 0x64 ADD PUSH2 0x6B5 JUMP JUMPDEST PUSH8 0x4563918244F40000 DUP2 LT ISZERO PUSH2 0x760 JUMPI PUSH1 0x40 MLOAD PUSH3 0x461BCD PUSH1 0xE5 SHL DUP2 MSTORE PUSH1 0x20 PUSH1 0x4 DUP3 ADD MSTORE PUSH1 0xD PUSH1 0x24 DUP3 ADD MSTORE PUSH13 0x42656C6F77206D696E696D756D PUSH1 0x98 SHL PUSH1 0x44 DUP3 ADD MSTORE PUSH1 0x64 ADD PUSH2 0x6B5 JUMP JUMPDEST PUSH10 0x10F0CF064DD59200000 DUP2 GT ISZERO PUSH2 0x7AA JUMPI PUSH1 0x40 MLOAD PUSH3 0x461BCD PUSH1 0xE5 SHL DUP2 MSTORE PUSH1 0x20 PUSH1 0x4 DUP3 ADD MSTORE PUSH1 0xD PUSH1 0x24 DUP3 ADD MSTORE PUSH13 0x41626F7665206D6178696D756D PUSH1 0x98 SHL PUSH1 0x44 DUP3 ADD MSTORE PUSH1 0x64 ADD PUSH2 0x6B5 JUMP JUMPDEST CALLER PUSH1 0x0 SWAP1 DUP2 MSTORE PUSH1 0x3 PUSH1 0x20 MSTORE PUSH1 0x40 SWAP1 KECCAK256 PUSH1 0x2 ADD SLOAD DUP2 GT ISZERO PUSH2 0x803 JUMPI PUSH1 0x40 MLOAD PUSH3 0x461BCD PUSH1 0xE5 SHL DUP2 MSTORE PUSH1 0x20 PUSH1 0x4 DUP3 ADD MSTORE PUSH1 0x14 PUSH1 0x24 DUP3 ADD MSTORE PUSH20 0x496E73756666696369656E742062616C616E6365 PUSH1 0x60 SHL PUSH1 0x44 DUP3 ADD MSTORE PUSH1 0x64 ADD PUSH2 0x6B5 JUMP JUMPDEST PUSH1 0x0 PUSH2 0x2710 PUSH2 0x814 PUSH2 0x3E8 DUP5 PUSH2 0x2B92 JUMP JUMPDEST PUSH2 0x81E SWAP2 SWAP1 PUSH2 0x2BBF JUMP JUMPDEST SWAP1 POP PUSH1 0x0 PUSH2 0x82C DUP3 DUP5 PUSH2 0x2BD3 JUMP JUMPDEST CALLER PUSH1 0x0 SWAP1 DUP2 MSTORE PUSH1 0x3 PUSH1 0x20 MSTORE PUSH1 0x40 DUP2 KECCAK256 PUSH1 0x2 ADD DUP1 SLOAD SWAP3 SWAP4 POP DUP6 SWAP3 SWAP1 SWAP2 SWAP1 PUSH2 0x853 SWAP1 DUP5 SWAP1 PUSH2 0x2BD3 JUMP JUMPDEST SWAP1 SWAP2 SSTORE POP POP CALLER PUSH1 0x0 SWAP1 DUP2 MSTORE PUSH1 0x2 PUSH1 0x20 MSTORE PUSH1 0x40 DUP2 KECCAK256 PUSH1 0x3 ADD DUP1 SLOAD DUP4 SWAP3 SWAP1 PUSH2 0x87A SWAP1 DUP5 SWAP1 PUSH2 0x2BE6 JUMP JUMPDEST SWAP1 SWAP2 SSTORE POP POP PUSH1 0x0 SLOAD PUSH1 0x40 MLOAD PUSH4 0xA9059CBB PUSH1 0xE0 SHL DUP2 MSTORE CALLER PUSH1 0x4 DUP3 ADD MSTORE PUSH1 0x24 DUP2 ADD DUP4 SWAP1 MSTORE PUSH1 0x1 PUSH1 0x1 PUSH1 0xA0 SHL SUB SWAP1 SWAP2 AND SWAP1 PUSH4 0xA9059CBB SWAP1 PUSH1 0x44 ADD PUSH1 0x20 PUSH1 0x40 MLOAD DUP1 DUP4 SUB DUP2 PUSH1 0x0 DUP8 GAS CALL ISZERO DUP1 ISZERO PUSH2 0x8D0 JUMPI RETURNDATASIZE PUSH1 0x0 DUP1 RETURNDATACOPY RETURNDATASIZE PUSH1 0x0 REVERT JUMPDEST POP POP POP POP PUSH1 0x40 MLOAD RETURNDATASIZE PUSH1 0x1F NOT PUSH1 0x1F DUP3 ADD AND DUP3 ADD DUP1 PUSH1 0x40 MSTORE POP DUP2 ADD SWAP1 PUSH2 0x8F4 SWAP2 SWAP1 PUSH2 0x2BF9 JUMP JUMPDEST PUSH2 0x932 JUMPI PUSH1 0x40 MLOAD PUSH3 0x461BCD PUSH1 0xE5 SHL DUP2 MSTORE PUSH1 0x20 PUSH1 0x4 DUP3 ADD MSTORE PUSH1 0xF PUSH1 0x24 DUP3 ADD MSTORE PUSH15 0x151C985B9CD9995C8819985A5B1959 PUSH1 0x8A SHL PUSH1 0x44 DUP3 ADD MSTORE PUSH1 0x64 ADD PUSH2 0x6B5 JUMP JUMPDEST PUSH1 0x40 DUP1 MLOAD DUP3 DUP2 MSTORE PUSH1 0x20 DUP2 ADD DUP5 SWAP1 MSTORE TIMESTAMP SWAP2 DUP2 ADD SWAP2 SWAP1 SWAP2 MSTORE CALLER SWAP1 PUSH32 0x650FDF669E93AA6C8FF3DEFE2DA9C12B64F1548E5E1E54E803F4C1BEB6466C8E SWAP1 PUSH1 0x60 ADD JUMPDEST PUSH1 0x40 MLOAD DUP1 SWAP2 SUB SWAP1 LOG2 POP POP POP JUMP JUMPDEST PUSH1 0x5 PUSH1 0x20 MSTORE DUP2 PUSH1 0x0 MSTORE PUSH1 0x40 PUSH1 0x0 KECCAK256 DUP2 DUP2 SLOAD DUP2 LT PUSH2 0x999 JUMPI PUSH1 0x0 DUP1 REVERT JUMPDEST PUSH1 0x0 SWAP2 DUP3 MSTORE PUSH1 0x20 SWAP1 SWAP2 KECCAK256 PUSH1 0x4 SWAP1 SWAP2 MUL ADD DUP1 SLOAD PUSH1 0x1 DUP3 ADD SLOAD PUSH1 0x2 DUP4 ADD SLOAD PUSH1 0x3 SWAP1 SWAP4 ADD SLOAD SWAP2 SWAP5 POP PUSH1 0xFF DUP1 DUP3 AND SWAP5 POP PUSH2 0x100 SWAP2 DUP3 SWAP1 DIV DUP2 AND SWAP4 SWAP3 DUP1 DUP3 AND SWAP3 SWAP1 DIV AND DUP7 JUMP JUMPDEST CALLER PUSH1 0x0 SWAP1 DUP2 MSTORE PUSH1 0x2 PUSH1 0x20 MSTORE PUSH1 0x40 SWAP1 KECCAK256 SLOAD PUSH1 0xFF AND ISZERO PUSH2 0xA2F JUMPI PUSH1 0x40 MLOAD PUSH3 0x461BCD PUSH1 0xE5 SHL DUP2 MSTORE PUSH1 0x20 PUSH1 0x4 DUP3 ADD MSTORE PUSH1 0x12 PUSH1 0x24 DUP3 ADD MSTORE PUSH18 0x105B1C9958591E481C9959DA5CDD195C9959 PUSH1 0x72 SHL PUSH1 0x44 DUP3 ADD MSTORE PUSH1 0x64 ADD PUSH2 0x6B5 JUMP JUMPDEST CALLER PUSH1 0x1 PUSH1 0x1 PUSH1 0xA0 SHL SUB DUP3 AND SUB PUSH2 0xA7F JUMPI PUSH1 0x40 MLOAD PUSH3 0x461BCD PUSH1 0xE5 SHL DUP2 MSTORE PUSH1 0x20 PUSH1 0x4 DUP3 ADD MSTORE PUSH1 0x15 PUSH1 0x24 DUP3 ADD MSTORE PUSH21 0x21B0B73737BA103932B332B9103CB7BAB939B2B633 PUSH1 0x59 SHL PUSH1 0x44 DUP3 ADD MSTORE PUSH1 0x64 ADD PUSH2 0x6B5 JUMP JUMPDEST PUSH1 0x1 PUSH1 0x1 PUSH1 0xA0 SHL SUB DUP2 AND ISZERO PUSH2 0xAFB JUMPI PUSH1 0x1 PUSH1 0x1 PUSH1 0xA0 SHL SUB DUP2 AND PUSH1 0x0 SWAP1 DUP2 MSTORE PUSH1 0x2 PUSH1 0x20 MSTORE PUSH1 0x40 SWAP1 KECCAK256 SLOAD PUSH1 0xFF AND PUSH2 0xAF6 JUMPI PUSH1 0x40 MLOAD PUSH3 0x461BCD PUSH1 0xE5 SHL DUP2 MSTORE PUSH1 0x20 PUSH1 0x4 DUP3 ADD MSTORE PUSH1 0x17 PUSH1 0x24 DUP3 ADD MSTORE PUSH32 0x5265666572726572206E6F742072656769737465726564000000000000000000 PUSH1 0x44 DUP3 ADD MSTORE PUSH1 0x64 ADD PUSH2 0x6B5 JUMP JUMPDEST PUSH2 0xB09 JUMP JUMPDEST POP PUSH1 0x1 SLOAD PUSH1 0x1 PUSH1 0x1 PUSH1 0xA0 SHL SUB AND JUMPDEST PUSH1 0x40 MLOAD DUP1 PUSH2 0x180 ADD PUSH1 0x40 MSTORE DUP1 PUSH1 0x1 ISZERO ISZERO DUP2 MSTORE PUSH1 0x20 ADD DUP3 PUSH1 0x1 PUSH1 0x1 PUSH1 0xA0 SHL SUB AND DUP2 MSTORE PUSH1 0x20 ADD TIMESTAMP DUP2 MSTORE PUSH1 0x20 ADD PUSH1 0x0 DUP2 MSTORE PUSH1 0x20 ADD PUSH1 0x0 DUP2 MSTORE PUSH1 0x20 ADD PUSH1 0x0 DUP2 MSTORE PUSH1 0x20 ADD PUSH1 0x0 DUP2 MSTORE PUSH1 0x20 ADD PUSH1 0x0 ISZERO ISZERO DUP2 MSTORE PUSH1 0x20 ADD PUSH1 0x0 ISZERO ISZERO DUP2 MSTORE PUSH1 0x20 ADD PUSH1 0x0 DUP2 MSTORE PUSH1 0x20 ADD PUSH1 0x0 DUP2 MSTORE PUSH1 0x20 ADD TIMESTAMP DUP2 MSTORE POP PUSH1 0x2 PUSH1 0x0 CALLER PUSH1 0x1 PUSH1 0x1 PUSH1 0xA0 SHL SUB AND PUSH1 0x1 PUSH1 0x1 PUSH1 0xA0 SHL SUB AND DUP2 MSTORE PUSH1 0x20 ADD SWAP1 DUP2 MSTORE PUSH1 0x20 ADD PUSH1 0x0 KECCAK256 PUSH1 0x0 DUP3 ADD MLOAD DUP2 PUSH1 0x0 ADD PUSH1 0x0 PUSH2 0x100 EXP DUP2 SLOAD DUP2 PUSH1 0xFF MUL NOT AND SWAP1 DUP4 ISZERO ISZERO MUL OR SWAP1 SSTORE POP PUSH1 0x20 DUP3 ADD MLOAD DUP2 PUSH1 0x0 ADD PUSH1 0x1 PUSH2 0x100 EXP DUP2 SLOAD DUP2 PUSH1 0x1 PUSH1 0x1 PUSH1 0xA0 SHL SUB MUL NOT AND SWAP1 DUP4 PUSH1 0x1 PUSH1 0x1 PUSH1 0xA0 SHL SUB AND MUL OR SWAP1 SSTORE POP PUSH1 0x40 DUP3 ADD MLOAD DUP2 PUSH1 0x1 ADD SSTORE PUSH1 0x60 DUP3 ADD MLOAD DUP2 PUSH1 0x2 ADD SSTORE PUSH1 0x80 DUP3 ADD MLOAD DUP2 PUSH1 0x3 ADD SSTORE PUSH1 0xA0 DUP3 ADD MLOAD DUP2 PUSH1 0x4 ADD SSTORE PUSH1 0xC0 DUP3 ADD MLOAD DUP2 PUSH1 0x5 ADD SSTORE PUSH1 0xE0 DUP3 ADD MLOAD DUP2 PUSH1 0x6 ADD PUSH1 0x0 PUSH2 0x100 EXP DUP2 SLOAD DUP2 PUSH1 0xFF MUL NOT AND SWAP1 DUP4 ISZERO ISZERO MUL OR SWAP1 SSTORE POP PUSH2 0x100 DUP3 ADD MLOAD DUP2 PUSH1 0x6 ADD PUSH1 0x1 PUSH2 0x100 EXP DUP2 SLOAD DUP2 PUSH1 0xFF MUL NOT AND SWAP1 DUP4 ISZERO ISZERO MUL OR SWAP1 SSTORE POP PUSH2 0x120 DUP3 ADD MLOAD DUP2 PUSH1 0x7 ADD SSTORE PUSH2 0x140 DUP3 ADD MLOAD DUP2 PUSH1 0x8 ADD SSTORE PUSH2 0x160 DUP3 ADD MLOAD DUP2 PUSH1 0x9 ADD SSTORE SWAP1 POP POP PUSH1 0x2 PUSH1 0x0 DUP3 PUSH1 0x1 PUSH1 0x1 PUSH1 0xA0 SHL SUB AND PUSH1 0x1 PUSH1 0x1 PUSH1 0xA0 SHL SUB AND DUP2 MSTORE PUSH1 0x20 ADD SWAP1 DUP2 MSTORE PUSH1 0x20 ADD PUSH1 0x0 KECCAK256 PUSH1 0x4 ADD PUSH1 0x0 DUP2 SLOAD DUP1 SWAP3 SWAP2 SWAP1 PUSH2 0xCB5 SWAP1 PUSH2 0x2C16 JUMP JUMPDEST SWAP1 SWAP2 SSTORE POP POP PUSH1 0x1 PUSH1 0x1 PUSH1 0xA0 SHL SUB DUP2 AND PUSH1 0x0 SWAP1 DUP2 MSTORE PUSH1 0x4 PUSH1 0x20 SWAP1 DUP2 MSTORE PUSH1 0x40 DUP3 KECCAK256 DUP1 SLOAD PUSH1 0x1 DUP2 ADD DUP3 SSTORE SWAP1 DUP4 MSTORE SWAP2 KECCAK256 ADD DUP1 SLOAD PUSH1 0x1 PUSH1 0x1 PUSH1 0xA0 SHL SUB NOT AND CALLER OR SWAP1 SSTORE PUSH2 0xCFB DUP2 PUSH2 0x1EC3 JUMP JUMPDEST PUSH3 0x186A0 PUSH1 0x7 SLOAD LT ISZERO PUSH2 0xD43 JUMPI CALLER PUSH1 0x0 SWAP1 DUP2 MSTORE PUSH1 0x3 PUSH1 0x20 MSTORE PUSH1 0x40 DUP2 KECCAK256 PUSH9 0x56BC75E2D63100000 PUSH1 0x1 SWAP1 SWAP2 ADD SSTORE PUSH1 0x7 DUP1 SLOAD SWAP2 PUSH2 0xD35 DUP4 PUSH2 0x2C16 JUMP JUMPDEST SWAP2 SWAP1 POP SSTORE POP PUSH2 0xD43 CALLER PUSH2 0x1F48 JUMP JUMPDEST PUSH1 0xC DUP1 SLOAD SWAP1 PUSH1 0x0 PUSH2 0xD53 DUP4 PUSH2 0x2C16 JUMP JUMPDEST SWAP1 SWAP2 SSTORE POP POP PUSH1 0x40 MLOAD TIMESTAMP DUP2 MSTORE PUSH1 0x1 PUSH1 0x1 PUSH1 0xA0 SHL SUB DUP3 AND SWAP1 CALLER SWAP1 PUSH32 0x5345A91F639184E946E5AAC384B1E9F74AE9AB08D775A7DEDDB3180CEBECB23 SWAP1 PUSH1 0x20 ADD PUSH1 0x40 MLOAD DUP1 SWAP2 SUB SWAP1 LOG3 POP JUMP JUMPDEST PUSH2 0xE0E PUSH1 0x40 MLOAD DUP1 PUSH2 0x180 ADD PUSH1 0x40 MSTORE DUP1 PUSH1 0x0 ISZERO ISZERO DUP2 MSTORE PUSH1 0x20 ADD PUSH1 0x0 PUSH1 0x1 PUSH1 0x1 PUSH1 0xA0 SHL SUB AND DUP2 MSTORE PUSH1 0x20 ADD PUSH1 0x0 DUP2 MSTORE PUSH1 0x20 ADD PUSH1 0x0 DUP2 MSTORE PUSH1 0x20 ADD PUSH1 0x0 DUP2 MSTORE PUSH1 0x20 ADD PUSH1 0x0 DUP2 MSTORE PUSH1 0x20 ADD PUSH1 0x0 DUP2 MSTORE PUSH1 0x20 ADD PUSH1 0x0 ISZERO ISZERO DUP2 MSTORE PUSH1 0x20 ADD PUSH1 0x0 ISZERO ISZERO DUP2 MSTORE PUSH1 0x20 ADD PUSH1 0x0 DUP2 MSTORE PUSH1 0x20 ADD PUSH1 0x0 DUP2 MSTORE PUSH1 0x20 ADD PUSH1 0x0 DUP2 MSTORE POP SWAP1 JUMP JUMPDEST POP PUSH1 0x1 PUSH1 0x1 PUSH1 0xA0 SHL SUB SWAP1 DUP2 AND PUSH1 0x0 SWAP1 DUP2 MSTORE PUSH1 0x2 PUSH1 0x20 DUP2 DUP2 MSTORE PUSH1 0x40 SWAP3 DUP4 SWAP1 KECCAK256 DUP4 MLOAD PUSH2 0x180 DUP2 ADD DUP6 MSTORE DUP2 SLOAD PUSH1 0xFF DUP1 DUP3 AND ISZERO ISZERO DUP4 MSTORE PUSH2 0x100 SWAP2 DUP3 SWAP1 DIV SWAP1 SWAP8 AND SWAP4 DUP3 ADD SWAP4 SWAP1 SWAP4 MSTORE PUSH1 0x1 DUP3 ADD SLOAD SWAP5 DUP2 ADD SWAP5 SWAP1 SWAP5 MSTORE SWAP2 DUP3 ADD SLOAD PUSH1 0x60 DUP5 ADD MSTORE PUSH1 0x3 DUP3 ADD SLOAD PUSH1 0x80 DUP5 ADD MSTORE PUSH1 0x4 DUP3 ADD SLOAD PUSH1 0xA0 DUP5 ADD MSTORE PUSH1 0x5 DUP3 ADD SLOAD PUSH1 0xC0 DUP5 ADD MSTORE PUSH1 0x6 DUP3 ADD SLOAD DUP1 DUP6 AND ISZERO ISZERO PUSH1 0xE0 DUP6 ADD MSTORE DUP2 SWAP1 DIV SWAP1 SWAP4 AND ISZERO ISZERO SWAP3 DUP3 ADD SWAP3 SWAP1 SWAP3 MSTORE PUSH1 0x7 DUP3 ADD SLOAD PUSH2 0x120 DUP3 ADD MSTORE PUSH1 0x8 DUP3 ADD SLOAD PUSH2 0x140 DUP3 ADD MSTORE PUSH1 0x9 SWAP1 SWAP2 ADD SLOAD PUSH2 0x160 DUP3 ADD MSTORE SWAP1 JUMP JUMPDEST PUSH2 0xEF2 PUSH1 0x40 MLOAD DUP1 PUSH1 0x80 ADD PUSH1 0x40 MSTORE DUP1 PUSH1 0x0 DUP2 MSTORE PUSH1 0x20 ADD PUSH1 0x0 DUP2 MSTORE PUSH1 0x20 ADD PUSH1 0x0 DUP2 MSTORE PUSH1 0x20 ADD PUSH1 0x0 DUP2 MSTORE POP SWAP1 JUMP JUMPDEST POP PUSH1 0x1 PUSH1 0x1 PUSH1 0xA0 SHL SUB AND PUSH1 0x0 SWAP1 DUP2 MSTORE PUSH1 0x3 PUSH1 0x20 DUP2 DUP2 MSTORE PUSH1 0x40 SWAP3 DUP4 SWAP1 KECCAK256 DUP4 MLOAD PUSH1 0x80 DUP2 ADD DUP6 MSTORE DUP2 SLOAD DUP2 MSTORE PUSH1 0x1 DUP3 ADD SLOAD SWAP3 DUP2 ADD SWAP3 SWAP1 SWAP3 MSTORE PUSH1 0x2 DUP2 ADD SLOAD SWAP4 DUP3 ADD SWAP4 SWAP1 SWAP4 MSTORE SWAP2 ADD SLOAD PUSH1 0x60 DUP3 ADD MSTORE SWAP1 JUMP JUMPDEST CALLER PUSH1 0x0 SWAP1 DUP2 MSTORE PUSH1 0x2 PUSH1 0x20 MSTORE PUSH1 0x40 SWAP1 KECCAK256 SLOAD PUSH1 0xFF AND PUSH2 0xF6C JUMPI PUSH1 0x40 MLOAD PUSH3 0x461BCD PUSH1 0xE5 SHL DUP2 MSTORE PUSH1 0x4 ADD PUSH2 0x6B5 SWAP1 PUSH2 0x2B54 JUMP JUMPDEST CALLER PUSH1 0x0 SWAP1 DUP2 MSTORE PUSH1 0x2 PUSH1 0x20 MSTORE PUSH1 0x40 SWAP1 KECCAK256 PUSH1 0x6 ADD SLOAD PUSH2 0x100 SWAP1 DIV PUSH1 0xFF AND PUSH2 0xFCC JUMPI PUSH1 0x40 MLOAD PUSH3 0x461BCD PUSH1 0xE5 SHL DUP2 MSTORE PUSH1 0x20 PUSH1 0x4 DUP3 ADD MSTORE PUSH1 0x16 PUSH1 0x24 DUP3 ADD MSTORE PUSH22 0x13995959080C4C0C0AC81554D1150819195C1BDCDA5D PUSH1 0x52 SHL PUSH1 0x44 DUP3 ADD MSTORE PUSH1 0x64 ADD PUSH2 0x6B5 JUMP JUMPDEST CALLER PUSH1 0x0 SWAP1 DUP2 MSTORE PUSH1 0x2 PUSH1 0x20 MSTORE PUSH1 0x40 SWAP1 KECCAK256 PUSH1 0x7 ADD SLOAD PUSH9 0x56BC75E2D63100000 GT ISZERO PUSH2 0x1030 JUMPI PUSH1 0x40 MLOAD PUSH3 0x461BCD PUSH1 0xE5 SHL DUP2 MSTORE PUSH1 0x20 PUSH1 0x4 DUP3 ADD MSTORE PUSH1 0x16 PUSH1 0x24 DUP3 ADD MSTORE PUSH22 0x131BDCDCD95CC818995B1BDDC81D1A1C995CDA1BDB19 PUSH1 0x52 SHL PUSH1 0x44 DUP3 ADD MSTORE PUSH1 0x64 ADD PUSH2 0x6B5 JUMP JUMPDEST CALLER PUSH1 0x0 SWAP1 DUP2 MSTORE PUSH1 0x2 PUSH1 0x20 MSTORE PUSH1 0x40 SWAP1 KECCAK256 PUSH1 0x9 ADD SLOAD PUSH2 0x1050 SWAP1 PUSH3 0x15180 PUSH2 0x2BE6 JUMP JUMPDEST TIMESTAMP LT ISZERO PUSH2 0x1097 JUMPI PUSH1 0x40 MLOAD PUSH3 0x461BCD PUSH1 0xE5 SHL DUP2 MSTORE PUSH1 0x20 PUSH1 0x4 DUP3 ADD MSTORE PUSH1 0x15 PUSH1 0x24 DUP3 ADD MSTORE PUSH21 0x416C726561647920636C61696D656420746F646179 PUSH1 0x58 SHL PUSH1 0x44 DUP3 ADD MSTORE PUSH1 0x64 ADD PUSH2 0x6B5 JUMP JUMPDEST CALLER PUSH1 0x0 SWAP1 DUP2 MSTORE PUSH1 0x2 PUSH1 0x20 MSTORE PUSH1 0x40 DUP2 KECCAK256 PUSH1 0x8 DUP2 ADD SLOAD PUSH1 0x7 SWAP1 SWAP2 ADD SLOAD PUSH2 0x10BB SWAP2 SWAP1 PUSH2 0x2BD3 JUMP JUMPDEST SWAP1 POP PUSH1 0x0 DUP2 GT PUSH2 0x1104 JUMPI PUSH1 0x40 MLOAD PUSH3 0x461BCD PUSH1 0xE5 SHL DUP2 MSTORE PUSH1 0x20 PUSH1 0x4 DUP3 ADD MSTORE PUSH1 0x14 PUSH1 0x24 DUP3 ADD MSTORE PUSH20 0x2737903637B9B9B2B9903A37903932B1B7BB32B9 PUSH1 0x61 SHL PUSH1 0x44 DUP3 ADD MSTORE PUSH1 0x64 ADD PUSH2 0x6B5 JUMP JUMPDEST PUSH1 0x0 PUSH2 0x2710 PUSH1 0xB SLOAD DUP4 PUSH2 0x1117 SWAP2 SWAP1 PUSH2 0x2B92 JUMP JUMPDEST PUSH2 0x1121 SWAP2 SWAP1 PUSH2 0x2BBF JUMP JUMPDEST CALLER PUSH1 0x0 SWAP1 DUP2 MSTORE PUSH1 0x2 PUSH1 0x20 MSTORE PUSH1 0x40 DUP2 KECCAK256 PUSH1 0x8 ADD DUP1 SLOAD SWAP3 SWAP4 POP DUP4 SWAP3 SWAP1 SWAP2 SWAP1 PUSH2 0x1148 SWAP1 DUP5 SWAP1 PUSH2 0x2BE6 JUMP JUMPDEST SWAP1 SWAP2 SSTORE POP POP CALLER PUSH1 0x0 SWAP1 DUP2 MSTORE PUSH1 0x2 PUSH1 0x20 DUP2 DUP2 MSTORE PUSH1 0x40 DUP1 DUP5 KECCAK256 TIMESTAMP PUSH1 0x9 SWAP1 SWAP2 ADD SSTORE PUSH1 0x3 SWAP1 SWAP2 MSTORE DUP3 KECCAK256 ADD DUP1 SLOAD DUP4 SWAP3 SWAP1 PUSH2 0x117E SWAP1 DUP5 SWAP1 PUSH2 0x2BE6 JUMP JUMPDEST SWAP1 SWAP2 SSTORE POP PUSH2 0x118E SWAP1 POP CALLER DUP3 PUSH2 0x20F3 JUMP JUMPDEST PUSH1 0x0 PUSH1 0x64 PUSH2 0x119D DUP4 PUSH1 0x14 PUSH2 0x2B92 JUMP JUMPDEST PUSH2 0x11A7 SWAP2 SWAP1 PUSH2 0x2BBF JUMP JUMPDEST CALLER PUSH1 0x0 SWAP1 DUP2 MSTORE PUSH1 0x3 PUSH1 0x20 DUP2 SWAP1 MSTORE PUSH1 0x40 DUP3 KECCAK256 ADD DUP1 SLOAD SWAP3 SWAP4 POP DUP4 SWAP3 SWAP1 SWAP2 SWAP1 PUSH2 0x11CE SWAP1 DUP5 SWAP1 PUSH2 0x2BE6 JUMP JUMPDEST SWAP1 SWAP2 SSTORE POP POP CALLER PUSH1 0x0 SWAP1 DUP2 MSTORE PUSH1 0x3 PUSH1 0x20 MSTORE PUSH1 0x40 DUP2 KECCAK256 PUSH1 0x2 ADD DUP1 SLOAD DUP4 SWAP3 SWAP1 PUSH2 0x11F5 SWAP1 DUP5 SWAP1 PUSH2 0x2BD3 JUMP JUMPDEST SWAP1 SWAP2 SSTORE POP POP PUSH1 0x40 DUP1 MLOAD DUP4 DUP2 MSTORE TIMESTAMP PUSH1 0x20 DUP3 ADD MSTORE CALLER SWAP2 PUSH32 0x7D7980008D7CBF10859DF70B685A3E1F69189B5620763976C2C2FC6AA5D61965 SWAP2 ADD PUSH2 0x970 JUMP JUMPDEST PUSH1 0x8 DUP2 DUP2 SLOAD DUP2 LT PUSH2 0x65E JUMPI PUSH1 0x0 DUP1 REVERT JUMPDEST PUSH1 0x1 PUSH1 0x1 PUSH1 0xA0 SHL SUB DUP3 AND PUSH1 0x0 SWAP1 DUP2 MSTORE PUSH1 0x5 PUSH1 0x20 MSTORE PUSH1 0x40 DUP2 KECCAK256 SLOAD PUSH1 0x60 SWAP2 DUP2 DUP5 GT PUSH2 0x126A JUMPI DUP4 PUSH2 0x126C JUMP JUMPDEST DUP2 JUMPDEST SWAP1 POP PUSH1 0x0 DUP2 PUSH8 0xFFFFFFFFFFFFFFFF DUP2 GT ISZERO PUSH2 0x1289 JUMPI PUSH2 0x1289 PUSH2 0x2C2F JUMP JUMPDEST PUSH1 0x40 MLOAD SWAP1 DUP1 DUP3 MSTORE DUP1 PUSH1 0x20 MUL PUSH1 0x20 ADD DUP3 ADD PUSH1 0x40 MSTORE DUP1 ISZERO PUSH2 0x12E9 JUMPI DUP2 PUSH1 0x20 ADD JUMPDEST PUSH1 0x40 DUP1 MLOAD PUSH1 0xC0 DUP2 ADD DUP3 MSTORE PUSH1 0x0 DUP1 DUP3 MSTORE PUSH1 0x20 DUP1 DUP4 ADD DUP3 SWAP1 MSTORE SWAP3 DUP3 ADD DUP2 SWAP1 MSTORE PUSH1 0x60 DUP3 ADD DUP2 SWAP1 MSTORE PUSH1 0x80 DUP3 ADD DUP2 SWAP1 MSTORE PUSH1 0xA0 DUP3 ADD MSTORE DUP3 MSTORE PUSH1 0x0 NOT SWAP1 SWAP3 ADD SWAP2 ADD DUP2 PUSH2 0x12A7 JUMPI SWAP1 POP JUMPDEST POP SWAP1 POP PUSH1 0x0 JUMPDEST DUP3 DUP2 LT ISZERO PUSH2 0x13CC JUMPI PUSH1 0x1 PUSH1 0x1 PUSH1 0xA0 SHL SUB DUP8 AND PUSH1 0x0 SWAP1 DUP2 MSTORE PUSH1 0x5 PUSH1 0x20 MSTORE PUSH1 0x40 SWAP1 KECCAK256 DUP2 PUSH2 0x131B PUSH1 0x1 DUP8 PUSH2 0x2BD3 JUMP JUMPDEST PUSH2 0x1325 SWAP2 SWAP1 PUSH2 0x2BD3 JUMP JUMPDEST DUP2 SLOAD DUP2 LT PUSH2 0x1335 JUMPI PUSH2 0x1335 PUSH2 0x2C45 JUMP JUMPDEST PUSH1 0x0 SWAP2 DUP3 MSTORE PUSH1 0x20 SWAP2 DUP3 SWAP1 KECCAK256 PUSH1 0x40 DUP1 MLOAD PUSH1 0xC0 DUP2 ADD DUP3 MSTORE PUSH1 0x4 SWAP1 SWAP4 MUL SWAP1 SWAP2 ADD DUP1 SLOAD DUP4 MSTORE PUSH1 0x1 DUP2 ADD SLOAD PUSH1 0xFF DUP1 DUP3 AND SWAP6 DUP6 ADD SWAP6 SWAP1 SWAP6 MSTORE PUSH2 0x100 SWAP1 DUP2 SWAP1 DIV DUP6 AND SWAP3 DUP5 ADD SWAP3 SWAP1 SWAP3 MSTORE PUSH1 0x2 DUP2 ADD SLOAD PUSH1 0x60 DUP5 ADD MSTORE PUSH1 0x3 ADD SLOAD DUP1 DUP5 AND ISZERO ISZERO PUSH1 0x80 DUP5 ADD MSTORE DIV SWAP1 SWAP2 AND ISZERO ISZERO PUSH1 0xA0 DUP3 ADD MSTORE DUP3 MLOAD DUP4 SWAP1 DUP4 SWAP1 DUP2 LT PUSH2 0x13AE JUMPI PUSH2 0x13AE PUSH2 0x2C45 JUMP JUMPDEST PUSH1 0x20 MUL PUSH1 0x20 ADD ADD DUP2 SWAP1 MSTORE POP DUP1 DUP1 PUSH2 0x13C4 SWAP1 PUSH2 0x2C16 JUMP JUMPDEST SWAP2 POP POP PUSH2 0x12EF JUMP JUMPDEST POP SWAP3 POP POP POP JUMPDEST SWAP3 SWAP2 POP POP JUMP JUMPDEST PUSH1 0x1 SLOAD PUSH1 0x1 PUSH1 0x1 PUSH1 0xA0 SHL SUB AND CALLER EQ PUSH2 0x141E JUMPI PUSH1 0x40 MLOAD PUSH3 0x461BCD PUSH1 0xE5 SHL DUP2 MSTORE PUSH1 0x20 PUSH1 0x4 DUP3 ADD MSTORE PUSH1 0x9 PUSH1 0x24 DUP3 ADD MSTORE PUSH9 0x2737BA1037BBB732B9 PUSH1 0xB9 SHL PUSH1 0x44 DUP3 ADD MSTORE PUSH1 0x64 ADD PUSH2 0x6B5 JUMP JUMPDEST PUSH1 0x1 SLOAD PUSH1 0x40 MLOAD PUSH4 0xA9059CBB PUSH1 0xE0 SHL DUP2 MSTORE PUSH1 0x1 PUSH1 0x1 PUSH1 0xA0 SHL SUB SWAP2 DUP3 AND PUSH1 0x4 DUP3 ADD MSTORE PUSH1 0x24 DUP2 ADD DUP4 SWAP1 MSTORE SWAP1 DUP4 AND SWAP1 PUSH4 0xA9059CBB SWAP1 PUSH1 0x44 ADD PUSH1 0x20 PUSH1 0x40 MLOAD DUP1 DUP4 SUB DUP2 PUSH1 0x0 DUP8 GAS CALL ISZERO DUP1 ISZERO PUSH2 0x1471 JUMPI RETURNDATASIZE PUSH1 0x0 DUP1 RETURNDATACOPY RETURNDATASIZE PUSH1 0x0 REVERT JUMPDEST POP POP POP POP PUSH1 0x40 MLOAD RETURNDATASIZE PUSH1 0x1F NOT PUSH1 0x1F DUP3 ADD AND DUP3 ADD DUP1 PUSH1 0x40 MSTORE POP DUP2 ADD SWAP1 PUSH2 0x1495 SWAP2 SWAP1 PUSH2 0x2BF9 JUMP JUMPDEST POP POP POP JUMP JUMPDEST PUSH1 0x60 PUSH2 0x14A5 DUP3 PUSH2 0x229E JUMP JUMPDEST PUSH1 0x40 MLOAD PUSH1 0x20 ADD PUSH2 0x14B5 SWAP2 SWAP1 PUSH2 0x2C5B JUMP JUMPDEST PUSH1 0x40 MLOAD PUSH1 0x20 DUP2 DUP4 SUB SUB DUP2 MSTORE SWAP1 PUSH1 0x40 MSTORE SWAP1 POP SWAP2 SWAP1 POP JUMP JUMPDEST PUSH1 0x4 PUSH1 0x20 MSTORE DUP2 PUSH1 0x0 MSTORE PUSH1 0x40 PUSH1 0x0 KECCAK256 DUP2 DUP2 SLOAD DUP2 LT PUSH2 0x14E7 JUMPI PUSH1 0x0 DUP1 REVERT JUMPDEST PUSH1 0x0 SWAP2 DUP3 MSTORE PUSH1 0x20 SWAP1 SWAP2 KECCAK256 ADD SLOAD PUSH1 0x1 PUSH1 0x1 PUSH1 0xA0 SHL SUB AND SWAP2 POP DUP3 SWAP1 POP JUMP JUMPDEST CALLER PUSH1 0x0 SWAP1 DUP2 MSTORE PUSH1 0x2 PUSH1 0x20 MSTORE PUSH1 0x40 SWAP1 KECCAK256 SLOAD PUSH1 0xFF AND PUSH2 0x1532 JUMPI PUSH1 0x40 MLOAD PUSH3 0x461BCD PUSH1 0xE5 SHL DUP2 MSTORE PUSH1 0x4 ADD PUSH2 0x6B5 SWAP1 PUSH2 0x2B54 JUMP JUMPDEST PUSH8 0x8AC7230489E80000 DUP2 LT ISZERO PUSH2 0x157C JUMPI PUSH1 0x40 MLOAD PUSH3 0x461BCD PUSH1 0xE5 SHL DUP2 MSTORE PUSH1 0x20 PUSH1 0x4 DUP3 ADD MSTORE PUSH1 0xF PUSH1 0x24 DUP3 ADD MSTORE PUSH15 0x135A5B9A5B5D5B480C4C081554D115 PUSH1 0x8A SHL PUSH1 0x44 DUP3 ADD MSTORE PUSH1 0x64 ADD PUSH2 0x6B5 JUMP JUMPDEST PUSH1 0x0 SLOAD PUSH1 0x40 MLOAD PUSH4 0x23B872DD PUSH1 0xE0 SHL DUP2 MSTORE CALLER PUSH1 0x4 DUP3 ADD MSTORE ADDRESS PUSH1 0x24 DUP3 ADD MSTORE PUSH1 0x44 DUP2 ADD DUP4 SWAP1 MSTORE PUSH1 0x1 PUSH1 0x1 PUSH1 0xA0 SHL SUB SWAP1 SWAP2 AND SWAP1 PUSH4 0x23B872DD SWAP1 PUSH1 0x64 ADD PUSH1 0x20 PUSH1 0x40 MLOAD DUP1 DUP4 SUB DUP2 PUSH1 0x0 DUP8 GAS CALL ISZERO DUP1 ISZERO PUSH2 0x15D3 JUMPI RETURNDATASIZE PUSH1 0x0 DUP1 RETURNDATACOPY RETURNDATASIZE PUSH1 0x0 REVERT JUMPDEST POP POP POP POP PUSH1 0x40 MLOAD RETURNDATASIZE PUSH1 0x1F NOT PUSH1 0x1F DUP3 ADD AND DUP3 ADD DUP1 PUSH1 0x40 MSTORE POP DUP2 ADD SWAP1 PUSH2 0x15F7 SWAP2 SWAP1 PUSH2 0x2BF9 JUMP JUMPDEST PUSH2 0x1635 JUMPI PUSH1 0x40 MLOAD PUSH3 0x461BCD PUSH1 0xE5 SHL DUP2 MSTORE PUSH1 0x20 PUSH1 0x4 DUP3 ADD MSTORE PUSH1 0xF PUSH1 0x24 DUP3 ADD MSTORE PUSH15 0x151C985B9CD9995C8819985A5B1959 PUSH1 0x8A SHL PUSH1 0x44 DUP3 ADD MSTORE PUSH1 0x64 ADD PUSH2 0x6B5 JUMP JUMPDEST CALLER PUSH1 0x0 SWAP1 DUP2 MSTORE PUSH1 0x3 PUSH1 0x20 MSTORE PUSH1 0x40 DUP2 KECCAK256 DUP1 SLOAD DUP4 SWAP3 SWAP1 PUSH2 0x1654 SWAP1 DUP5 SWAP1 PUSH2 0x2BE6 JUMP JUMPDEST SWAP1 SWAP2 SSTORE POP POP CALLER PUSH1 0x0 SWAP1 DUP2 MSTORE PUSH1 0x2 PUSH1 0x20 DUP2 SWAP1 MSTORE PUSH1 0x40 DUP3 KECCAK256 ADD DUP1 SLOAD DUP4 SWAP3 SWAP1 PUSH2 0x167B SWAP1 DUP5 SWAP1 PUSH2 0x2BE6 JUMP JUMPDEST SWAP3 POP POP DUP2 SWAP1 SSTORE POP DUP1 PUSH1 0xE PUSH1 0x0 DUP3 DUP3 SLOAD PUSH2 0x1694 SWAP2 SWAP1 PUSH2 0x2BE6 JUMP JUMPDEST SWAP1 SWAP2 SSTORE POP POP CALLER PUSH1 0x0 SWAP1 DUP2 MSTORE PUSH1 0x2 PUSH1 0x20 MSTORE PUSH1 0x40 SWAP1 KECCAK256 PUSH1 0x6 ADD SLOAD PUSH1 0xFF AND ISZERO DUP1 ISZERO PUSH2 0x16D7 JUMPI POP CALLER PUSH1 0x0 SWAP1 DUP2 MSTORE PUSH1 0x2 PUSH1 0x20 DUP2 SWAP1 MSTORE PUSH1 0x40 SWAP1 SWAP2 KECCAK256 ADD SLOAD PUSH8 0x8AC7230489E80000 GT ISZERO JUMPDEST ISZERO PUSH2 0x16FA JUMPI CALLER PUSH1 0x0 SWAP1 DUP2 MSTORE PUSH1 0x2 PUSH1 0x20 MSTORE PUSH1 0x40 SWAP1 KECCAK256 PUSH1 0x6 ADD DUP1 SLOAD PUSH1 0xFF NOT AND PUSH1 0x1 OR SWAP1 SSTORE JUMPDEST CALLER PUSH1 0x0 SWAP1 DUP2 MSTORE PUSH1 0x2 PUSH1 0x20 MSTORE PUSH1 0x40 SWAP1 KECCAK256 PUSH1 0x6 ADD SLOAD PUSH2 0x100 SWAP1 DIV PUSH1 0xFF AND ISZERO DUP1 ISZERO PUSH2 0x173E JUMPI POP CALLER PUSH1 0x0 SWAP1 DUP2 MSTORE PUSH1 0x2 PUSH1 0x20 DUP2 SWAP1 MSTORE PUSH1 0x40 SWAP1 SWAP2 KECCAK256 ADD SLOAD PUSH9 0x56BC75E2D63100000 GT ISZERO JUMPDEST ISZERO PUSH2 0x1763 JUMPI CALLER PUSH1 0x0 SWAP1 DUP2 MSTORE PUSH1 0x2 PUSH1 0x20 MSTORE PUSH1 0x40 SWAP1 KECCAK256 PUSH1 0x6 ADD DUP1 SLOAD PUSH2 0xFF00 NOT AND PUSH2 0x100 OR SWAP1 SSTORE JUMPDEST PUSH2 0x176D CALLER DUP3 PUSH2 0x24B5 JUMP JUMPDEST PUSH1 0x40 DUP1 MLOAD DUP3 DUP2 MSTORE TIMESTAMP PUSH1 0x20 DUP3 ADD MSTORE CALLER SWAP2 PUSH32 0x90890809C654F11D6E72A28FA60149770A0D11EC6C92319D6CEB2BB0A4EA1A15 SWAP2 ADD JUMPDEST PUSH1 0x40 MLOAD DUP1 SWAP2 SUB SWAP1 LOG2 POP JUMP JUMPDEST PUSH1 0x1 SLOAD PUSH1 0x1 PUSH1 0x1 PUSH1 0xA0 SHL SUB AND CALLER EQ PUSH2 0x17F1 JUMPI PUSH1 0x40 MLOAD PUSH3 0x461BCD PUSH1 0xE5 SHL DUP2 MSTORE PUSH1 0x20 PUSH1 0x4 DUP3 ADD MSTORE PUSH1 0x9 PUSH1 0x24 DUP3 ADD MSTORE PUSH9 0x2737BA1037BBB732B9 PUSH1 0xB9 SHL PUSH1 0x44 DUP3 ADD MSTORE PUSH1 0x64 ADD PUSH2 0x6B5 JUMP JUMPDEST PUSH1 0x64 DUP2 GT ISZERO PUSH2 0x182B JUMPI PUSH1 0x40 MLOAD PUSH3 0x461BCD PUSH1 0xE5 SHL DUP2 MSTORE PUSH1 0x20 PUSH1 0x4 DUP3 ADD MSTORE PUSH1 0x6 PUSH1 0x24 DUP3 ADD MSTORE PUSH6 0x4D6178203125 PUSH1 0xD0 SHL PUSH1 0x44 DUP3 ADD MSTORE PUSH1 0x64 ADD PUSH2 0x6B5 JUMP JUMPDEST PUSH1 0xB SSTORE JUMP JUMPDEST PUSH1 0x6 PUSH1 0x20 MSTORE DUP2 PUSH1 0x0 MSTORE PUSH1 0x40 PUSH1 0x0 KECCAK256 DUP2 DUP2 SLOAD DUP2 LT PUSH2 0x184C JUMPI PUSH1 0x0 DUP1 REVERT JUMPDEST SWAP1 PUSH1 0x0 MSTORE PUSH1 0x20 PUSH1 0x0 KECCAK256 ADD PUSH1 0x0 SWAP2 POP SWAP2 POP POP SLOAD DUP2 JUMP JUMPDEST CALLER PUSH1 0x0 SWAP1 DUP2 MSTORE PUSH1 0x2 PUSH1 0x20 MSTORE PUSH1 0x40 SWAP1 KECCAK256 SLOAD PUSH1 0xFF AND PUSH2 0x1890 JUMPI PUSH1 0x40 MLOAD PUSH3 0x461BCD PUSH1 0xE5 SHL DUP2 MSTORE PUSH1 0x4 ADD PUSH2 0x6B5 SWAP1 PUSH2 0x2B54 JUMP JUMPDEST CALLER PUSH1 0x0 SWAP1 DUP2 MSTORE PUSH1 0x2 PUSH1 0x20 MSTORE PUSH1 0x40 SWAP1 KECCAK256 PUSH1 0x6 ADD SLOAD PUSH2 0x100 SWAP1 DIV PUSH1 0xFF AND PUSH2 0x18F0 JUMPI PUSH1 0x40 MLOAD PUSH3 0x461BCD PUSH1 0xE5 SHL DUP2 MSTORE PUSH1 0x20 PUSH1 0x4 DUP3 ADD MSTORE PUSH1 0x16 PUSH1 0x24 DUP3 ADD MSTORE PUSH22 0x13995959080C4C0C0AC81554D1150819195C1BDCDA5D PUSH1 0x52 SHL PUSH1 0x44 DUP3 ADD MSTORE PUSH1 0x64 ADD PUSH2 0x6B5 JUMP JUMPDEST CALLER PUSH1 0x0 SWAP1 DUP2 MSTORE PUSH1 0x3 PUSH1 0x20 MSTORE PUSH1 0x40 SWAP1 KECCAK256 PUSH1 0x1 ADD SLOAD PUSH2 0x1945 JUMPI PUSH1 0x40 MLOAD PUSH3 0x461BCD PUSH1 0xE5 SHL DUP2 MSTORE PUSH1 0x20 PUSH1 0x4 DUP3 ADD MSTORE PUSH1 0x13 PUSH1 0x24 DUP3 ADD MSTORE PUSH19 0x4E6F2070726163746963652062616C616E6365 PUSH1 0x68 SHL PUSH1 0x44 DUP3 ADD MSTORE PUSH1 0x64 ADD PUSH2 0x6B5 JUMP JUMPDEST CALLER PUSH1 0x0 SWAP1 DUP2 MSTORE PUSH1 0x3 PUSH1 0x20 MSTORE PUSH1 0x40 DUP2 KECCAK256 PUSH1 0x1 DUP2 ADD DUP1 SLOAD SWAP1 DUP4 SWAP1 SSTORE DUP2 SLOAD SWAP1 SWAP3 DUP4 SWAP3 SWAP2 PUSH2 0x1970 SWAP1 DUP5 SWAP1 PUSH2 0x2BE6 JUMP JUMPDEST SWAP1 SWAP2 SSTORE POP POP PUSH1 0x40 MLOAD DUP2 DUP2 MSTORE CALLER SWAP1 PUSH32 0x5D2A47D91F9A9718B496E04429C7E05815A9F5CCE410C5C681DF340413887957 SWAP1 PUSH1 0x20 ADD PUSH2 0x17A0 JUMP JUMPDEST PUSH1 0x1 PUSH1 0x1 PUSH1 0xA0 SHL SUB DUP2 AND PUSH1 0x0 SWAP1 DUP2 MSTORE PUSH1 0x4 PUSH1 0x20 SWAP1 DUP2 MSTORE PUSH1 0x40 SWAP2 DUP3 SWAP1 KECCAK256 DUP1 SLOAD DUP4 MLOAD DUP2 DUP5 MUL DUP2 ADD DUP5 ADD SWAP1 SWAP5 MSTORE DUP1 DUP5 MSTORE PUSH1 0x60 SWAP4 SWAP3 DUP4 ADD DUP3 DUP3 DUP1 ISZERO PUSH2 0x1A11 JUMPI PUSH1 0x20 MUL DUP3 ADD SWAP2 SWAP1 PUSH1 0x0 MSTORE PUSH1 0x20 PUSH1 0x0 KECCAK256 SWAP1 JUMPDEST DUP2 SLOAD PUSH1 0x1 PUSH1 0x1 PUSH1 0xA0 SHL SUB AND DUP2 MSTORE PUSH1 0x1 SWAP1 SWAP2 ADD SWAP1 PUSH1 0x20 ADD DUP1 DUP4 GT PUSH2 0x19F3 JUMPI JUMPDEST POP POP POP POP POP SWAP1 POP SWAP2 SWAP1 POP JUMP JUMPDEST PUSH1 0x9 DUP2 DUP2 SLOAD DUP2 LT PUSH2 0x65E JUMPI PUSH1 0x0 DUP1 REVERT JUMPDEST CALLER PUSH1 0x0 SWAP1 DUP2 MSTORE PUSH1 0x2 PUSH1 0x20 MSTORE PUSH1 0x40 SWAP1 KECCAK256 SLOAD PUSH1 0xFF AND PUSH2 0x1A5C JUMPI PUSH1 0x40 MLOAD PUSH3 0x461BCD PUSH1 0xE5 SHL DUP2 MSTORE PUSH1 0x4 ADD PUSH2 0x6B5 SWAP1 PUSH2 0x2B54 JUMP JUMPDEST PUSH1 0x1 DUP3 PUSH1 0xFF AND LT ISZERO DUP1 ISZERO PUSH2 0x1A74 JUMPI POP PUSH1 0x8 PUSH1 0xFF DUP4 AND GT ISZERO JUMPDEST PUSH2 0x1AB1 JUMPI PUSH1 0x40 MLOAD PUSH3 0x461BCD PUSH1 0xE5 SHL DUP2 MSTORE PUSH1 0x20 PUSH1 0x4 DUP3 ADD MSTORE PUSH1 0xE PUSH1 0x24 DUP3 ADD MSTORE PUSH14 0x24B73B30B634B210373AB6B132B9 PUSH1 0x91 SHL PUSH1 0x44 DUP3 ADD MSTORE PUSH1 0x64 ADD PUSH2 0x6B5 JUMP JUMPDEST PUSH8 0xDE0B6B3A7640000 DUP4 LT ISZERO PUSH2 0x1AF9 JUMPI PUSH1 0x40 MLOAD PUSH3 0x461BCD PUSH1 0xE5 SHL DUP2 MSTORE PUSH1 0x20 PUSH1 0x4 DUP3 ADD MSTORE PUSH1 0xD PUSH1 0x24 DUP3 ADD MSTORE PUSH13 0x10995D081D1BDBC81CDB585B1B PUSH1 0x9A SHL PUSH1 0x44 DUP3 ADD MSTORE PUSH1 0x64 ADD PUSH2 0x6B5 JUMP JUMPDEST DUP1 ISZERO PUSH2 0x1B8E JUMPI CALLER PUSH1 0x0 SWAP1 DUP2 MSTORE PUSH1 0x3 PUSH1 0x20 MSTORE PUSH1 0x40 SWAP1 KECCAK256 PUSH1 0x1 ADD SLOAD DUP4 GT ISZERO PUSH2 0x1B61 JUMPI PUSH1 0x40 MLOAD PUSH3 0x461BCD PUSH1 0xE5 SHL DUP2 MSTORE PUSH1 0x20 PUSH1 0x4 DUP3 ADD MSTORE PUSH1 0x1D PUSH1 0x24 DUP3 ADD MSTORE PUSH32 0x496E73756666696369656E742070726163746963652062616C616E6365000000 PUSH1 0x44 DUP3 ADD MSTORE PUSH1 0x64 ADD PUSH2 0x6B5 JUMP JUMPDEST CALLER PUSH1 0x0 SWAP1 DUP2 MSTORE PUSH1 0x3 PUSH1 0x20 MSTORE PUSH1 0x40 DUP2 KECCAK256 PUSH1 0x1 ADD DUP1 SLOAD DUP6 SWAP3 SWAP1 PUSH2 0x1B83 SWAP1 DUP5 SWAP1 PUSH2 0x2BD3 JUMP JUMPDEST SWAP1 SWAP2 SSTORE POP PUSH2 0x1C6C SWAP1 POP JUMP JUMPDEST CALLER PUSH1 0x0 SWAP1 DUP2 MSTORE PUSH1 0x3 PUSH1 0x20 MSTORE PUSH1 0x40 SWAP1 KECCAK256 SLOAD DUP4 GT ISZERO PUSH2 0x1BED JUMPI PUSH1 0x40 MLOAD PUSH3 0x461BCD PUSH1 0xE5 SHL DUP2 MSTORE PUSH1 0x20 PUSH1 0x4 DUP3 ADD MSTORE PUSH1 0x19 PUSH1 0x24 DUP3 ADD MSTORE PUSH32 0x496E73756666696369656E7420636173682062616C616E636500000000000000 PUSH1 0x44 DUP3 ADD MSTORE PUSH1 0x64 ADD PUSH2 0x6B5 JUMP JUMPDEST CALLER PUSH1 0x0 SWAP1 DUP2 MSTORE PUSH1 0x2 PUSH1 0x20 MSTORE PUSH1 0x40 SWAP1 KECCAK256 PUSH1 0x6 ADD SLOAD PUSH1 0xFF AND PUSH2 0x1C47 JUMPI PUSH1 0x40 MLOAD PUSH3 0x461BCD PUSH1 0xE5 SHL DUP2 MSTORE PUSH1 0x20 PUSH1 0x4 DUP3 ADD MSTORE PUSH1 0x15 PUSH1 0x24 DUP3 ADD MSTORE PUSH21 0x1058D8DBDD5B9D081B9BDD081858DD1A5D985D1959 PUSH1 0x5A SHL PUSH1 0x44 DUP3 ADD MSTORE PUSH1 0x64 ADD PUSH2 0x6B5 JUMP JUMPDEST CALLER PUSH1 0x0 SWAP1 DUP2 MSTORE PUSH1 0x3 PUSH1 0x20 MSTORE PUSH1 0x40 DUP2 KECCAK256 DUP1 SLOAD DUP6 SWAP3 SWAP1 PUSH2 0x1C66 SWAP1 DUP5 SWAP1 PUSH2 0x2BD3 JUMP JUMPDEST SWAP1 SWAP2 SSTORE POP POP JUMPDEST PUSH1 0x0 PUSH2 0x1C76 PUSH2 0x266F JUMP JUMPDEST SWAP1 POP PUSH1 0xFF DUP4 DUP2 AND SWAP1 DUP3 AND EQ PUSH1 0x0 DUP2 ISZERO PUSH2 0x1D47 JUMPI PUSH2 0x1C94 PUSH1 0x8 DUP8 PUSH2 0x2B92 JUMP JUMPDEST SWAP1 POP DUP4 ISZERO PUSH2 0x1CC9 JUMPI CALLER PUSH1 0x0 SWAP1 DUP2 MSTORE PUSH1 0x3 PUSH1 0x20 MSTORE PUSH1 0x40 DUP2 KECCAK256 PUSH1 0x1 ADD DUP1 SLOAD DUP4 SWAP3 SWAP1 PUSH2 0x1CBE SWAP1 DUP5 SWAP1 PUSH2 0x2BE6 JUMP JUMPDEST SWAP1 SWAP2 SSTORE POP PUSH2 0x1D74 SWAP1 POP JUMP JUMPDEST PUSH1 0x0 PUSH2 0x1CD6 DUP8 PUSH1 0x2 PUSH2 0x2B92 JUMP JUMPDEST SWAP1 POP PUSH1 0x0 PUSH2 0x1CE5 DUP9 PUSH1 0x6 PUSH2 0x2B92 JUMP JUMPDEST CALLER PUSH1 0x0 SWAP1 DUP2 MSTORE PUSH1 0x3 PUSH1 0x20 MSTORE PUSH1 0x40 DUP2 KECCAK256 PUSH1 0x2 ADD DUP1 SLOAD SWAP3 SWAP4 POP DUP5 SWAP3 SWAP1 SWAP2 SWAP1 PUSH2 0x1D0C SWAP1 DUP5 SWAP1 PUSH2 0x2BE6 JUMP JUMPDEST SWAP1 SWAP2 SSTORE POP POP CALLER PUSH1 0x0 SWAP1 DUP2 MSTORE PUSH1 0x3 PUSH1 0x20 MSTORE PUSH1 0x40 DUP2 KECCAK256 DUP1 SLOAD DUP4 SWAP3 SWAP1 PUSH2 0x1D30 SWAP1 DUP5 SWAP1 PUSH2 0x2BE6 JUMP JUMPDEST SWAP1 SWAP2 SSTORE POP PUSH2 0x1D40 SWAP1 POP CALLER DUP5 PUSH2 0x26FF JUMP JUMPDEST POP POP PUSH2 0x1D74 JUMP JUMPDEST DUP4 PUSH2 0x1D74 JUMPI CALLER PUSH1 0x0 SWAP1 DUP2 MSTORE PUSH1 0x2 PUSH1 0x20 MSTORE PUSH1 0x40 DUP2 KECCAK256 PUSH1 0x7 ADD DUP1 SLOAD DUP9 SWAP3 SWAP1 PUSH2 0x1D6E SWAP1 DUP5 SWAP1 PUSH2 0x2BE6 JUMP JUMPDEST SWAP1 SWAP2 SSTORE POP POP JUMPDEST CALLER PUSH1 0x0 SWAP1 DUP2 MSTORE PUSH1 0x5 PUSH1 0x20 SWAP1 DUP2 MSTORE PUSH1 0x40 DUP1 DUP4 KECCAK256 DUP2 MLOAD PUSH1 0xC0 DUP2 ADD DUP4 MSTORE TIMESTAMP DUP2 MSTORE PUSH1 0xFF DUP1 DUP12 AND DUP3 DUP7 ADD SWAP1 DUP2 MSTORE DUP10 DUP3 AND SWAP5 DUP4 ADD SWAP5 DUP6 MSTORE PUSH1 0x60 DUP4 ADD DUP14 DUP2 MSTORE DUP10 ISZERO ISZERO PUSH1 0x80 DUP6 ADD SWAP1 DUP2 MSTORE DUP13 ISZERO ISZERO PUSH1 0xA0 DUP7 ADD SWAP1 DUP2 MSTORE DUP7 SLOAD PUSH1 0x1 DUP2 DUP2 ADD DUP10 SSTORE SWAP8 DUP12 MSTORE SWAP9 DUP11 KECCAK256 SWAP6 MLOAD PUSH1 0x4 SWAP1 SWAP10 MUL SWAP1 SWAP6 ADD SWAP8 DUP9 SSTORE SWAP2 MLOAD SWAP5 DUP8 ADD DUP1 SLOAD SWAP7 MLOAD DUP5 AND PUSH2 0x100 SWAP1 DUP2 MUL PUSH2 0xFFFF NOT SWAP9 DUP10 AND SWAP8 SWAP1 SWAP6 AND SWAP7 SWAP1 SWAP7 OR SWAP4 SWAP1 SWAP4 OR SWAP1 SWAP3 SSTORE SWAP1 MLOAD PUSH1 0x2 DUP7 ADD SSTORE MLOAD PUSH1 0x3 SWAP1 SWAP5 ADD DUP1 SLOAD SWAP2 MLOAD ISZERO ISZERO SWAP1 SWAP3 MUL SWAP4 ISZERO ISZERO PUSH2 0xFF00 NOT AND SWAP3 AND SWAP2 SWAP1 SWAP2 OR SWAP2 SWAP1 SWAP2 OR SWAP1 SSTORE PUSH1 0xD DUP1 SLOAD SWAP2 PUSH2 0x1E3B DUP4 PUSH2 0x2C16 JUMP JUMPDEST SWAP2 SWAP1 POP SSTORE POP DUP4 PUSH2 0x1E5D JUMPI DUP6 PUSH1 0xE PUSH1 0x0 DUP3 DUP3 SLOAD PUSH2 0x1E57 SWAP2 SWAP1 PUSH2 0x2BE6 JUMP JUMPDEST SWAP1 SWAP2 SSTORE POP POP JUMPDEST PUSH1 0x40 DUP1 MLOAD DUP6 ISZERO ISZERO DUP2 MSTORE PUSH1 0x20 DUP2 ADD DUP9 SWAP1 MSTORE PUSH1 0xFF DUP8 DUP2 AND DUP3 DUP5 ADD MSTORE DUP6 AND PUSH1 0x60 DUP3 ADD MSTORE DUP4 ISZERO ISZERO PUSH1 0x80 DUP3 ADD MSTORE PUSH1 0xA0 DUP2 ADD DUP4 SWAP1 MSTORE SWAP1 MLOAD CALLER SWAP2 PUSH32 0xA51CB652FD861F42F91D0FA2395B63594214EA9BDD9891505EEB416FA7DBDB2A SWAP2 SWAP1 DUP2 SWAP1 SUB PUSH1 0xC0 ADD SWAP1 LOG2 POP POP POP POP POP POP JUMP JUMPDEST DUP1 PUSH1 0x0 JUMPDEST PUSH1 0x64 DUP2 PUSH1 0xFF AND LT DUP1 ISZERO PUSH2 0x1EE2 JUMPI POP PUSH1 0x1 PUSH1 0x1 PUSH1 0xA0 SHL SUB DUP3 AND ISZERO ISZERO JUMPDEST ISZERO PUSH2 0x1495 JUMPI PUSH1 0x1 PUSH1 0x1 PUSH1 0xA0 SHL SUB DUP3 AND PUSH1 0x0 SWAP1 DUP2 MSTORE PUSH1 0x2 PUSH1 0x20 MSTORE PUSH1 0x40 DUP2 KECCAK256 PUSH1 0x5 ADD DUP1 SLOAD SWAP2 PUSH2 0x1F0E DUP4 PUSH2 0x2C16 JUMP JUMPDEST SWAP1 SWAP2 SSTORE POP POP PUSH1 0x1 PUSH1 0x1 PUSH1 0xA0 SHL SUB SWAP2 DUP3 AND PUSH1 0x0 SWAP1 DUP2 MSTORE PUSH1 0x2 PUSH1 0x20 MSTORE PUSH1 0x40 SWAP1 KECCAK256 SLOAD PUSH2 0x100 SWAP1 DIV SWAP1 SWAP2 AND SWAP1 DUP1 PUSH2 0x1F40 DUP2 PUSH2 0x2C98 JUMP JUMPDEST SWAP2 POP POP PUSH2 0x1EC7 JUMP JUMPDEST PUSH1 0x1 PUSH1 0x1 PUSH1 0xA0 SHL SUB DUP1 DUP3 AND PUSH1 0x0 SWAP1 DUP2 MSTORE PUSH1 0x2 PUSH1 0x20 MSTORE PUSH1 0x40 SWAP1 KECCAK256 SLOAD PUSH2 0x100 SWAP1 DIV AND PUSH1 0x1 JUMPDEST PUSH1 0x1 PUSH1 0x1 PUSH1 0xA0 SHL SUB DUP3 AND ISZERO DUP1 ISZERO SWAP1 PUSH2 0x1F87 JUMPI POP PUSH1 0x64 DUP2 PUSH1 0xFF AND GT ISZERO JUMPDEST ISZERO PUSH2 0x1495 JUMPI PUSH1 0x0 DUP2 PUSH1 0xFF AND PUSH1 0x1 SUB PUSH2 0x1FA8 JUMPI POP PUSH8 0x8AC7230489E80000 PUSH2 0x201B JUMP JUMPDEST PUSH1 0x5 DUP3 PUSH1 0xFF AND GT PUSH2 0x1FC2 JUMPI POP PUSH8 0x1BC16D674EC80000 PUSH2 0x201B JUMP JUMPDEST PUSH1 0xA DUP3 PUSH1 0xFF AND GT PUSH2 0x1FDC JUMPI POP PUSH8 0xDE0B6B3A7640000 PUSH2 0x201B JUMP JUMPDEST PUSH1 0xF DUP3 PUSH1 0xFF AND GT PUSH2 0x1FF6 JUMPI POP PUSH8 0x6F05B59D3B20000 PUSH2 0x201B JUMP JUMPDEST PUSH1 0x32 DUP3 PUSH1 0xFF AND GT PUSH2 0x2010 JUMPI POP PUSH8 0x3782DACE9D90000 PUSH2 0x201B JUMP JUMPDEST POP PUSH8 0x16345785D8A0000 JUMPDEST PUSH1 0x1 PUSH1 0x1 PUSH1 0xA0 SHL SUB DUP4 AND PUSH1 0x0 SWAP1 DUP2 MSTORE PUSH1 0x3 PUSH1 0x20 MSTORE PUSH1 0x40 DUP2 KECCAK256 PUSH1 0x1 ADD DUP1 SLOAD DUP4 SWAP3 SWAP1 PUSH2 0x2046 SWAP1 DUP5 SWAP1 PUSH2 0x2BE6 JUMP JUMPDEST SWAP3 POP POP DUP2 SWAP1 SSTORE POP DUP3 PUSH1 0x1 PUSH1 0x1 PUSH1 0xA0 SHL SUB AND DUP5 PUSH1 0x1 PUSH1 0x1 PUSH1 0xA0 SHL SUB AND PUSH1 0x0 DUP1 MLOAD PUSH1 0x20 PUSH2 0x2CE5 DUP4 CODECOPY DUP2 MLOAD SWAP2 MSTORE DUP4 DUP6 PUSH1 0x40 MLOAD PUSH2 0x20B5 SWAP3 SWAP2 SWAP1 SWAP2 DUP3 MSTORE PUSH1 0xFF AND PUSH1 0x20 DUP3 ADD MSTORE PUSH1 0x60 PUSH1 0x40 DUP3 ADD DUP2 SWAP1 MSTORE PUSH1 0x11 SWAP1 DUP3 ADD MSTORE PUSH17 0x14149050D51250D157D491519154949053 PUSH1 0x7A SHL PUSH1 0x80 DUP3 ADD MSTORE PUSH1 0xA0 ADD SWAP1 JUMP JUMPDEST PUSH1 0x40 MLOAD DUP1 SWAP2 SUB SWAP1 LOG3 PUSH1 0x1 PUSH1 0x1 PUSH1 0xA0 SHL SUB SWAP3 DUP4 AND PUSH1 0x0 SWAP1 DUP2 MSTORE PUSH1 0x2 PUSH1 0x20 MSTORE PUSH1 0x40 SWAP1 KECCAK256 SLOAD PUSH2 0x100 SWAP1 DIV SWAP1 SWAP3 AND SWAP2 DUP2 PUSH2 0x20EA DUP2 PUSH2 0x2C98 JUMP JUMPDEST SWAP3 POP POP POP PUSH2 0x1F6B JUMP JUMPDEST PUSH1 0x1 PUSH1 0x1 PUSH1 0xA0 SHL SUB DUP1 DUP4 AND PUSH1 0x0 SWAP1 DUP2 MSTORE PUSH1 0x2 PUSH1 0x20 MSTORE PUSH1 0x40 DUP2 KECCAK256 SLOAD PUSH2 0x100 SWAP1 DIV SWAP1 SWAP2 AND SWAP1 PUSH1 0x64 PUSH2 0x2123 DUP5 PUSH1 0x32 PUSH2 0x2B92 JUMP JUMPDEST PUSH2 0x212D SWAP2 SWAP1 PUSH2 0x2BBF JUMP JUMPDEST SWAP1 POP PUSH1 0x0 JUMPDEST PUSH1 0xF DUP2 PUSH1 0xFF AND LT DUP1 ISZERO PUSH2 0x214D JUMPI POP PUSH1 0x1 PUSH1 0x1 PUSH1 0xA0 SHL SUB DUP4 AND ISZERO ISZERO JUMPDEST ISZERO PUSH2 0x2297 JUMPI PUSH1 0x1 PUSH1 0x1 PUSH1 0xA0 SHL SUB DUP4 AND PUSH1 0x0 SWAP1 DUP2 MSTORE PUSH1 0x2 PUSH1 0x20 MSTORE PUSH1 0x40 SWAP1 KECCAK256 PUSH1 0x6 ADD SLOAD PUSH1 0xFF AND ISZERO PUSH2 0x2262 JUMPI PUSH1 0x0 PUSH2 0x2710 PUSH1 0xA DUP4 PUSH1 0xFF AND DUP2 SLOAD DUP2 LT PUSH2 0x2191 JUMPI PUSH2 0x2191 PUSH2 0x2C45 JUMP JUMPDEST PUSH1 0x0 SWAP2 DUP3 MSTORE PUSH1 0x20 SWAP1 SWAP2 KECCAK256 PUSH1 0x10 DUP3 DIV ADD SLOAD PUSH2 0x21BB SWAP2 PUSH1 0xF AND PUSH1 0x2 MUL PUSH2 0x100 EXP SWAP1 DIV PUSH2 0xFFFF AND DUP6 PUSH2 0x2B92 JUMP JUMPDEST PUSH2 0x21C5 SWAP2 SWAP1 PUSH2 0x2BBF JUMP JUMPDEST PUSH1 0x1 PUSH1 0x1 PUSH1 0xA0 SHL SUB DUP6 AND PUSH1 0x0 SWAP1 DUP2 MSTORE PUSH1 0x3 PUSH1 0x20 MSTORE PUSH1 0x40 DUP2 KECCAK256 PUSH1 0x2 ADD DUP1 SLOAD SWAP3 SWAP4 POP DUP4 SWAP3 SWAP1 SWAP2 SWAP1 PUSH2 0x21F5 SWAP1 DUP5 SWAP1 PUSH2 0x2BE6 JUMP JUMPDEST SWAP1 SWAP2 SSTORE POP POP PUSH1 0x1 PUSH1 0x1 PUSH1 0xA0 SHL SUB DUP1 DUP6 AND SWAP1 DUP8 AND PUSH1 0x0 DUP1 MLOAD PUSH1 0x20 PUSH2 0x2CE5 DUP4 CODECOPY DUP2 MLOAD SWAP2 MSTORE DUP4 PUSH2 0x2223 DUP7 PUSH1 0x1 PUSH2 0x2CB7 JUMP JUMPDEST PUSH1 0x40 DUP1 MLOAD SWAP3 DUP4 MSTORE PUSH1 0xFF SWAP1 SWAP2 AND PUSH1 0x20 DUP4 ADD MSTORE PUSH1 0x60 SWAP1 DUP3 ADD DUP2 SWAP1 MSTORE PUSH1 0xA SWAP1 DUP3 ADD MSTORE PUSH10 0x524F495F4F4E5F524F49 PUSH1 0xB0 SHL PUSH1 0x80 DUP3 ADD MSTORE PUSH1 0xA0 ADD PUSH1 0x40 MLOAD DUP1 SWAP2 SUB SWAP1 LOG3 POP JUMPDEST PUSH1 0x1 PUSH1 0x1 PUSH1 0xA0 SHL SUB SWAP3 DUP4 AND PUSH1 0x0 SWAP1 DUP2 MSTORE PUSH1 0x2 PUSH1 0x20 MSTORE PUSH1 0x40 SWAP1 KECCAK256 SLOAD PUSH2 0x100 SWAP1 DIV SWAP1 SWAP3 AND SWAP2 DUP1 PUSH2 0x228F DUP2 PUSH2 0x2C98 JUMP JUMPDEST SWAP2 POP POP PUSH2 0x2132 JUMP JUMPDEST POP POP POP POP POP JUMP JUMPDEST PUSH1 0x60 PUSH1 0x0 PUSH1 0x40 MLOAD DUP1 PUSH1 0x40 ADD PUSH1 0x40 MSTORE DUP1 PUSH1 0x10 DUP2 MSTORE PUSH1 0x20 ADD PUSH16 0x181899199A1A9B1B9C1CB0B131B232B3 PUSH1 0x81 SHL DUP2 MSTORE POP SWAP1 POP PUSH1 0x0 DUP4 PUSH1 0x40 MLOAD PUSH1 0x20 ADD PUSH2 0x22F8 SWAP2 SWAP1 PUSH1 0x60 SWAP2 SWAP1 SWAP2 SHL PUSH12 0xFFFFFFFFFFFFFFFFFFFFFFFF NOT AND DUP2 MSTORE PUSH1 0x14 ADD SWAP1 JUMP JUMPDEST PUSH1 0x40 DUP1 MLOAD DUP1 DUP4 SUB PUSH1 0x1F NOT ADD DUP2 MSTORE PUSH1 0x2A DUP1 DUP5 MSTORE PUSH1 0x60 DUP5 ADD SWAP1 SWAP3 MSTORE SWAP3 POP PUSH1 0x0 SWAP2 SWAP1 PUSH1 0x20 DUP3 ADD DUP2 DUP1 CALLDATASIZE DUP4 CALLDATACOPY ADD SWAP1 POP POP SWAP1 POP PUSH1 0x3 PUSH1 0xFC SHL DUP2 PUSH1 0x0 DUP2 MLOAD DUP2 LT PUSH2 0x233E JUMPI PUSH2 0x233E PUSH2 0x2C45 JUMP JUMPDEST PUSH1 0x20 ADD ADD SWAP1 PUSH1 0x1 PUSH1 0x1 PUSH1 0xF8 SHL SUB NOT AND SWAP1 DUP2 PUSH1 0x0 BYTE SWAP1 MSTORE8 POP PUSH1 0xF PUSH1 0xFB SHL DUP2 PUSH1 0x1 DUP2 MLOAD DUP2 LT PUSH2 0x236D JUMPI PUSH2 0x236D PUSH2 0x2C45 JUMP JUMPDEST PUSH1 0x20 ADD ADD SWAP1 PUSH1 0x1 PUSH1 0x1 PUSH1 0xF8 SHL SUB NOT AND SWAP1 DUP2 PUSH1 0x0 BYTE SWAP1 MSTORE8 POP PUSH1 0x0 JUMPDEST PUSH1 0x14 DUP2 LT ISZERO PUSH2 0x24AC JUMPI DUP4 PUSH1 0x4 DUP5 DUP4 DUP2 MLOAD DUP2 LT PUSH2 0x23A5 JUMPI PUSH2 0x23A5 PUSH2 0x2C45 JUMP JUMPDEST ADD PUSH1 0x20 ADD MLOAD DUP3 MLOAD PUSH1 0x1 PUSH1 0x1 PUSH1 0xF8 SHL SUB NOT SWAP1 SWAP2 AND SWAP1 SWAP2 SHR PUSH1 0xF8 SHR SWAP1 DUP2 LT PUSH2 0x23CD JUMPI PUSH2 0x23CD PUSH2 0x2C45 JUMP JUMPDEST ADD PUSH1 0x20 ADD MLOAD PUSH1 0x1 PUSH1 0x1 PUSH1 0xF8 SHL SUB NOT AND DUP3 PUSH2 0x23E8 DUP4 PUSH1 0x2 PUSH2 0x2B92 JUMP JUMPDEST PUSH2 0x23F3 SWAP1 PUSH1 0x2 PUSH2 0x2BE6 JUMP JUMPDEST DUP2 MLOAD DUP2 LT PUSH2 0x2403 JUMPI PUSH2 0x2403 PUSH2 0x2C45 JUMP JUMPDEST PUSH1 0x20 ADD ADD SWAP1 PUSH1 0x1 PUSH1 0x1 PUSH1 0xF8 SHL SUB NOT AND SWAP1 DUP2 PUSH1 0x0 BYTE SWAP1 MSTORE8 POP DUP4 DUP4 DUP3 DUP2 MLOAD DUP2 LT PUSH2 0x242D JUMPI PUSH2 0x242D PUSH2 0x2C45 JUMP JUMPDEST PUSH1 0x20 SWAP2 ADD ADD MLOAD DUP2 MLOAD PUSH1 0xF8 SWAP2 SWAP1 SWAP2 SHR PUSH1 0xF AND SWAP1 DUP2 LT PUSH2 0x244D JUMPI PUSH2 0x244D PUSH2 0x2C45 JUMP JUMPDEST ADD PUSH1 0x20 ADD MLOAD PUSH1 0x1 PUSH1 0x1 PUSH1 0xF8 SHL SUB NOT AND DUP3 PUSH2 0x2468 DUP4 PUSH1 0x2 PUSH2 0x2B92 JUMP JUMPDEST PUSH2 0x2473 SWAP1 PUSH1 0x3 PUSH2 0x2BE6 JUMP JUMPDEST DUP2 MLOAD DUP2 LT PUSH2 0x2483 JUMPI PUSH2 0x2483 PUSH2 0x2C45 JUMP JUMPDEST PUSH1 0x20 ADD ADD SWAP1 PUSH1 0x1 PUSH1 0x1 PUSH1 0xF8 SHL SUB NOT AND SWAP1 DUP2 PUSH1 0x0 BYTE SWAP1 MSTORE8 POP DUP1 PUSH2 0x24A4 DUP2 PUSH2 0x2C16 JUMP JUMPDEST SWAP2 POP POP PUSH2 0x2387 JUMP JUMPDEST POP SWAP5 SWAP4 POP POP POP POP JUMP JUMPDEST PUSH1 0x1 PUSH1 0x1 PUSH1 0xA0 SHL SUB DUP1 DUP4 AND PUSH1 0x0 SWAP1 DUP2 MSTORE PUSH1 0x2 PUSH1 0x20 MSTORE PUSH1 0x40 DUP2 KECCAK256 SLOAD PUSH2 0x100 SWAP1 DIV SWAP1 SWAP2 AND SWAP1 JUMPDEST PUSH1 0xF DUP2 PUSH1 0xFF AND LT DUP1 ISZERO PUSH2 0x24F4 JUMPI POP PUSH1 0x1 PUSH1 0x1 PUSH1 0xA0 SHL SUB DUP3 AND ISZERO ISZERO JUMPDEST ISZERO PUSH2 0x2669 JUMPI PUSH1 0x1 PUSH1 0x1 PUSH1 0xA0 SHL SUB DUP3 AND PUSH1 0x0 SWAP1 DUP2 MSTORE PUSH1 0x2 PUSH1 0x20 MSTORE PUSH1 0x40 SWAP1 KECCAK256 PUSH1 0x4 ADD SLOAD PUSH1 0xFF DUP3 AND LT DUP1 ISZERO PUSH2 0x2541 JUMPI POP PUSH1 0x1 PUSH1 0x1 PUSH1 0xA0 SHL SUB DUP3 AND PUSH1 0x0 SWAP1 DUP2 MSTORE PUSH1 0x2 PUSH1 0x20 MSTORE PUSH1 0x40 SWAP1 KECCAK256 PUSH1 0x6 ADD SLOAD PUSH1 0xFF AND JUMPDEST ISZERO PUSH2 0x2634 JUMPI PUSH1 0x0 PUSH2 0x2710 PUSH1 0x8 DUP4 PUSH1 0xFF AND DUP2 SLOAD DUP2 LT PUSH2 0x2561 JUMPI PUSH2 0x2561 PUSH2 0x2C45 JUMP JUMPDEST PUSH1 0x0 SWAP2 DUP3 MSTORE PUSH1 0x20 SWAP1 SWAP2 KECCAK256 PUSH1 0x10 DUP3 DIV ADD SLOAD PUSH2 0x258B SWAP2 PUSH1 0xF AND PUSH1 0x2 MUL PUSH2 0x100 EXP SWAP1 DIV PUSH2 0xFFFF AND DUP7 PUSH2 0x2B92 JUMP JUMPDEST PUSH2 0x2595 SWAP2 SWAP1 PUSH2 0x2BBF JUMP JUMPDEST PUSH1 0x1 PUSH1 0x1 PUSH1 0xA0 SHL SUB DUP5 AND PUSH1 0x0 SWAP1 DUP2 MSTORE PUSH1 0x3 PUSH1 0x20 MSTORE PUSH1 0x40 DUP2 KECCAK256 PUSH1 0x2 ADD DUP1 SLOAD SWAP3 SWAP4 POP DUP4 SWAP3 SWAP1 SWAP2 SWAP1 PUSH2 0x25C5 SWAP1 DUP5 SWAP1 PUSH2 0x2BE6 JUMP JUMPDEST SWAP1 SWAP2 SSTORE POP POP PUSH1 0x1 PUSH1 0x1 PUSH1 0xA0 SHL SUB DUP1 DUP5 AND SWAP1 DUP7 AND PUSH1 0x0 DUP1 MLOAD PUSH1 0x20 PUSH2 0x2CE5 DUP4 CODECOPY DUP2 MLOAD SWAP2 MSTORE DUP4 PUSH2 0x25F3 DUP7 PUSH1 0x1 PUSH2 0x2CB7 JUMP JUMPDEST PUSH1 0x40 DUP1 MLOAD SWAP3 DUP4 MSTORE PUSH1 0xFF SWAP1 SWAP2 AND PUSH1 0x20 DUP4 ADD MSTORE PUSH1 0x60 SWAP1 DUP3 ADD DUP2 SWAP1 MSTORE PUSH1 0xC SWAP1 DUP3 ADD MSTORE PUSH12 0x1112549150D517D311559153 PUSH1 0xA2 SHL PUSH1 0x80 DUP3 ADD MSTORE PUSH1 0xA0 ADD PUSH1 0x40 MLOAD DUP1 SWAP2 SUB SWAP1 LOG3 POP JUMPDEST PUSH1 0x1 PUSH1 0x1 PUSH1 0xA0 SHL SUB SWAP2 DUP3 AND PUSH1 0x0 SWAP1 DUP2 MSTORE PUSH1 0x2 PUSH1 0x20 MSTORE PUSH1 0x40 SWAP1 KECCAK256 SLOAD PUSH2 0x100 SWAP1 DIV SWAP1 SWAP2 AND SWAP1 DUP1 PUSH2 0x2661 DUP2 PUSH2 0x2C98 JUMP JUMPDEST SWAP2 POP POP PUSH2 0x24D9 JUMP JUMPDEST POP POP POP POP JUMP JUMPDEST PUSH1 0xF DUP1 SLOAD PUSH1 0x0 SWAP2 DUP3 PUSH2 0x2680 DUP4 PUSH2 0x2C16 JUMP JUMPDEST SWAP1 SWAP2 SSTORE POP POP PUSH1 0xF SLOAD PUSH1 0xD SLOAD PUSH1 0x40 DUP1 MLOAD TIMESTAMP PUSH1 0x20 DUP3 ADD MSTORE PREVRANDAO SWAP2 DUP2 ADD SWAP2 SWAP1 SWAP2 MSTORE CALLER PUSH1 0x60 SWAP1 DUP2 SHL PUSH12 0xFFFFFFFFFFFFFFFFFFFFFFFF NOT AND SWAP1 DUP3 ADD MSTORE PUSH1 0x74 DUP2 ADD SWAP3 SWAP1 SWAP3 MSTORE PUSH1 0x94 DUP3 ADD MSTORE PUSH1 0x0 SWAP1 PUSH1 0xB4 ADD PUSH1 0x40 DUP1 MLOAD PUSH1 0x1F NOT DUP2 DUP5 SUB ADD DUP2 MSTORE SWAP2 SWAP1 MSTORE DUP1 MLOAD PUSH1 0x20 SWAP1 SWAP2 ADD KECCAK256 SWAP1 POP PUSH2 0x26EE PUSH1 0x8 DUP3 PUSH2 0x2CD0 JUMP JUMPDEST PUSH2 0x26F9 SWAP1 PUSH1 0x1 PUSH2 0x2BE6 JUMP JUMPDEST SWAP2 POP POP SWAP1 JUMP JUMPDEST PUSH1 0x1 PUSH1 0x1 PUSH1 0xA0 SHL SUB DUP1 DUP4 AND PUSH1 0x0 SWAP1 DUP2 MSTORE PUSH1 0x2 PUSH1 0x20 MSTORE PUSH1 0x40 DUP2 KECCAK256 SLOAD PUSH2 0x100 SWAP1 DIV SWAP1 SWAP2 AND SWAP1 JUMPDEST PUSH1 0xF DUP2 PUSH1 0xFF AND LT DUP1 ISZERO PUSH2 0x273E JUMPI POP PUSH1 0x1 PUSH1 0x1 PUSH1 0xA0 SHL SUB DUP3 AND ISZERO ISZERO JUMPDEST ISZERO PUSH2 0x2669 JUMPI PUSH1 0x1 PUSH1 0x1 PUSH1 0xA0 SHL SUB DUP3 AND PUSH1 0x0 SWAP1 DUP2 MSTORE PUSH1 0x2 PUSH1 0x20 MSTORE PUSH1 0x40 SWAP1 KECCAK256 PUSH1 0x4 ADD SLOAD PUSH1 0xFF DUP3 AND LT DUP1 ISZERO PUSH2 0x278B JUMPI POP PUSH1 0x1 PUSH1 0x1 PUSH1 0xA0 SHL SUB DUP3 AND PUSH1 0x0 SWAP1 DUP2 MSTORE PUSH1 0x2 PUSH1 0x20 MSTORE PUSH1 0x40 SWAP1 KECCAK256 PUSH1 0x6 ADD SLOAD PUSH1 0xFF AND JUMPDEST ISZERO PUSH2 0x287E JUMPI PUSH1 0x0 PUSH2 0x2710 PUSH1 0x9 DUP4 PUSH1 0xFF AND DUP2 SLOAD DUP2 LT PUSH2 0x27AB JUMPI PUSH2 0x27AB PUSH2 0x2C45 JUMP JUMPDEST PUSH1 0x0 SWAP2 DUP3 MSTORE PUSH1 0x20 SWAP1 SWAP2 KECCAK256 PUSH1 0x10 DUP3 DIV ADD SLOAD PUSH2 0x27D5 SWAP2 PUSH1 0xF AND PUSH1 0x2 MUL PUSH2 0x100 EXP SWAP1 DIV PUSH2 0xFFFF AND DUP7 PUSH2 0x2B92 JUMP JUMPDEST PUSH2 0x27DF SWAP2 SWAP1 PUSH2 0x2BBF JUMP JUMPDEST PUSH1 0x1 PUSH1 0x1 PUSH1 0xA0 SHL SUB DUP5 AND PUSH1 0x0 SWAP1 DUP2 MSTORE PUSH1 0x3 PUSH1 0x20 MSTORE PUSH1 0x40 DUP2 KECCAK256 PUSH1 0x2 ADD DUP1 SLOAD SWAP3 SWAP4 POP DUP4 SWAP3 SWAP1 SWAP2 SWAP1 PUSH2 0x280F SWAP1 DUP5 SWAP1 PUSH2 0x2BE6 JUMP JUMPDEST SWAP1 SWAP2 SSTORE POP POP PUSH1 0x1 PUSH1 0x1 PUSH1 0xA0 SHL SUB DUP1 DUP5 AND SWAP1 DUP7 AND PUSH1 0x0 DUP1 MLOAD PUSH1 0x20 PUSH2 0x2CE5 DUP4 CODECOPY DUP2 MLOAD SWAP2 MSTORE DUP4 PUSH2 0x283D DUP7 PUSH1 0x1 PUSH2 0x2CB7 JUMP JUMPDEST PUSH1 0x40 DUP1 MLOAD SWAP3 DUP4 MSTORE PUSH1 0xFF SWAP1 SWAP2 AND PUSH1 0x20 DUP4 ADD MSTORE PUSH1 0x60 SWAP1 DUP3 ADD DUP2 SWAP1 MSTORE PUSH1 0xC SWAP1 DUP3 ADD MSTORE PUSH12 0x15D25393915497D311559153 PUSH1 0xA2 SHL PUSH1 0x80 DUP3 ADD MSTORE PUSH1 0xA0 ADD PUSH1 0x40 MLOAD DUP1 SWAP2 SUB SWAP1 LOG3 POP JUMPDEST PUSH1 0x1 PUSH1 0x1 PUSH1 0xA0 SHL SUB SWAP2 DUP3 AND PUSH1 0x0 SWAP1 DUP2 MSTORE PUSH1 0x2 PUSH1 0x20 MSTORE PUSH1 0x40 SWAP1 KECCAK256 SLOAD PUSH2 0x100 SWAP1 DIV SWAP1 SWAP2 AND SWAP1 DUP1 PUSH2 0x28AB DUP2 PUSH2 0x2C98 JUMP JUMPDEST SWAP2 POP POP PUSH2 0x2723 JUMP JUMPDEST PUSH1 0x0 PUSH1 0x20 DUP3 DUP5 SUB SLT ISZERO PUSH2 0x28C5 JUMPI PUSH1 0x0 DUP1 REVERT JUMPDEST POP CALLDATALOAD SWAP2 SWAP1 POP JUMP JUMPDEST DUP1 CALLDATALOAD PUSH1 0x1 PUSH1 0x1 PUSH1 0xA0 SHL SUB DUP2 AND DUP2 EQ PUSH2 0x28E3 JUMPI PUSH1 0x0 DUP1 REVERT JUMPDEST SWAP2 SWAP1 POP JUMP JUMPDEST PUSH1 0x0 DUP1 PUSH1 0x40 DUP4 DUP6 SUB SLT ISZERO PUSH2 0x28FB JUMPI PUSH1 0x0 DUP1 REVERT JUMPDEST PUSH2 0x2904 DUP4 PUSH2 0x28CC JUMP JUMPDEST SWAP5 PUSH1 0x20 SWAP4 SWAP1 SWAP4 ADD CALLDATALOAD SWAP4 POP POP POP JUMP JUMPDEST PUSH1 0x0 PUSH1 0x20 DUP3 DUP5 SUB SLT ISZERO PUSH2 0x2924 JUMPI PUSH1 0x0 DUP1 REVERT JUMPDEST PUSH2 0x292D DUP3 PUSH2 0x28CC JUMP JUMPDEST SWAP4 SWAP3 POP POP POP JUMP JUMPDEST DUP2 MLOAD ISZERO ISZERO DUP2 MSTORE PUSH2 0x180 DUP2 ADD PUSH1 0x20 DUP4 ADD MLOAD PUSH2 0x2959 PUSH1 0x20 DUP5 ADD DUP3 PUSH1 0x1 PUSH1 0x1 PUSH1 0xA0 SHL SUB AND SWAP1 MSTORE JUMP JUMPDEST POP PUSH1 0x40 DUP4 ADD MLOAD PUSH1 0x40 DUP4 ADD MSTORE PUSH1 0x60 DUP4 ADD MLOAD PUSH1 0x60 DUP4 ADD MSTORE PUSH1 0x80 DUP4 ADD MLOAD PUSH1 0x80 DUP4 ADD MSTORE PUSH1 0xA0 DUP4 ADD MLOAD PUSH1 0xA0 DUP4 ADD MSTORE PUSH1 0xC0 DUP4 ADD MLOAD PUSH1 0xC0 DUP4 ADD MSTORE PUSH1 0xE0 DUP4 ADD MLOAD PUSH2 0x299F PUSH1 0xE0 DUP5 ADD DUP3 ISZERO ISZERO SWAP1 MSTORE JUMP JUMPDEST POP PUSH2 0x100 DUP4 DUP2 ADD MLOAD ISZERO ISZERO SWAP1 DUP4 ADD MSTORE PUSH2 0x120 DUP1 DUP5 ADD MLOAD SWAP1 DUP4 ADD MSTORE PUSH2 0x140 DUP1 DUP5 ADD MLOAD SWAP1 DUP4 ADD MSTORE PUSH2 0x160 SWAP3 DUP4 ADD MLOAD SWAP3 SWAP1 SWAP2 ADD SWAP2 SWAP1 SWAP2 MSTORE SWAP1 JUMP JUMPDEST PUSH1 0x20 DUP1 DUP3 MSTORE DUP3 MLOAD DUP3 DUP3 ADD DUP2 SWAP1 MSTORE PUSH1 0x0 SWAP2 SWAP1 PUSH1 0x40 SWAP1 DUP2 DUP6 ADD SWAP1 DUP7 DUP5 ADD DUP6 JUMPDEST DUP3 DUP2 LT ISZERO PUSH2 0x2A4A JUMPI DUP2 MLOAD DUP1 MLOAD DUP6 MSTORE DUP7 DUP2 ADD MLOAD PUSH1 0xFF SWAP1 DUP2 AND DUP9 DUP8 ADD MSTORE DUP7 DUP3 ADD MLOAD AND DUP7 DUP7 ADD MSTORE PUSH1 0x60 DUP1 DUP3 ADD MLOAD SWAP1 DUP7 ADD MSTORE PUSH1 0x80 DUP1 DUP3 ADD MLOAD ISZERO ISZERO SWAP1 DUP7 ADD MSTORE PUSH1 0xA0 SWAP1 DUP2 ADD MLOAD ISZERO ISZERO SWAP1 DUP6 ADD MSTORE PUSH1 0xC0 SWAP1 SWAP4 ADD SWAP3 SWAP1 DUP6 ADD SWAP1 PUSH1 0x1 ADD PUSH2 0x29F2 JUMP JUMPDEST POP SWAP2 SWAP8 SWAP7 POP POP POP POP POP POP POP JUMP JUMPDEST PUSH1 0x0 JUMPDEST DUP4 DUP2 LT ISZERO PUSH2 0x2A72 JUMPI DUP2 DUP2 ADD MLOAD DUP4 DUP3 ADD MSTORE PUSH1 0x20 ADD PUSH2 0x2A5A JUMP JUMPDEST POP POP PUSH1 0x0 SWAP2 ADD MSTORE JUMP JUMPDEST PUSH1 0x20 DUP2 MSTORE PUSH1 0x0 DUP3 MLOAD DUP1 PUSH1 0x20 DUP5 ADD MSTORE PUSH2 0x2A9A DUP2 PUSH1 0x40 DUP6 ADD PUSH1 0x20 DUP8 ADD PUSH2 0x2A57 JUMP JUMPDEST PUSH1 0x1F ADD PUSH1 0x1F NOT AND SWAP2 SWAP1 SWAP2 ADD PUSH1 0x40 ADD SWAP3 SWAP2 POP POP JUMP JUMPDEST PUSH1 0x20 DUP1 DUP3 MSTORE DUP3 MLOAD DUP3 DUP3 ADD DUP2 SWAP1 MSTORE PUSH1 0x0 SWAP2 SWAP1 DUP5 DUP3 ADD SWAP1 PUSH1 0x40 DUP6 ADD SWAP1 DUP5 JUMPDEST DUP2 DUP2 LT ISZERO PUSH2 0x2AEF JUMPI DUP4 MLOAD PUSH1 0x1 PUSH1 0x1 PUSH1 0xA0 SHL SUB AND DUP4 MSTORE SWAP3 DUP5 ADD SWAP3 SWAP2 DUP5 ADD SWAP2 PUSH1 0x1 ADD PUSH2 0x2ACA JUMP JUMPDEST POP SWAP1 SWAP7 SWAP6 POP POP POP POP POP POP JUMP JUMPDEST DUP1 ISZERO ISZERO DUP2 EQ PUSH2 0x2B09 JUMPI PUSH1 0x0 DUP1 REVERT JUMPDEST POP JUMP JUMPDEST PUSH1 0x0 DUP1 PUSH1 0x0 PUSH1 0x60 DUP5 DUP7 SUB SLT ISZERO PUSH2 0x2B21 JUMPI PUSH1 0x0 DUP1 REVERT JUMPDEST DUP4 CALLDATALOAD SWAP3 POP PUSH1 0x20 DUP5 ADD CALLDATALOAD PUSH1 0xFF DUP2 AND DUP2 EQ PUSH2 0x2B39 JUMPI PUSH1 0x0 DUP1 REVERT JUMPDEST SWAP2 POP PUSH1 0x40 DUP5 ADD CALLDATALOAD PUSH2 0x2B49 DUP2 PUSH2 0x2AFB JUMP JUMPDEST DUP1 SWAP2 POP POP SWAP3 POP SWAP3 POP SWAP3 JUMP JUMPDEST PUSH1 0x20 DUP1 DUP3 MSTORE PUSH1 0xE SWAP1 DUP3 ADD MSTORE PUSH14 0x139BDD081C9959DA5CDD195C9959 PUSH1 0x92 SHL PUSH1 0x40 DUP3 ADD MSTORE PUSH1 0x60 ADD SWAP1 JUMP JUMPDEST PUSH4 0x4E487B71 PUSH1 0xE0 SHL PUSH1 0x0 MSTORE PUSH1 0x11 PUSH1 0x4 MSTORE PUSH1 0x24 PUSH1 0x0 REVERT JUMPDEST DUP1 DUP3 MUL DUP2 ISZERO DUP3 DUP3 DIV DUP5 EQ OR PUSH2 0x13D2 JUMPI PUSH2 0x13D2 PUSH2 0x2B7C JUMP JUMPDEST PUSH4 0x4E487B71 PUSH1 0xE0 SHL PUSH1 0x0 MSTORE PUSH1 0x12 PUSH1 0x4 MSTORE PUSH1 0x24 PUSH1 0x0 REVERT JUMPDEST PUSH1 0x0 DUP3 PUSH2 0x2BCE JUMPI PUSH2 0x2BCE PUSH2 0x2BA9 JUMP JUMPDEST POP DIV SWAP1 JUMP JUMPDEST DUP2 DUP2 SUB DUP2 DUP2 GT ISZERO PUSH2 0x13D2 JUMPI PUSH2 0x13D2 PUSH2 0x2B7C JUMP JUMPDEST DUP1 DUP3 ADD DUP1 DUP3 GT ISZERO PUSH2 0x13D2 JUMPI PUSH2 0x13D2 PUSH2 0x2B7C JUMP JUMPDEST PUSH1 0x0 PUSH1 0x20 DUP3 DUP5 SUB SLT ISZERO PUSH2 0x2C0B JUMPI PUSH1 0x0 DUP1 REVERT JUMPDEST DUP2 MLOAD PUSH2 0x292D DUP2 PUSH2 0x2AFB JUMP JUMPDEST PUSH1 0x0 PUSH1 0x1 DUP3 ADD PUSH2 0x2C28 JUMPI PUSH2 0x2C28 PUSH2 0x2B7C JUMP JUMPDEST POP PUSH1 0x1 ADD SWAP1 JUMP JUMPDEST PUSH4 0x4E487B71 PUSH1 0xE0 SHL PUSH1 0x0 MSTORE PUSH1 0x41 PUSH1 0x4 MSTORE PUSH1 0x24 PUSH1 0x0 REVERT JUMPDEST PUSH4 0x4E487B71 PUSH1 0xE0 SHL PUSH1 0x0 MSTORE PUSH1 0x32 PUSH1 0x4 MSTORE PUSH1 0x24 PUSH1 0x0 REVERT JUMPDEST PUSH21 0x68747470733A2F2F74726B2E67616D652F7265662F PUSH1 0x58 SHL DUP2 MSTORE PUSH1 0x0 DUP3 MLOAD PUSH2 0x2C8B DUP2 PUSH1 0x15 DUP6 ADD PUSH1 0x20 DUP8 ADD PUSH2 0x2A57 JUMP JUMPDEST SWAP2 SWAP1 SWAP2 ADD PUSH1 0x15 ADD SWAP3 SWAP2 POP POP JUMP JUMPDEST PUSH1 0x0 PUSH1 0xFF DUP3 AND PUSH1 0xFF DUP2 SUB PUSH2 0x2CAE JUMPI PUSH2 0x2CAE PUSH2 0x2B7C JUMP JUMPDEST PUSH1 0x1 ADD SWAP3 SWAP2 POP POP JUMP JUMPDEST PUSH1 0xFF DUP2 DUP2 AND DUP4 DUP3 AND ADD SWAP1 DUP2 GT ISZERO PUSH2 0x13D2 JUMPI PUSH2 0x13D2 PUSH2 0x2B7C JUMP JUMPDEST PUSH1 0x0 DUP3 PUSH2 0x2CDF JUMPI PUSH2 0x2CDF PUSH2 0x2BA9 JUMP JUMPDEST POP MOD SWAP1 JUMP INVALID 0xEC DIV 0xD2 0xA7 DELEGATECALL 0xB3 ADDMOD 0xBD 0xAC 0xA6 0xA5 PUSH30 0xA056CDCFA0A844C6CB4B38A24173D35420A49561A2646970667358221220 0xC0 0xD7 0xAA SWAP11 COINBASE RETURN CREATE2 0xE7 0xCE 0xD5 PUSH12 0xBF325CE291915FE9BAE6CD33 DUP4 0xF8 0xB1 PREVRANDAO 0xB4 DUP5 0xE1 BALANCE 0xFC PUSH5 0x736F6C6343 STOP ADDMOD SGT STOP CALLER "},"methodIdentifiers":{"CASHBACK_TRIGGER()":"d18afe1a","GAME_MULTIPLIER()":"c6f6bb11","MAX_PRACTICE_USERS()":"56f4256b","MAX_WITHDRAWAL()":"97ec642c","MIN_BET()":"6540742f","MIN_WITHDRAWAL()":"d15ca166","PRACTICE_BONUS()":"524b5f7d","TOTAL_NUMBERS()":"4d1a6699","WITHDRAWAL_FEE()":"a5d33ed5","cashbackRate()":"9c7bc08e","claimCashback()":"70faad32","convertPracticeToCash()":"d1680d2f","deposit(uint256)":"b6b55f25","directLevelCommission(uint256)":"7ec7586c","directReferralsList(address,uint256)":"b59703a3","emergencyWithdraw(address,uint256)":"95ccea67","gameHistory(address,uint256)":"3f2ea8bb","getDirectReferrals(address)":"d2c8e0e5","getGameHistory(address,uint256)":"83d7d37a","getReferralLink(address)":"b57543c8","getUserInfo(address)":"6386c1c7","getUserWallets(address)":"6cbae157","owner()":"8da5cb5b","playGame(uint256,uint8,bool)":"efc1cdc7","practiceUsersCount()":"f0aaa16c","referralLevels(address,uint256)":"bdca79b5","register(address)":"4420e486","roiCommission(uint256)":"141c591c","totalGamesPlayed()":"5c492129","totalUsers()":"bff1f9e1","totalVolume()":"5f81a57c","updateCashbackRate(uint256)":"b9f71b89","usdt()":"2f48ab7d","users(address)":"a87430ba","wallets(address)":"89b08f11","winnerLevelCommission(uint256)":"ddea0851","withdraw(uint256)":"2e1a7d4d"}}}}}