{"src/TRKClubIncome.sol":{"TRKClubIncome":{"abi":[{"inputs":[{"internalType":"address","name":"_usdt","type":"address"}],"stateMutability":"nonpayable","type":"constructor"},{"anonymous":false,"inputs":[{"indexed":true,"internalType":"address","name":"user","type":"address"},{"indexed":false,"internalType":"uint8","name":"rank","type":"uint8"},{"indexed":false,"internalType":"uint256","name":"amount","type":"uint256"}],"name":"ClubIncomeDistributed","type":"event"},{"anonymous":false,"inputs":[{"indexed":false,"internalType":"uint256","name":"timestamp","type":"uint256"},{"indexed":false,"internalType":"uint256","name":"previousTurnover","type":"uint256"}],"name":"DailyPoolReset","type":"event"},{"anonymous":false,"inputs":[{"indexed":true,"internalType":"address","name":"user","type":"address"},{"indexed":false,"internalType":"uint8","name":"rank","type":"uint8"},{"indexed":false,"internalType":"uint256","name":"volume","type":"uint256"}],"name":"RankAchieved","type":"event"},{"inputs":[],"name":"claimClubIncome","outputs":[],"stateMutability":"nonpayable","type":"function"},{"inputs":[],"name":"dailyPoolPercentage","outputs":[{"internalType":"uint256","name":"","type":"uint256"}],"stateMutability":"view","type":"function"},{"inputs":[{"internalType":"address","name":"_token","type":"address"},{"internalType":"uint256","name":"_amount","type":"uint256"}],"name":"emergencyWithdraw","outputs":[],"stateMutability":"nonpayable","type":"function"},{"inputs":[],"name":"getDailyPoolInfo","outputs":[{"internalType":"uint256","name":"turnover","type":"uint256"},{"internalType":"uint256","name":"poolAmount","type":"uint256"},{"internalType":"uint256","name":"lastReset","type":"uint256"}],"stateMutability":"view","type":"function"},{"inputs":[{"internalType":"uint8","name":"_rank","type":"uint8"}],"name":"getRankMembers","outputs":[{"internalType":"address[]","name":"","type":"address[]"}],"stateMutability":"view","type":"function"},{"inputs":[{"internalType":"address","name":"_user","type":"address"}],"name":"getUserRank","outputs":[{"internalType":"uint8","name":"rank","type":"uint8"},{"internalType":"string","name":"rankName","type":"string"},{"internalType":"uint256","name":"totalVolume","type":"uint256"},{"internalType":"uint256","name":"nextRankVolume","type":"uint256"}],"stateMutability":"view","type":"function"},{"inputs":[],"name":"lastResetTime","outputs":[{"internalType":"uint256","name":"","type":"uint256"}],"stateMutability":"view","type":"function"},{"inputs":[],"name":"mainContract","outputs":[{"internalType":"address","name":"","type":"address"}],"stateMutability":"view","type":"function"},{"inputs":[],"name":"owner","outputs":[{"internalType":"address","name":"","type":"address"}],"stateMutability":"view","type":"function"},{"inputs":[{"internalType":"uint8","name":"","type":"uint8"},{"internalType":"uint256","name":"","type":"uint256"}],"name":"rankMembers","outputs":[{"internalType":"address","name":"","type":"address"}],"stateMutability":"view","type":"function"},{"inputs":[{"internalType":"uint256","name":"","type":"uint256"}],"name":"ranks","outputs":[{"internalType":"string","name":"name","type":"string"},{"internalType":"uint256","name":"targetVolume","type":"uint256"},{"internalType":"uint256","name":"poolShare","type":"uint256"}],"stateMutability":"view","type":"function"},{"inputs":[{"internalType":"uint256","name":"_amount","type":"uint256"}],"name":"recordTurnover","outputs":[],"stateMutability":"nonpayable","type":"function"},{"inputs":[{"internalType":"address","name":"_mainContract","type":"address"}],"name":"setMainContract","outputs":[],"stateMutability":"nonpayable","type":"function"},{"inputs":[],"name":"todayTurnover","outputs":[{"internalType":"uint256","name":"","type":"uint256"}],"stateMutability":"view","type":"function"},{"inputs":[{"internalType":"address","name":"_user","type":"address"},{"internalType":"uint256","name":"_strongLegVolume","type":"uint256"},{"internalType":"uint256","name":"_otherLegsVolume","type":"uint256"}],"name":"updateUserVolume","outputs":[],"stateMutability":"nonpayable","type":"function"},{"inputs":[],"name":"usdt","outputs":[{"internalType":"contract IERC20","name":"","type":"address"}],"stateMutability":"view","type":"function"},{"inputs":[{"internalType":"address","name":"","type":"address"}],"name":"userRankData","outputs":[{"internalType":"uint256","name":"strongLegVolume","type":"uint256"},{"internalType":"uint256","name":"otherLegsVolume","type":"uint256"},{"internalType":"uint256","name":"totalVolume","type":"uint256"},{"internalType":"uint8","name":"currentRank","type":"uint8"},{"internalType":"uint256","name":"lastClaimTime","type":"uint256"},{"internalType":"uint256","name":"totalEarned","type":"uint256"}],"stateMutability":"view","type":"function"}],"evm":{"bytecode":{"linkReferences":{},"object":"60806040526103206006553480156200001757600080fd5b50604051620016b8380380620016b88339810160408190526200003a91620003c2565b600080546001600160a01b0383166001600160a01b03199182161782556002805490911633179055426008556040805160a0810182526006606082019081526552616e6b203160d01b6080830152815269021e19e0c9bab240000060208201526109c491810191909152600380546001810182559281905281519192026000805160206200169883398151915201908190620000d7908262000499565b50602082810151600180840191909155604093840151600290930192909255825160a081018452600660608201908152652930b735901960d11b60808301528152690a968163f0a57b400000918101919091526109c492810192909252600380549182018155600081905282519102600080516020620016988339815191520190819062000166908262000499565b50602082810151600180840191909155604093840151600290930192909255825160a0810184526006606082019081526552616e6b203360d01b608083015281526934f086f3b33b68400000918101919091526104e2928101929092526003805491820181556000819052825191026000805160206200169883398151915201908190620001f5908262000499565b50602082810151600180840191909155604093840151600290930192909255825160a0810184526006606082019081526514985b9ac80d60d21b6080830152815269d3c21bcecceda1000000918101919091526104e292810192909252600380549182018155600081905282519102600080516020620016988339815191520190819062000284908262000499565b50602082810151600180840191909155604093840151600290930192909255825160a0810184526006606082019081526552616e6b203560d01b608083015281526a0422ca8b0a00a425000000918101919091526104e292810192909252600380549182018155600081905282519102600080516020620016988339815191520190819062000314908262000499565b50602082810151600180840191909155604093840151600290930192909255825160a081018452600660608201908152652930b735901b60d11b608083015281526a084595161401484a000000918101919091526104e2928101929092526003805491820181556000819052825191026000805160206200169883398151915201908190620003a4908262000499565b50602082015181600101556040820151816002015550505062000565565b600060208284031215620003d557600080fd5b81516001600160a01b0381168114620003ed57600080fd5b9392505050565b634e487b7160e01b600052604160045260246000fd5b600181811c908216806200041f57607f821691505b6020821081036200044057634e487b7160e01b600052602260045260246000fd5b50919050565b601f8211156200049457600081815260208120601f850160051c810160208610156200046f5750805b601f850160051c820191505b8181101562000490578281556001016200047b565b5050505b505050565b81516001600160401b03811115620004b557620004b5620003f4565b620004cd81620004c684546200040a565b8462000446565b602080601f831160018114620005055760008415620004ec5750858301515b600019600386901b1c1916600185901b17855562000490565b600085815260208120601f198616915b82811015620005365788860151825594840194600190910190840162000515565b5085821015620005555787850151600019600388901b60f8161c191681555b5050505050600190811b01905550565b61112380620005756000396000f3fe608060405234801561001057600080fd5b506004361061010b5760003560e01c80639d254d31116100a2578063c61b403b11610071578063c61b403b14610299578063d1a6619f146102ac578063d270e7ab146102b5578063df927bbe146102c8578063ea7fc16b146102ea57600080fd5b80639d254d3114610252578063a21771241461025a578063afe0e9f314610263578063b2d1573f1461027657600080fd5b80633ded33bc116100de5780633ded33bc1461019e5780635c74eef9146101b35780638da5cb5b1461022c57806395ccea671461023f57600080fd5b80630a8b1d931461011057806316b8a8d7146101395780631d98fde81461015c5780632f48ab7d14610173575b600080fd5b61012361011e366004610db9565b6102fd565b6040516101309190610dd4565b60405180910390f35b61014161036d565b60408051938452602084019290925290820152606001610130565b61016560065481565b604051908152602001610130565b600054610186906001600160a01b031681565b6040516001600160a01b039091168152602001610130565b6101b16101ac366004610e38565b6103a0565b005b6101fc6101c1366004610e38565b600460208190526000918252604090912080546001820154600283015460038401549484015460059094015492949193909260ff9092169186565b6040805196875260208701959095529385019290925260ff166060840152608083015260a082015260c001610130565b600254610186906001600160a01b031681565b6101b161024d366004610e53565b61040d565b6101b16104cf565b61016560085481565b6101b1610271366004610e7d565b61077e565b610289610284366004610e38565b610843565b6040516101309493929190610edc565b6101b16102a7366004610f0b565b6109a4565b61016560075481565b600154610186906001600160a01b031681565b6102db6102d6366004610e7d565b610a44565b60405161013093929190610f3e565b6101866102f8366004610f63565b610b06565b60ff811660009081526005602090815260409182902080548351818402810184019094528084526060939283018282801561036157602002820191906000526020600020905b81546001600160a01b03168152600190910190602001808311610343575b50505050509050919050565b60008060006007546127106006546007546103889190610f95565b6103929190610fac565b600854925092509250909192565b6002546001600160a01b031633146103eb5760405162461bcd60e51b81526020600482015260096024820152682737ba1037bbb732b960b91b60448201526064015b60405180910390fd5b600180546001600160a01b0319166001600160a01b0392909216919091179055565b6002546001600160a01b031633146104535760405162461bcd60e51b81526020600482015260096024820152682737ba1037bbb732b960b91b60448201526064016103e2565b60025460405163a9059cbb60e01b81526001600160a01b039182166004820152602481018390529083169063a9059cbb906044016020604051808303816000875af11580156104a6573d6000803e3d6000fd5b505050506040513d601f19601f820116820180604052508101906104ca9190610fce565b505050565b336000908152600460205260409020600381015460ff166105255760405162461bcd60e51b815260206004820152601060248201526f139bc81c985b9ac81858da1a595d995960821b60448201526064016103e2565b60048101546105379062015180610ff7565b42101561057e5760405162461bcd60e51b8152602060048201526015602482015274416c726561647920636c61696d656420746f64617960581b60448201526064016103e2565b60006127106006546007546105939190610f95565b61059d9190610fac565b6003838101549192506000916105b89060019060ff1661100a565b60ff16815481106105cb576105cb611023565b60009182526020808320600392830201600201549186015460ff16835260059052604090912054909150806106375760405162461bcd60e51b81526020600482015260126024820152714e6f206d656d6265727320696e2072616e6b60701b60448201526064016103e2565b6000816127106106478587610f95565b6106519190610fac565b61065b9190610fac565b90504285600401819055508085600501600082825461067a9190610ff7565b909155505060005460405163a9059cbb60e01b8152336004820152602481018390526001600160a01b039091169063a9059cbb906044016020604051808303816000875af11580156106d0573d6000803e3d6000fd5b505050506040513d601f19601f820116820180604052508101906106f49190610fce565b6107325760405162461bcd60e51b815260206004820152600f60248201526e151c985b9cd9995c8819985a5b1959608a1b60448201526064016103e2565b60038501546040805160ff90921682526020820183905233917f14d2ead5ffec3ff3eb7f3a95ec294e30ad7e7de2284bde6e6184462e58a24d2491015b60405180910390a25050505050565b6001546001600160a01b031633146107cc5760405162461bcd60e51b8152602060048201526011602482015270139bdd081b585a5b8818dbdb9d1c9858dd607a1b60448201526064016103e2565b6008546107dc9062015180610ff7565b4210610829576007546040805142815260208101929092527f32227e33d1f6fb77767a8f4f3e67c45772066ba035cf643c6b0492a56c0215e7910160405180910390a16000600755426008555b806007600082825461083b9190610ff7565b909155505050565b6001600160a01b0381166000908152600460205260408120600381015460ff16916060918190841561093057600361087c60018761100a565b60ff168154811061088f5761088f611023565b906000526020600020906003020160000180546108ab90611039565b80601f01602080910402602001604051908101604052809291908181526020018280546108d790611039565b80156109245780601f106108f957610100808354040283529160200191610924565b820191906000526020600020905b81548152906001019060200180831161090757829003601f168201915b50505050509350610953565b604051806040016040528060078152602001664e6f2052616e6b60c81b81525093505b600281015460035490935060ff861610156109975760038560ff168154811061097e5761097e611023565b906000526020600020906003020160010154915061099c565b600091505b509193509193565b6001546001600160a01b031633146109f25760405162461bcd60e51b8152602060048201526011602482015270139bdd081b585a5b8818dbdb9d1c9858dd607a1b60448201526064016103e2565b6001600160a01b03831660009081526004602052604081208381556001810183905590610a1f8484610b3e565b610a2a906002610f95565b600283018190559050610a3d8582610b58565b5050505050565b60038181548110610a5457600080fd5b9060005260206000209060030201600091509050806000018054610a7790611039565b80601f0160208091040260200160405190810160405280929190818152602001828054610aa390611039565b8015610af05780601f10610ac557610100808354040283529160200191610af0565b820191906000526020600020905b815481529060010190602001808311610ad357829003601f168201915b5050505050908060010154908060020154905083565b60056020528160005260406000208181548110610b2257600080fd5b6000918252602090912001546001600160a01b03169150829050565b6000818310610b4d5781610b4f565b825b90505b92915050565b6001600160a01b03821660009081526004602052604081206003810154909160ff90911690805b60035460ff82161015610bda5760038160ff1681548110610ba257610ba2611023565b9060005260206000209060030201600101548510610bc857610bc5816001611073565b91505b80610bd28161108c565b915050610b7f565b508160ff168160ff161115610a3d5760ff821615610bfc57610bfc8583610c83565b60038301805460ff191660ff8316908117909155600081815260056020908152604080832080546001810182559084529282902090920180546001600160a01b0319166001600160a01b038a169081179091558251938452908301879052917fd2a7099d65bdc7ade31790b4570b3985ec853306c8f2d40d68c1abf4464b5e9f910161076f565b60ff81166000908152600560205260408120905b8154811015610d9d57836001600160a01b0316828281548110610cbc57610cbc611023565b6000918252602090912001546001600160a01b031603610d8b5781548290610ce6906001906110ab565b81548110610cf657610cf6611023565b9060005260206000200160009054906101000a90046001600160a01b0316828281548110610d2657610d26611023565b9060005260206000200160006101000a8154816001600160a01b0302191690836001600160a01b0316021790555081805480610d6457610d646110be565b600082815260209020810160001990810180546001600160a01b0319169055019055610d9d565b80610d95816110d4565b915050610c97565b50505050565b803560ff81168114610db457600080fd5b919050565b600060208284031215610dcb57600080fd5b610b4f82610da3565b6020808252825182820181905260009190848201906040850190845b81811015610e155783516001600160a01b031683529284019291840191600101610df0565b50909695505050505050565b80356001600160a01b0381168114610db457600080fd5b600060208284031215610e4a57600080fd5b610b4f82610e21565b60008060408385031215610e6657600080fd5b610e6f83610e21565b946020939093013593505050565b600060208284031215610e8f57600080fd5b5035919050565b6000815180845260005b81811015610ebc57602081850181015186830182015201610ea0565b506000602082860101526020601f19601f83011685010191505092915050565b60ff85168152608060208201526000610ef86080830186610e96565b6040830194909452506060015292915050565b600080600060608486031215610f2057600080fd5b610f2984610e21565b95602085013595506040909401359392505050565b606081526000610f516060830186610e96565b60208301949094525060400152919050565b60008060408385031215610f7657600080fd5b610e6f83610da3565b634e487b7160e01b600052601160045260246000fd5b8082028115828204841417610b5257610b52610f7f565b600082610fc957634e487b7160e01b600052601260045260246000fd5b500490565b600060208284031215610fe057600080fd5b81518015158114610ff057600080fd5b9392505050565b80820180821115610b5257610b52610f7f565b60ff8281168282160390811115610b5257610b52610f7f565b634e487b7160e01b600052603260045260246000fd5b600181811c9082168061104d57607f821691505b60208210810361106d57634e487b7160e01b600052602260045260246000fd5b50919050565b60ff8181168382160190811115610b5257610b52610f7f565b600060ff821660ff81036110a2576110a2610f7f565b60010192915050565b81810381811115610b5257610b52610f7f565b634e487b7160e01b600052603160045260246000fd5b6000600182016110e6576110e6610f7f565b506001019056fea2646970667358221220a403cb38158754f3b7c40d0d804fae0ba364e7f109771744dfb6d715d7af68fb64736f6c63430008130033c2575a0e9e593c00f959f8c92f12db2869c3395a3b0502d05e2516446f71f85b","opcodes":"PUSH1 0x80 PUSH1 0x40 MSTORE PUSH2 0x320 PUSH1 0x6 SSTORE CALLVALUE DUP1 ISZERO PUSH3 0x17 JUMPI PUSH1 0x0 DUP1 REVERT JUMPDEST POP PUSH1 0x40 MLOAD PUSH3 0x16B8 CODESIZE SUB DUP1 PUSH3 0x16B8 DUP4 CODECOPY DUP2 ADD PUSH1 0x40 DUP2 SWAP1 MSTORE PUSH3 0x3A SWAP2 PUSH3 0x3C2 JUMP JUMPDEST PUSH1 0x0 DUP1 SLOAD PUSH1 0x1 PUSH1 0x1 PUSH1 0xA0 SHL SUB DUP4 AND PUSH1 0x1 PUSH1 0x1 PUSH1 0xA0 SHL SUB NOT SWAP2 DUP3 AND OR DUP3 SSTORE PUSH1 0x2 DUP1 SLOAD SWAP1 SWAP2 AND CALLER OR SWAP1 SSTORE TIMESTAMP PUSH1 0x8 SSTORE PUSH1 0x40 DUP1 MLOAD PUSH1 0xA0 DUP2 ADD DUP3 MSTORE PUSH1 0x6 PUSH1 0x60 DUP3 ADD SWAP1 DUP2 MSTORE PUSH6 0x52616E6B2031 PUSH1 0xD0 SHL PUSH1 0x80 DUP4 ADD MSTORE DUP2 MSTORE PUSH10 0x21E19E0C9BAB2400000 PUSH1 0x20 DUP3 ADD MSTORE PUSH2 0x9C4 SWAP2 DUP2 ADD SWAP2 SWAP1 SWAP2 MSTORE PUSH1 0x3 DUP1 SLOAD PUSH1 0x1 DUP2 ADD DUP3 SSTORE SWAP3 DUP2 SWAP1 MSTORE DUP2 MLOAD SWAP2 SWAP3 MUL PUSH1 0x0 DUP1 MLOAD PUSH1 0x20 PUSH3 0x1698 DUP4 CODECOPY DUP2 MLOAD SWAP2 MSTORE ADD SWAP1 DUP2 SWAP1 PUSH3 0xD7 SWAP1 DUP3 PUSH3 0x499 JUMP JUMPDEST POP PUSH1 0x20 DUP3 DUP2 ADD MLOAD PUSH1 0x1 DUP1 DUP5 ADD SWAP2 SWAP1 SWAP2 SSTORE PUSH1 0x40 SWAP4 DUP5 ADD MLOAD PUSH1 0x2 SWAP1 SWAP4 ADD SWAP3 SWAP1 SWAP3 SSTORE DUP3 MLOAD PUSH1 0xA0 DUP2 ADD DUP5 MSTORE PUSH1 0x6 PUSH1 0x60 DUP3 ADD SWAP1 DUP2 MSTORE PUSH6 0x2930B7359019 PUSH1 0xD1 SHL PUSH1 0x80 DUP4 ADD MSTORE DUP2 MSTORE PUSH10 0xA968163F0A57B400000 SWAP2 DUP2 ADD SWAP2 SWAP1 SWAP2 MSTORE PUSH2 0x9C4 SWAP3 DUP2 ADD SWAP3 SWAP1 SWAP3 MSTORE PUSH1 0x3 DUP1 SLOAD SWAP2 DUP3 ADD DUP2 SSTORE PUSH1 0x0 DUP2 SWAP1 MSTORE DUP3 MLOAD SWAP2 MUL PUSH1 0x0 DUP1 MLOAD PUSH1 0x20 PUSH3 0x1698 DUP4 CODECOPY DUP2 MLOAD SWAP2 MSTORE ADD SWAP1 DUP2 SWAP1 PUSH3 0x166 SWAP1 DUP3 PUSH3 0x499 JUMP JUMPDEST POP PUSH1 0x20 DUP3 DUP2 ADD MLOAD PUSH1 0x1 DUP1 DUP5 ADD SWAP2 SWAP1 SWAP2 SSTORE PUSH1 0x40 SWAP4 DUP5 ADD MLOAD PUSH1 0x2 SWAP1 SWAP4 ADD SWAP3 SWAP1 SWAP3 SSTORE DUP3 MLOAD PUSH1 0xA0 DUP2 ADD DUP5 MSTORE PUSH1 0x6 PUSH1 0x60 DUP3 ADD SWAP1 DUP2 MSTORE PUSH6 0x52616E6B2033 PUSH1 0xD0 SHL PUSH1 0x80 DUP4 ADD MSTORE DUP2 MSTORE PUSH10 0x34F086F3B33B68400000 SWAP2 DUP2 ADD SWAP2 SWAP1 SWAP2 MSTORE PUSH2 0x4E2 SWAP3 DUP2 ADD SWAP3 SWAP1 SWAP3 MSTORE PUSH1 0x3 DUP1 SLOAD SWAP2 DUP3 ADD DUP2 SSTORE PUSH1 0x0 DUP2 SWAP1 MSTORE DUP3 MLOAD SWAP2 MUL PUSH1 0x0 DUP1 MLOAD PUSH1 0x20 PUSH3 0x1698 DUP4 CODECOPY DUP2 MLOAD SWAP2 MSTORE ADD SWAP1 DUP2 SWAP1 PUSH3 0x1F5 SWAP1 DUP3 PUSH3 0x499 JUMP JUMPDEST POP PUSH1 0x20 DUP3 DUP2 ADD MLOAD PUSH1 0x1 DUP1 DUP5 ADD SWAP2 SWAP1 SWAP2 SSTORE PUSH1 0x40 SWAP4 DUP5 ADD MLOAD PUSH1 0x2 SWAP1 SWAP4 ADD SWAP3 SWAP1 SWAP3 SSTORE DUP3 MLOAD PUSH1 0xA0 DUP2 ADD DUP5 MSTORE PUSH1 0x6 PUSH1 0x60 DUP3 ADD SWAP1 DUP2 MSTORE PUSH6 0x14985B9AC80D PUSH1 0xD2 SHL PUSH1 0x80 DUP4 ADD MSTORE DUP2 MSTORE PUSH10 0xD3C21BCECCEDA1000000 SWAP2 DUP2 ADD SWAP2 SWAP1 SWAP2 MSTORE PUSH2 0x4E2 SWAP3 DUP2 ADD SWAP3 SWAP1 SWAP3 MSTORE PUSH1 0x3 DUP1 SLOAD SWAP2 DUP3 ADD DUP2 SSTORE PUSH1 0x0 DUP2 SWAP1 MSTORE DUP3 MLOAD SWAP2 MUL PUSH1 0x0 DUP1 MLOAD PUSH1 0x20 PUSH3 0x1698 DUP4 CODECOPY DUP2 MLOAD SWAP2 MSTORE ADD SWAP1 DUP2 SWAP1 PUSH3 0x284 SWAP1 DUP3 PUSH3 0x499 JUMP JUMPDEST POP PUSH1 0x20 DUP3 DUP2 ADD MLOAD PUSH1 0x1 DUP1 DUP5 ADD SWAP2 SWAP1 SWAP2 SSTORE PUSH1 0x40 SWAP4 DUP5 ADD MLOAD PUSH1 0x2 SWAP1 SWAP4 ADD SWAP3 SWAP1 SWAP3 SSTORE DUP3 MLOAD PUSH1 0xA0 DUP2 ADD DUP5 MSTORE PUSH1 0x6 PUSH1 0x60 DUP3 ADD SWAP1 DUP2 MSTORE PUSH6 0x52616E6B2035 PUSH1 0xD0 SHL PUSH1 0x80 DUP4 ADD MSTORE DUP2 MSTORE PUSH11 0x422CA8B0A00A425000000 SWAP2 DUP2 ADD SWAP2 SWAP1 SWAP2 MSTORE PUSH2 0x4E2 SWAP3 DUP2 ADD SWAP3 SWAP1 SWAP3 MSTORE PUSH1 0x3 DUP1 SLOAD SWAP2 DUP3 ADD DUP2 SSTORE PUSH1 0x0 DUP2 SWAP1 MSTORE DUP3 MLOAD SWAP2 MUL PUSH1 0x0 DUP1 MLOAD PUSH1 0x20 PUSH3 0x1698 DUP4 CODECOPY DUP2 MLOAD SWAP2 MSTORE ADD SWAP1 DUP2 SWAP1 PUSH3 0x314 SWAP1 DUP3 PUSH3 0x499 JUMP JUMPDEST POP PUSH1 0x20 DUP3 DUP2 ADD MLOAD PUSH1 0x1 DUP1 DUP5 ADD SWAP2 SWAP1 SWAP2 SSTORE PUSH1 0x40 SWAP4 DUP5 ADD MLOAD PUSH1 0x2 SWAP1 SWAP4 ADD SWAP3 SWAP1 SWAP3 SSTORE DUP3 MLOAD PUSH1 0xA0 DUP2 ADD DUP5 MSTORE PUSH1 0x6 PUSH1 0x60 DUP3 ADD SWAP1 DUP2 MSTORE PUSH6 0x2930B735901B PUSH1 0xD1 SHL PUSH1 0x80 DUP4 ADD MSTORE DUP2 MSTORE PUSH11 0x84595161401484A000000 SWAP2 DUP2 ADD SWAP2 SWAP1 SWAP2 MSTORE PUSH2 0x4E2 SWAP3 DUP2 ADD SWAP3 SWAP1 SWAP3 MSTORE PUSH1 0x3 DUP1 SLOAD SWAP2 DUP3 ADD DUP2 SSTORE PUSH1 0x0 DUP2 SWAP1 MSTORE DUP3 MLOAD SWAP2 MUL PUSH1 0x0 DUP1 MLOAD PUSH1 0x20 PUSH3 0x1698 DUP4 CODECOPY DUP2 MLOAD SWAP2 MSTORE ADD SWAP1 DUP2 SWAP1 PUSH3 0x3A4 SWAP1 DUP3 PUSH3 0x499 JUMP JUMPDEST POP PUSH1 0x20 DUP3 ADD MLOAD DUP2 PUSH1 0x1 ADD SSTORE PUSH1 0x40 DUP3 ADD MLOAD DUP2 PUSH1 0x2 ADD SSTORE POP POP POP PUSH3 0x565 JUMP JUMPDEST PUSH1 0x0 PUSH1 0x20 DUP3 DUP5 SUB SLT ISZERO PUSH3 0x3D5 JUMPI PUSH1 0x0 DUP1 REVERT JUMPDEST DUP2 MLOAD PUSH1 0x1 PUSH1 0x1 PUSH1 0xA0 SHL SUB DUP2 AND DUP2 EQ PUSH3 0x3ED JUMPI PUSH1 0x0 DUP1 REVERT JUMPDEST SWAP4 SWAP3 POP POP POP JUMP JUMPDEST PUSH4 0x4E487B71 PUSH1 0xE0 SHL PUSH1 0x0 MSTORE PUSH1 0x41 PUSH1 0x4 MSTORE PUSH1 0x24 PUSH1 0x0 REVERT JUMPDEST PUSH1 0x1 DUP2 DUP2 SHR SWAP1 DUP3 AND DUP1 PUSH3 0x41F JUMPI PUSH1 0x7F DUP3 AND SWAP2 POP JUMPDEST PUSH1 0x20 DUP3 LT DUP2 SUB PUSH3 0x440 JUMPI PUSH4 0x4E487B71 PUSH1 0xE0 SHL PUSH1 0x0 MSTORE PUSH1 0x22 PUSH1 0x4 MSTORE PUSH1 0x24 PUSH1 0x0 REVERT JUMPDEST POP SWAP2 SWAP1 POP JUMP JUMPDEST PUSH1 0x1F DUP3 GT ISZERO PUSH3 0x494 JUMPI PUSH1 0x0 DUP2 DUP2 MSTORE PUSH1 0x20 DUP2 KECCAK256 PUSH1 0x1F DUP6 ADD PUSH1 0x5 SHR DUP2 ADD PUSH1 0x20 DUP7 LT ISZERO PUSH3 0x46F JUMPI POP DUP1 JUMPDEST PUSH1 0x1F DUP6 ADD PUSH1 0x5 SHR DUP3 ADD SWAP2 POP JUMPDEST DUP2 DUP2 LT ISZERO PUSH3 0x490 JUMPI DUP3 DUP2 SSTORE PUSH1 0x1 ADD PUSH3 0x47B JUMP JUMPDEST POP POP POP JUMPDEST POP POP POP JUMP JUMPDEST DUP2 MLOAD PUSH1 0x1 PUSH1 0x1 PUSH1 0x40 SHL SUB DUP2 GT ISZERO PUSH3 0x4B5 JUMPI PUSH3 0x4B5 PUSH3 0x3F4 JUMP JUMPDEST PUSH3 0x4CD DUP2 PUSH3 0x4C6 DUP5 SLOAD PUSH3 0x40A JUMP JUMPDEST DUP5 PUSH3 0x446 JUMP JUMPDEST PUSH1 0x20 DUP1 PUSH1 0x1F DUP4 GT PUSH1 0x1 DUP2 EQ PUSH3 0x505 JUMPI PUSH1 0x0 DUP5 ISZERO PUSH3 0x4EC JUMPI POP DUP6 DUP4 ADD MLOAD JUMPDEST PUSH1 0x0 NOT PUSH1 0x3 DUP7 SWAP1 SHL SHR NOT AND PUSH1 0x1 DUP6 SWAP1 SHL OR DUP6 SSTORE PUSH3 0x490 JUMP JUMPDEST PUSH1 0x0 DUP6 DUP2 MSTORE PUSH1 0x20 DUP2 KECCAK256 PUSH1 0x1F NOT DUP7 AND SWAP2 JUMPDEST DUP3 DUP2 LT ISZERO PUSH3 0x536 JUMPI DUP9 DUP7 ADD MLOAD DUP3 SSTORE SWAP5 DUP5 ADD SWAP5 PUSH1 0x1 SWAP1 SWAP2 ADD SWAP1 DUP5 ADD PUSH3 0x515 JUMP JUMPDEST POP DUP6 DUP3 LT ISZERO PUSH3 0x555 JUMPI DUP8 DUP6 ADD MLOAD PUSH1 0x0 NOT PUSH1 0x3 DUP9 SWAP1 SHL PUSH1 0xF8 AND SHR NOT AND DUP2 SSTORE JUMPDEST POP POP POP POP POP PUSH1 0x1 SWAP1 DUP2 SHL ADD SWAP1 SSTORE POP JUMP JUMPDEST PUSH2 0x1123 DUP1 PUSH3 0x575 PUSH1 0x0 CODECOPY PUSH1 0x0 RETURN INVALID PUSH1 0x80 PUSH1 0x40 MSTORE CALLVALUE DUP1 ISZERO PUSH2 0x10 JUMPI PUSH1 0x0 DUP1 REVERT JUMPDEST POP PUSH1 0x4 CALLDATASIZE LT PUSH2 0x10B JUMPI PUSH1 0x0 CALLDATALOAD PUSH1 0xE0 SHR DUP1 PUSH4 0x9D254D31 GT PUSH2 0xA2 JUMPI DUP1 PUSH4 0xC61B403B GT PUSH2 0x71 JUMPI DUP1 PUSH4 0xC61B403B EQ PUSH2 0x299 JUMPI DUP1 PUSH4 0xD1A6619F EQ PUSH2 0x2AC JUMPI DUP1 PUSH4 0xD270E7AB EQ PUSH2 0x2B5 JUMPI DUP1 PUSH4 0xDF927BBE EQ PUSH2 0x2C8 JUMPI DUP1 PUSH4 0xEA7FC16B EQ PUSH2 0x2EA JUMPI PUSH1 0x0 DUP1 REVERT JUMPDEST DUP1 PUSH4 0x9D254D31 EQ PUSH2 0x252 JUMPI DUP1 PUSH4 0xA2177124 EQ PUSH2 0x25A JUMPI DUP1 PUSH4 0xAFE0E9F3 EQ PUSH2 0x263 JUMPI DUP1 PUSH4 0xB2D1573F EQ PUSH2 0x276 JUMPI PUSH1 0x0 DUP1 REVERT JUMPDEST DUP1 PUSH4 0x3DED33BC GT PUSH2 0xDE JUMPI DUP1 PUSH4 0x3DED33BC EQ PUSH2 0x19E JUMPI DUP1 PUSH4 0x5C74EEF9 EQ PUSH2 0x1B3 JUMPI DUP1 PUSH4 0x8DA5CB5B EQ PUSH2 0x22C JUMPI DUP1 PUSH4 0x95CCEA67 EQ PUSH2 0x23F JUMPI PUSH1 0x0 DUP1 REVERT JUMPDEST DUP1 PUSH4 0xA8B1D93 EQ PUSH2 0x110 JUMPI DUP1 PUSH4 0x16B8A8D7 EQ PUSH2 0x139 JUMPI DUP1 PUSH4 0x1D98FDE8 EQ PUSH2 0x15C JUMPI DUP1 PUSH4 0x2F48AB7D EQ PUSH2 0x173 JUMPI JUMPDEST PUSH1 0x0 DUP1 REVERT JUMPDEST PUSH2 0x123 PUSH2 0x11E CALLDATASIZE PUSH1 0x4 PUSH2 0xDB9 JUMP JUMPDEST PUSH2 0x2FD JUMP JUMPDEST PUSH1 0x40 MLOAD PUSH2 0x130 SWAP2 SWAP1 PUSH2 0xDD4 JUMP JUMPDEST PUSH1 0x40 MLOAD DUP1 SWAP2 SUB SWAP1 RETURN JUMPDEST PUSH2 0x141 PUSH2 0x36D JUMP JUMPDEST PUSH1 0x40 DUP1 MLOAD SWAP4 DUP5 MSTORE PUSH1 0x20 DUP5 ADD SWAP3 SWAP1 SWAP3 MSTORE SWAP1 DUP3 ADD MSTORE PUSH1 0x60 ADD PUSH2 0x130 JUMP JUMPDEST PUSH2 0x165 PUSH1 0x6 SLOAD DUP2 JUMP JUMPDEST PUSH1 0x40 MLOAD SWAP1 DUP2 MSTORE PUSH1 0x20 ADD PUSH2 0x130 JUMP JUMPDEST PUSH1 0x0 SLOAD PUSH2 0x186 SWAP1 PUSH1 0x1 PUSH1 0x1 PUSH1 0xA0 SHL SUB AND DUP2 JUMP JUMPDEST PUSH1 0x40 MLOAD PUSH1 0x1 PUSH1 0x1 PUSH1 0xA0 SHL SUB SWAP1 SWAP2 AND DUP2 MSTORE PUSH1 0x20 ADD PUSH2 0x130 JUMP JUMPDEST PUSH2 0x1B1 PUSH2 0x1AC CALLDATASIZE PUSH1 0x4 PUSH2 0xE38 JUMP JUMPDEST PUSH2 0x3A0 JUMP JUMPDEST STOP JUMPDEST PUSH2 0x1FC PUSH2 0x1C1 CALLDATASIZE PUSH1 0x4 PUSH2 0xE38 JUMP JUMPDEST PUSH1 0x4 PUSH1 0x20 DUP2 SWAP1 MSTORE PUSH1 0x0 SWAP2 DUP3 MSTORE PUSH1 0x40 SWAP1 SWAP2 KECCAK256 DUP1 SLOAD PUSH1 0x1 DUP3 ADD SLOAD PUSH1 0x2 DUP4 ADD SLOAD PUSH1 0x3 DUP5 ADD SLOAD SWAP5 DUP5 ADD SLOAD PUSH1 0x5 SWAP1 SWAP5 ADD SLOAD SWAP3 SWAP5 SWAP2 SWAP4 SWAP1 SWAP3 PUSH1 0xFF SWAP1 SWAP3 AND SWAP2 DUP7 JUMP JUMPDEST PUSH1 0x40 DUP1 MLOAD SWAP7 DUP8 MSTORE PUSH1 0x20 DUP8 ADD SWAP6 SWAP1 SWAP6 MSTORE SWAP4 DUP6 ADD SWAP3 SWAP1 SWAP3 MSTORE PUSH1 0xFF AND PUSH1 0x60 DUP5 ADD MSTORE PUSH1 0x80 DUP4 ADD MSTORE PUSH1 0xA0 DUP3 ADD MSTORE PUSH1 0xC0 ADD PUSH2 0x130 JUMP JUMPDEST PUSH1 0x2 SLOAD PUSH2 0x186 SWAP1 PUSH1 0x1 PUSH1 0x1 PUSH1 0xA0 SHL SUB AND DUP2 JUMP JUMPDEST PUSH2 0x1B1 PUSH2 0x24D CALLDATASIZE PUSH1 0x4 PUSH2 0xE53 JUMP JUMPDEST PUSH2 0x40D JUMP JUMPDEST PUSH2 0x1B1 PUSH2 0x4CF JUMP JUMPDEST PUSH2 0x165 PUSH1 0x8 SLOAD DUP2 JUMP JUMPDEST PUSH2 0x1B1 PUSH2 0x271 CALLDATASIZE PUSH1 0x4 PUSH2 0xE7D JUMP JUMPDEST PUSH2 0x77E JUMP JUMPDEST PUSH2 0x289 PUSH2 0x284 CALLDATASIZE PUSH1 0x4 PUSH2 0xE38 JUMP JUMPDEST PUSH2 0x843 JUMP JUMPDEST PUSH1 0x40 MLOAD PUSH2 0x130 SWAP5 SWAP4 SWAP3 SWAP2 SWAP1 PUSH2 0xEDC JUMP JUMPDEST PUSH2 0x1B1 PUSH2 0x2A7 CALLDATASIZE PUSH1 0x4 PUSH2 0xF0B JUMP JUMPDEST PUSH2 0x9A4 JUMP JUMPDEST PUSH2 0x165 PUSH1 0x7 SLOAD DUP2 JUMP JUMPDEST PUSH1 0x1 SLOAD PUSH2 0x186 SWAP1 PUSH1 0x1 PUSH1 0x1 PUSH1 0xA0 SHL SUB AND DUP2 JUMP JUMPDEST PUSH2 0x2DB PUSH2 0x2D6 CALLDATASIZE PUSH1 0x4 PUSH2 0xE7D JUMP JUMPDEST PUSH2 0xA44 JUMP JUMPDEST PUSH1 0x40 MLOAD PUSH2 0x130 SWAP4 SWAP3 SWAP2 SWAP1 PUSH2 0xF3E JUMP JUMPDEST PUSH2 0x186 PUSH2 0x2F8 CALLDATASIZE PUSH1 0x4 PUSH2 0xF63 JUMP JUMPDEST PUSH2 0xB06 JUMP JUMPDEST PUSH1 0xFF DUP2 AND PUSH1 0x0 SWAP1 DUP2 MSTORE PUSH1 0x5 PUSH1 0x20 SWAP1 DUP2 MSTORE PUSH1 0x40 SWAP2 DUP3 SWAP1 KECCAK256 DUP1 SLOAD DUP4 MLOAD DUP2 DUP5 MUL DUP2 ADD DUP5 ADD SWAP1 SWAP5 MSTORE DUP1 DUP5 MSTORE PUSH1 0x60 SWAP4 SWAP3 DUP4 ADD DUP3 DUP3 DUP1 ISZERO PUSH2 0x361 JUMPI PUSH1 0x20 MUL DUP3 ADD SWAP2 SWAP1 PUSH1 0x0 MSTORE PUSH1 0x20 PUSH1 0x0 KECCAK256 SWAP1 JUMPDEST DUP2 SLOAD PUSH1 0x1 PUSH1 0x1 PUSH1 0xA0 SHL SUB AND DUP2 MSTORE PUSH1 0x1 SWAP1 SWAP2 ADD SWAP1 PUSH1 0x20 ADD DUP1 DUP4 GT PUSH2 0x343 JUMPI JUMPDEST POP POP POP POP POP SWAP1 POP SWAP2 SWAP1 POP JUMP JUMPDEST PUSH1 0x0 DUP1 PUSH1 0x0 PUSH1 0x7 SLOAD PUSH2 0x2710 PUSH1 0x6 SLOAD PUSH1 0x7 SLOAD PUSH2 0x388 SWAP2 SWAP1 PUSH2 0xF95 JUMP JUMPDEST PUSH2 0x392 SWAP2 SWAP1 PUSH2 0xFAC JUMP JUMPDEST PUSH1 0x8 SLOAD SWAP3 POP SWAP3 POP SWAP3 POP SWAP1 SWAP2 SWAP3 JUMP JUMPDEST PUSH1 0x2 SLOAD PUSH1 0x1 PUSH1 0x1 PUSH1 0xA0 SHL SUB AND CALLER EQ PUSH2 0x3EB JUMPI PUSH1 0x40 MLOAD PUSH3 0x461BCD PUSH1 0xE5 SHL DUP2 MSTORE PUSH1 0x20 PUSH1 0x4 DUP3 ADD MSTORE PUSH1 0x9 PUSH1 0x24 DUP3 ADD MSTORE PUSH9 0x2737BA1037BBB732B9 PUSH1 0xB9 SHL PUSH1 0x44 DUP3 ADD MSTORE PUSH1 0x64 ADD JUMPDEST PUSH1 0x40 MLOAD DUP1 SWAP2 SUB SWAP1 REVERT JUMPDEST PUSH1 0x1 DUP1 SLOAD PUSH1 0x1 PUSH1 0x1 PUSH1 0xA0 SHL SUB NOT AND PUSH1 0x1 PUSH1 0x1 PUSH1 0xA0 SHL SUB SWAP3 SWAP1 SWAP3 AND SWAP2 SWAP1 SWAP2 OR SWAP1 SSTORE JUMP JUMPDEST PUSH1 0x2 SLOAD PUSH1 0x1 PUSH1 0x1 PUSH1 0xA0 SHL SUB AND CALLER EQ PUSH2 0x453 JUMPI PUSH1 0x40 MLOAD PUSH3 0x461BCD PUSH1 0xE5 SHL DUP2 MSTORE PUSH1 0x20 PUSH1 0x4 DUP3 ADD MSTORE PUSH1 0x9 PUSH1 0x24 DUP3 ADD MSTORE PUSH9 0x2737BA1037BBB732B9 PUSH1 0xB9 SHL PUSH1 0x44 DUP3 ADD MSTORE PUSH1 0x64 ADD PUSH2 0x3E2 JUMP JUMPDEST PUSH1 0x2 SLOAD PUSH1 0x40 MLOAD PUSH4 0xA9059CBB PUSH1 0xE0 SHL DUP2 MSTORE PUSH1 0x1 PUSH1 0x1 PUSH1 0xA0 SHL SUB SWAP2 DUP3 AND PUSH1 0x4 DUP3 ADD MSTORE PUSH1 0x24 DUP2 ADD DUP4 SWAP1 MSTORE SWAP1 DUP4 AND SWAP1 PUSH4 0xA9059CBB SWAP1 PUSH1 0x44 ADD PUSH1 0x20 PUSH1 0x40 MLOAD DUP1 DUP4 SUB DUP2 PUSH1 0x0 DUP8 GAS CALL ISZERO DUP1 ISZERO PUSH2 0x4A6 JUMPI RETURNDATASIZE PUSH1 0x0 DUP1 RETURNDATACOPY RETURNDATASIZE PUSH1 0x0 REVERT JUMPDEST POP POP POP POP PUSH1 0x40 MLOAD RETURNDATASIZE PUSH1 0x1F NOT PUSH1 0x1F DUP3 ADD AND DUP3 ADD DUP1 PUSH1 0x40 MSTORE POP DUP2 ADD SWAP1 PUSH2 0x4CA SWAP2 SWAP1 PUSH2 0xFCE JUMP JUMPDEST POP POP POP JUMP JUMPDEST CALLER PUSH1 0x0 SWAP1 DUP2 MSTORE PUSH1 0x4 PUSH1 0x20 MSTORE PUSH1 0x40 SWAP1 KECCAK256 PUSH1 0x3 DUP2 ADD SLOAD PUSH1 0xFF AND PUSH2 0x525 JUMPI PUSH1 0x40 MLOAD PUSH3 0x461BCD PUSH1 0xE5 SHL DUP2 MSTORE PUSH1 0x20 PUSH1 0x4 DUP3 ADD MSTORE PUSH1 0x10 PUSH1 0x24 DUP3 ADD MSTORE PUSH16 0x139BC81C985B9AC81858DA1A595D9959 PUSH1 0x82 SHL PUSH1 0x44 DUP3 ADD MSTORE PUSH1 0x64 ADD PUSH2 0x3E2 JUMP JUMPDEST PUSH1 0x4 DUP2 ADD SLOAD PUSH2 0x537 SWAP1 PUSH3 0x15180 PUSH2 0xFF7 JUMP JUMPDEST TIMESTAMP LT ISZERO PUSH2 0x57E JUMPI PUSH1 0x40 MLOAD PUSH3 0x461BCD PUSH1 0xE5 SHL DUP2 MSTORE PUSH1 0x20 PUSH1 0x4 DUP3 ADD MSTORE PUSH1 0x15 PUSH1 0x24 DUP3 ADD MSTORE PUSH21 0x416C726561647920636C61696D656420746F646179 PUSH1 0x58 SHL PUSH1 0x44 DUP3 ADD MSTORE PUSH1 0x64 ADD PUSH2 0x3E2 JUMP JUMPDEST PUSH1 0x0 PUSH2 0x2710 PUSH1 0x6 SLOAD PUSH1 0x7 SLOAD PUSH2 0x593 SWAP2 SWAP1 PUSH2 0xF95 JUMP JUMPDEST PUSH2 0x59D SWAP2 SWAP1 PUSH2 0xFAC JUMP JUMPDEST PUSH1 0x3 DUP4 DUP2 ADD SLOAD SWAP2 SWAP3 POP PUSH1 0x0 SWAP2 PUSH2 0x5B8 SWAP1 PUSH1 0x1 SWAP1 PUSH1 0xFF AND PUSH2 0x100A JUMP JUMPDEST PUSH1 0xFF AND DUP2 SLOAD DUP2 LT PUSH2 0x5CB JUMPI PUSH2 0x5CB PUSH2 0x1023 JUMP JUMPDEST PUSH1 0x0 SWAP2 DUP3 MSTORE PUSH1 0x20 DUP1 DUP4 KECCAK256 PUSH1 0x3 SWAP3 DUP4 MUL ADD PUSH1 0x2 ADD SLOAD SWAP2 DUP7 ADD SLOAD PUSH1 0xFF AND DUP4 MSTORE PUSH1 0x5 SWAP1 MSTORE PUSH1 0x40 SWAP1 SWAP2 KECCAK256 SLOAD SWAP1 SWAP2 POP DUP1 PUSH2 0x637 JUMPI PUSH1 0x40 MLOAD PUSH3 0x461BCD PUSH1 0xE5 SHL DUP2 MSTORE PUSH1 0x20 PUSH1 0x4 DUP3 ADD MSTORE PUSH1 0x12 PUSH1 0x24 DUP3 ADD MSTORE PUSH18 0x4E6F206D656D6265727320696E2072616E6B PUSH1 0x70 SHL PUSH1 0x44 DUP3 ADD MSTORE PUSH1 0x64 ADD PUSH2 0x3E2 JUMP JUMPDEST PUSH1 0x0 DUP2 PUSH2 0x2710 PUSH2 0x647 DUP6 DUP8 PUSH2 0xF95 JUMP JUMPDEST PUSH2 0x651 SWAP2 SWAP1 PUSH2 0xFAC JUMP JUMPDEST PUSH2 0x65B SWAP2 SWAP1 PUSH2 0xFAC JUMP JUMPDEST SWAP1 POP TIMESTAMP DUP6 PUSH1 0x4 ADD DUP2 SWAP1 SSTORE POP DUP1 DUP6 PUSH1 0x5 ADD PUSH1 0x0 DUP3 DUP3 SLOAD PUSH2 0x67A SWAP2 SWAP1 PUSH2 0xFF7 JUMP JUMPDEST SWAP1 SWAP2 SSTORE POP POP PUSH1 0x0 SLOAD PUSH1 0x40 MLOAD PUSH4 0xA9059CBB PUSH1 0xE0 SHL DUP2 MSTORE CALLER PUSH1 0x4 DUP3 ADD MSTORE PUSH1 0x24 DUP2 ADD DUP4 SWAP1 MSTORE PUSH1 0x1 PUSH1 0x1 PUSH1 0xA0 SHL SUB SWAP1 SWAP2 AND SWAP1 PUSH4 0xA9059CBB SWAP1 PUSH1 0x44 ADD PUSH1 0x20 PUSH1 0x40 MLOAD DUP1 DUP4 SUB DUP2 PUSH1 0x0 DUP8 GAS CALL ISZERO DUP1 ISZERO PUSH2 0x6D0 JUMPI RETURNDATASIZE PUSH1 0x0 DUP1 RETURNDATACOPY RETURNDATASIZE PUSH1 0x0 REVERT JUMPDEST POP POP POP POP PUSH1 0x40 MLOAD RETURNDATASIZE PUSH1 0x1F NOT PUSH1 0x1F DUP3 ADD AND DUP3 ADD DUP1 PUSH1 0x40 MSTORE POP DUP2 ADD SWAP1 PUSH2 0x6F4 SWAP2 SWAP1 PUSH2 0xFCE JUMP JUMPDEST PUSH2 0x732 JUMPI PUSH1 0x40 MLOAD PUSH3 0x461BCD PUSH1 0xE5 SHL DUP2 MSTORE PUSH1 0x20 PUSH1 0x4 DUP3 ADD MSTORE PUSH1 0xF PUSH1 0x24 DUP3 ADD MSTORE PUSH15 0x151C985B9CD9995C8819985A5B1959 PUSH1 0x8A SHL PUSH1 0x44 DUP3 ADD MSTORE PUSH1 0x64 ADD PUSH2 0x3E2 JUMP JUMPDEST PUSH1 0x3 DUP6 ADD SLOAD PUSH1 0x40 DUP1 MLOAD PUSH1 0xFF SWAP1 SWAP3 AND DUP3 MSTORE PUSH1 0x20 DUP3 ADD DUP4 SWAP1 MSTORE CALLER SWAP2 PUSH32 0x14D2EAD5FFEC3FF3EB7F3A95EC294E30AD7E7DE2284BDE6E6184462E58A24D24 SWAP2 ADD JUMPDEST PUSH1 0x40 MLOAD DUP1 SWAP2 SUB SWAP1 LOG2 POP POP POP POP POP JUMP JUMPDEST PUSH1 0x1 SLOAD PUSH1 0x1 PUSH1 0x1 PUSH1 0xA0 SHL SUB AND CALLER EQ PUSH2 0x7CC JUMPI PUSH1 0x40 MLOAD PUSH3 0x461BCD PUSH1 0xE5 SHL DUP2 MSTORE PUSH1 0x20 PUSH1 0x4 DUP3 ADD MSTORE PUSH1 0x11 PUSH1 0x24 DUP3 ADD MSTORE PUSH17 0x139BDD081B585A5B8818DBDB9D1C9858DD PUSH1 0x7A SHL PUSH1 0x44 DUP3 ADD MSTORE PUSH1 0x64 ADD PUSH2 0x3E2 JUMP JUMPDEST PUSH1 0x8 SLOAD PUSH2 0x7DC SWAP1 PUSH3 0x15180 PUSH2 0xFF7 JUMP JUMPDEST TIMESTAMP LT PUSH2 0x829 JUMPI PUSH1 0x7 SLOAD PUSH1 0x40 DUP1 MLOAD TIMESTAMP DUP2 MSTORE PUSH1 0x20 DUP2 ADD SWAP3 SWAP1 SWAP3 MSTORE PUSH32 0x32227E33D1F6FB77767A8F4F3E67C45772066BA035CF643C6B0492A56C0215E7 SWAP2 ADD PUSH1 0x40 MLOAD DUP1 SWAP2 SUB SWAP1 LOG1 PUSH1 0x0 PUSH1 0x7 SSTORE TIMESTAMP PUSH1 0x8 SSTORE JUMPDEST DUP1 PUSH1 0x7 PUSH1 0x0 DUP3 DUP3 SLOAD PUSH2 0x83B SWAP2 SWAP1 PUSH2 0xFF7 JUMP JUMPDEST SWAP1 SWAP2 SSTORE POP POP POP JUMP JUMPDEST PUSH1 0x1 PUSH1 0x1 PUSH1 0xA0 SHL SUB DUP2 AND PUSH1 0x0 SWAP1 DUP2 MSTORE PUSH1 0x4 PUSH1 0x20 MSTORE PUSH1 0x40 DUP2 KECCAK256 PUSH1 0x3 DUP2 ADD SLOAD PUSH1 0xFF AND SWAP2 PUSH1 0x60 SWAP2 DUP2 SWAP1 DUP5 ISZERO PUSH2 0x930 JUMPI PUSH1 0x3 PUSH2 0x87C PUSH1 0x1 DUP8 PUSH2 0x100A JUMP JUMPDEST PUSH1 0xFF AND DUP2 SLOAD DUP2 LT PUSH2 0x88F JUMPI PUSH2 0x88F PUSH2 0x1023 JUMP JUMPDEST SWAP1 PUSH1 0x0 MSTORE PUSH1 0x20 PUSH1 0x0 KECCAK256 SWAP1 PUSH1 0x3 MUL ADD PUSH1 0x0 ADD DUP1 SLOAD PUSH2 0x8AB SWAP1 PUSH2 0x1039 JUMP JUMPDEST DUP1 PUSH1 0x1F ADD PUSH1 0x20 DUP1 SWAP2 DIV MUL PUSH1 0x20 ADD PUSH1 0x40 MLOAD SWAP1 DUP2 ADD PUSH1 0x40 MSTORE DUP1 SWAP3 SWAP2 SWAP1 DUP2 DUP2 MSTORE PUSH1 0x20 ADD DUP3 DUP1 SLOAD PUSH2 0x8D7 SWAP1 PUSH2 0x1039 JUMP JUMPDEST DUP1 ISZERO PUSH2 0x924 JUMPI DUP1 PUSH1 0x1F LT PUSH2 0x8F9 JUMPI PUSH2 0x100 DUP1 DUP4 SLOAD DIV MUL DUP4 MSTORE SWAP2 PUSH1 0x20 ADD SWAP2 PUSH2 0x924 JUMP JUMPDEST DUP3 ADD SWAP2 SWAP1 PUSH1 0x0 MSTORE PUSH1 0x20 PUSH1 0x0 KECCAK256 SWAP1 JUMPDEST DUP2 SLOAD DUP2 MSTORE SWAP1 PUSH1 0x1 ADD SWAP1 PUSH1 0x20 ADD DUP1 DUP4 GT PUSH2 0x907 JUMPI DUP3 SWAP1 SUB PUSH1 0x1F AND DUP3 ADD SWAP2 JUMPDEST POP POP POP POP POP SWAP4 POP PUSH2 0x953 JUMP JUMPDEST PUSH1 0x40 MLOAD DUP1 PUSH1 0x40 ADD PUSH1 0x40 MSTORE DUP1 PUSH1 0x7 DUP2 MSTORE PUSH1 0x20 ADD PUSH7 0x4E6F2052616E6B PUSH1 0xC8 SHL DUP2 MSTORE POP SWAP4 POP JUMPDEST PUSH1 0x2 DUP2 ADD SLOAD PUSH1 0x3 SLOAD SWAP1 SWAP4 POP PUSH1 0xFF DUP7 AND LT ISZERO PUSH2 0x997 JUMPI PUSH1 0x3 DUP6 PUSH1 0xFF AND DUP2 SLOAD DUP2 LT PUSH2 0x97E JUMPI PUSH2 0x97E PUSH2 0x1023 JUMP JUMPDEST SWAP1 PUSH1 0x0 MSTORE PUSH1 0x20 PUSH1 0x0 KECCAK256 SWAP1 PUSH1 0x3 MUL ADD PUSH1 0x1 ADD SLOAD SWAP2 POP PUSH2 0x99C JUMP JUMPDEST PUSH1 0x0 SWAP2 POP JUMPDEST POP SWAP2 SWAP4 POP SWAP2 SWAP4 JUMP JUMPDEST PUSH1 0x1 SLOAD PUSH1 0x1 PUSH1 0x1 PUSH1 0xA0 SHL SUB AND CALLER EQ PUSH2 0x9F2 JUMPI PUSH1 0x40 MLOAD PUSH3 0x461BCD PUSH1 0xE5 SHL DUP2 MSTORE PUSH1 0x20 PUSH1 0x4 DUP3 ADD MSTORE PUSH1 0x11 PUSH1 0x24 DUP3 ADD MSTORE PUSH17 0x139BDD081B585A5B8818DBDB9D1C9858DD PUSH1 0x7A SHL PUSH1 0x44 DUP3 ADD MSTORE PUSH1 0x64 ADD PUSH2 0x3E2 JUMP JUMPDEST PUSH1 0x1 PUSH1 0x1 PUSH1 0xA0 SHL SUB DUP4 AND PUSH1 0x0 SWAP1 DUP2 MSTORE PUSH1 0x4 PUSH1 0x20 MSTORE PUSH1 0x40 DUP2 KECCAK256 DUP4 DUP2 SSTORE PUSH1 0x1 DUP2 ADD DUP4 SWAP1 SSTORE SWAP1 PUSH2 0xA1F DUP5 DUP5 PUSH2 0xB3E JUMP JUMPDEST PUSH2 0xA2A SWAP1 PUSH1 0x2 PUSH2 0xF95 JUMP JUMPDEST PUSH1 0x2 DUP4 ADD DUP2 SWAP1 SSTORE SWAP1 POP PUSH2 0xA3D DUP6 DUP3 PUSH2 0xB58 JUMP JUMPDEST POP POP POP POP POP JUMP JUMPDEST PUSH1 0x3 DUP2 DUP2 SLOAD DUP2 LT PUSH2 0xA54 JUMPI PUSH1 0x0 DUP1 REVERT JUMPDEST SWAP1 PUSH1 0x0 MSTORE PUSH1 0x20 PUSH1 0x0 KECCAK256 SWAP1 PUSH1 0x3 MUL ADD PUSH1 0x0 SWAP2 POP SWAP1 POP DUP1 PUSH1 0x0 ADD DUP1 SLOAD PUSH2 0xA77 SWAP1 PUSH2 0x1039 JUMP JUMPDEST DUP1 PUSH1 0x1F ADD PUSH1 0x20 DUP1 SWAP2 DIV MUL PUSH1 0x20 ADD PUSH1 0x40 MLOAD SWAP1 DUP2 ADD PUSH1 0x40 MSTORE DUP1 SWAP3 SWAP2 SWAP1 DUP2 DUP2 MSTORE PUSH1 0x20 ADD DUP3 DUP1 SLOAD PUSH2 0xAA3 SWAP1 PUSH2 0x1039 JUMP JUMPDEST DUP1 ISZERO PUSH2 0xAF0 JUMPI DUP1 PUSH1 0x1F LT PUSH2 0xAC5 JUMPI PUSH2 0x100 DUP1 DUP4 SLOAD DIV MUL DUP4 MSTORE SWAP2 PUSH1 0x20 ADD SWAP2 PUSH2 0xAF0 JUMP JUMPDEST DUP3 ADD SWAP2 SWAP1 PUSH1 0x0 MSTORE PUSH1 0x20 PUSH1 0x0 KECCAK256 SWAP1 JUMPDEST DUP2 SLOAD DUP2 MSTORE SWAP1 PUSH1 0x1 ADD SWAP1 PUSH1 0x20 ADD DUP1 DUP4 GT PUSH2 0xAD3 JUMPI DUP3 SWAP1 SUB PUSH1 0x1F AND DUP3 ADD SWAP2 JUMPDEST POP POP POP POP POP SWAP1 DUP1 PUSH1 0x1 ADD SLOAD SWAP1 DUP1 PUSH1 0x2 ADD SLOAD SWAP1 POP DUP4 JUMP JUMPDEST PUSH1 0x5 PUSH1 0x20 MSTORE DUP2 PUSH1 0x0 MSTORE PUSH1 0x40 PUSH1 0x0 KECCAK256 DUP2 DUP2 SLOAD DUP2 LT PUSH2 0xB22 JUMPI PUSH1 0x0 DUP1 REVERT JUMPDEST PUSH1 0x0 SWAP2 DUP3 MSTORE PUSH1 0x20 SWAP1 SWAP2 KECCAK256 ADD SLOAD PUSH1 0x1 PUSH1 0x1 PUSH1 0xA0 SHL SUB AND SWAP2 POP DUP3 SWAP1 POP JUMP JUMPDEST PUSH1 0x0 DUP2 DUP4 LT PUSH2 0xB4D JUMPI DUP2 PUSH2 0xB4F JUMP JUMPDEST DUP3 JUMPDEST SWAP1 POP JUMPDEST SWAP3 SWAP2 POP POP JUMP JUMPDEST PUSH1 0x1 PUSH1 0x1 PUSH1 0xA0 SHL SUB DUP3 AND PUSH1 0x0 SWAP1 DUP2 MSTORE PUSH1 0x4 PUSH1 0x20 MSTORE PUSH1 0x40 DUP2 KECCAK256 PUSH1 0x3 DUP2 ADD SLOAD SWAP1 SWAP2 PUSH1 0xFF SWAP1 SWAP2 AND SWAP1 DUP1 JUMPDEST PUSH1 0x3 SLOAD PUSH1 0xFF DUP3 AND LT ISZERO PUSH2 0xBDA JUMPI PUSH1 0x3 DUP2 PUSH1 0xFF AND DUP2 SLOAD DUP2 LT PUSH2 0xBA2 JUMPI PUSH2 0xBA2 PUSH2 0x1023 JUMP JUMPDEST SWAP1 PUSH1 0x0 MSTORE PUSH1 0x20 PUSH1 0x0 KECCAK256 SWAP1 PUSH1 0x3 MUL ADD PUSH1 0x1 ADD SLOAD DUP6 LT PUSH2 0xBC8 JUMPI PUSH2 0xBC5 DUP2 PUSH1 0x1 PUSH2 0x1073 JUMP JUMPDEST SWAP2 POP JUMPDEST DUP1 PUSH2 0xBD2 DUP2 PUSH2 0x108C JUMP JUMPDEST SWAP2 POP POP PUSH2 0xB7F JUMP JUMPDEST POP DUP2 PUSH1 0xFF AND DUP2 PUSH1 0xFF AND GT ISZERO PUSH2 0xA3D JUMPI PUSH1 0xFF DUP3 AND ISZERO PUSH2 0xBFC JUMPI PUSH2 0xBFC DUP6 DUP4 PUSH2 0xC83 JUMP JUMPDEST PUSH1 0x3 DUP4 ADD DUP1 SLOAD PUSH1 0xFF NOT AND PUSH1 0xFF DUP4 AND SWAP1 DUP2 OR SWAP1 SWAP2 SSTORE PUSH1 0x0 DUP2 DUP2 MSTORE PUSH1 0x5 PUSH1 0x20 SWAP1 DUP2 MSTORE PUSH1 0x40 DUP1 DUP4 KECCAK256 DUP1 SLOAD PUSH1 0x1 DUP2 ADD DUP3 SSTORE SWAP1 DUP5 MSTORE SWAP3 DUP3 SWAP1 KECCAK256 SWAP1 SWAP3 ADD DUP1 SLOAD PUSH1 0x1 PUSH1 0x1 PUSH1 0xA0 SHL SUB NOT AND PUSH1 0x1 PUSH1 0x1 PUSH1 0xA0 SHL SUB DUP11 AND SWAP1 DUP2 OR SWAP1 SWAP2 SSTORE DUP3 MLOAD SWAP4 DUP5 MSTORE SWAP1 DUP4 ADD DUP8 SWAP1 MSTORE SWAP2 PUSH32 0xD2A7099D65BDC7ADE31790B4570B3985EC853306C8F2D40D68C1ABF4464B5E9F SWAP2 ADD PUSH2 0x76F JUMP JUMPDEST PUSH1 0xFF DUP2 AND PUSH1 0x0 SWAP1 DUP2 MSTORE PUSH1 0x5 PUSH1 0x20 MSTORE PUSH1 0x40 DUP2 KECCAK256 SWAP1 JUMPDEST DUP2 SLOAD DUP2 LT ISZERO PUSH2 0xD9D JUMPI DUP4 PUSH1 0x1 PUSH1 0x1 PUSH1 0xA0 SHL SUB AND DUP3 DUP3 DUP2 SLOAD DUP2 LT PUSH2 0xCBC JUMPI PUSH2 0xCBC PUSH2 0x1023 JUMP JUMPDEST PUSH1 0x0 SWAP2 DUP3 MSTORE PUSH1 0x20 SWAP1 SWAP2 KECCAK256 ADD SLOAD PUSH1 0x1 PUSH1 0x1 PUSH1 0xA0 SHL SUB AND SUB PUSH2 0xD8B JUMPI DUP2 SLOAD DUP3 SWAP1 PUSH2 0xCE6 SWAP1 PUSH1 0x1 SWAP1 PUSH2 0x10AB JUMP JUMPDEST DUP2 SLOAD DUP2 LT PUSH2 0xCF6 JUMPI PUSH2 0xCF6 PUSH2 0x1023 JUMP JUMPDEST SWAP1 PUSH1 0x0 MSTORE PUSH1 0x20 PUSH1 0x0 KECCAK256 ADD PUSH1 0x0 SWAP1 SLOAD SWAP1 PUSH2 0x100 EXP SWAP1 DIV PUSH1 0x1 PUSH1 0x1 PUSH1 0xA0 SHL SUB AND DUP3 DUP3 DUP2 SLOAD DUP2 LT PUSH2 0xD26 JUMPI PUSH2 0xD26 PUSH2 0x1023 JUMP JUMPDEST SWAP1 PUSH1 0x0 MSTORE PUSH1 0x20 PUSH1 0x0 KECCAK256 ADD PUSH1 0x0 PUSH2 0x100 EXP DUP2 SLOAD DUP2 PUSH1 0x1 PUSH1 0x1 PUSH1 0xA0 SHL SUB MUL NOT AND SWAP1 DUP4 PUSH1 0x1 PUSH1 0x1 PUSH1 0xA0 SHL SUB AND MUL OR SWAP1 SSTORE POP DUP2 DUP1 SLOAD DUP1 PUSH2 0xD64 JUMPI PUSH2 0xD64 PUSH2 0x10BE JUMP JUMPDEST PUSH1 0x0 DUP3 DUP2 MSTORE PUSH1 0x20 SWAP1 KECCAK256 DUP2 ADD PUSH1 0x0 NOT SWAP1 DUP2 ADD DUP1 SLOAD PUSH1 0x1 PUSH1 0x1 PUSH1 0xA0 SHL SUB NOT AND SWAP1 SSTORE ADD SWAP1 SSTORE PUSH2 0xD9D JUMP JUMPDEST DUP1 PUSH2 0xD95 DUP2 PUSH2 0x10D4 JUMP JUMPDEST SWAP2 POP POP PUSH2 0xC97 JUMP JUMPDEST POP POP POP POP JUMP JUMPDEST DUP1 CALLDATALOAD PUSH1 0xFF DUP2 AND DUP2 EQ PUSH2 0xDB4 JUMPI PUSH1 0x0 DUP1 REVERT JUMPDEST SWAP2 SWAP1 POP JUMP JUMPDEST PUSH1 0x0 PUSH1 0x20 DUP3 DUP5 SUB SLT ISZERO PUSH2 0xDCB JUMPI PUSH1 0x0 DUP1 REVERT JUMPDEST PUSH2 0xB4F DUP3 PUSH2 0xDA3 JUMP JUMPDEST PUSH1 0x20 DUP1 DUP3 MSTORE DUP3 MLOAD DUP3 DUP3 ADD DUP2 SWAP1 MSTORE PUSH1 0x0 SWAP2 SWAP1 DUP5 DUP3 ADD SWAP1 PUSH1 0x40 DUP6 ADD SWAP1 DUP5 JUMPDEST DUP2 DUP2 LT ISZERO PUSH2 0xE15 JUMPI DUP4 MLOAD PUSH1 0x1 PUSH1 0x1 PUSH1 0xA0 SHL SUB AND DUP4 MSTORE SWAP3 DUP5 ADD SWAP3 SWAP2 DUP5 ADD SWAP2 PUSH1 0x1 ADD PUSH2 0xDF0 JUMP JUMPDEST POP SWAP1 SWAP7 SWAP6 POP POP POP POP POP POP JUMP JUMPDEST DUP1 CALLDATALOAD PUSH1 0x1 PUSH1 0x1 PUSH1 0xA0 SHL SUB DUP2 AND DUP2 EQ PUSH2 0xDB4 JUMPI PUSH1 0x0 DUP1 REVERT JUMPDEST PUSH1 0x0 PUSH1 0x20 DUP3 DUP5 SUB SLT ISZERO PUSH2 0xE4A JUMPI PUSH1 0x0 DUP1 REVERT JUMPDEST PUSH2 0xB4F DUP3 PUSH2 0xE21 JUMP JUMPDEST PUSH1 0x0 DUP1 PUSH1 0x40 DUP4 DUP6 SUB SLT ISZERO PUSH2 0xE66 JUMPI PUSH1 0x0 DUP1 REVERT JUMPDEST PUSH2 0xE6F DUP4 PUSH2 0xE21 JUMP JUMPDEST SWAP5 PUSH1 0x20 SWAP4 SWAP1 SWAP4 ADD CALLDATALOAD SWAP4 POP POP POP JUMP JUMPDEST PUSH1 0x0 PUSH1 0x20 DUP3 DUP5 SUB SLT ISZERO PUSH2 0xE8F JUMPI PUSH1 0x0 DUP1 REVERT JUMPDEST POP CALLDATALOAD SWAP2 SWAP1 POP JUMP JUMPDEST PUSH1 0x0 DUP2 MLOAD DUP1 DUP5 MSTORE PUSH1 0x0 JUMPDEST DUP2 DUP2 LT ISZERO PUSH2 0xEBC JUMPI PUSH1 0x20 DUP2 DUP6 ADD DUP2 ADD MLOAD DUP7 DUP4 ADD DUP3 ADD MSTORE ADD PUSH2 0xEA0 JUMP JUMPDEST POP PUSH1 0x0 PUSH1 0x20 DUP3 DUP7 ADD ADD MSTORE PUSH1 0x20 PUSH1 0x1F NOT PUSH1 0x1F DUP4 ADD AND DUP6 ADD ADD SWAP2 POP POP SWAP3 SWAP2 POP POP JUMP JUMPDEST PUSH1 0xFF DUP6 AND DUP2 MSTORE PUSH1 0x80 PUSH1 0x20 DUP3 ADD MSTORE PUSH1 0x0 PUSH2 0xEF8 PUSH1 0x80 DUP4 ADD DUP7 PUSH2 0xE96 JUMP JUMPDEST PUSH1 0x40 DUP4 ADD SWAP5 SWAP1 SWAP5 MSTORE POP PUSH1 0x60 ADD MSTORE SWAP3 SWAP2 POP POP JUMP JUMPDEST PUSH1 0x0 DUP1 PUSH1 0x0 PUSH1 0x60 DUP5 DUP7 SUB SLT ISZERO PUSH2 0xF20 JUMPI PUSH1 0x0 DUP1 REVERT JUMPDEST PUSH2 0xF29 DUP5 PUSH2 0xE21 JUMP JUMPDEST SWAP6 PUSH1 0x20 DUP6 ADD CALLDATALOAD SWAP6 POP PUSH1 0x40 SWAP1 SWAP5 ADD CALLDATALOAD SWAP4 SWAP3 POP POP POP JUMP JUMPDEST PUSH1 0x60 DUP2 MSTORE PUSH1 0x0 PUSH2 0xF51 PUSH1 0x60 DUP4 ADD DUP7 PUSH2 0xE96 JUMP JUMPDEST PUSH1 0x20 DUP4 ADD SWAP5 SWAP1 SWAP5 MSTORE POP PUSH1 0x40 ADD MSTORE SWAP2 SWAP1 POP JUMP JUMPDEST PUSH1 0x0 DUP1 PUSH1 0x40 DUP4 DUP6 SUB SLT ISZERO PUSH2 0xF76 JUMPI PUSH1 0x0 DUP1 REVERT JUMPDEST PUSH2 0xE6F DUP4 PUSH2 0xDA3 JUMP JUMPDEST PUSH4 0x4E487B71 PUSH1 0xE0 SHL PUSH1 0x0 MSTORE PUSH1 0x11 PUSH1 0x4 MSTORE PUSH1 0x24 PUSH1 0x0 REVERT JUMPDEST DUP1 DUP3 MUL DUP2 ISZERO DUP3 DUP3 DIV DUP5 EQ OR PUSH2 0xB52 JUMPI PUSH2 0xB52 PUSH2 0xF7F JUMP JUMPDEST PUSH1 0x0 DUP3 PUSH2 0xFC9 JUMPI PUSH4 0x4E487B71 PUSH1 0xE0 SHL PUSH1 0x0 MSTORE PUSH1 0x12 PUSH1 0x4 MSTORE PUSH1 0x24 PUSH1 0x0 REVERT JUMPDEST POP DIV SWAP1 JUMP JUMPDEST PUSH1 0x0 PUSH1 0x20 DUP3 DUP5 SUB SLT ISZERO PUSH2 0xFE0 JUMPI PUSH1 0x0 DUP1 REVERT JUMPDEST DUP2 MLOAD DUP1 ISZERO ISZERO DUP2 EQ PUSH2 0xFF0 JUMPI PUSH1 0x0 DUP1 REVERT JUMPDEST SWAP4 SWAP3 POP POP POP JUMP JUMPDEST DUP1 DUP3 ADD DUP1 DUP3 GT ISZERO PUSH2 0xB52 JUMPI PUSH2 0xB52 PUSH2 0xF7F JUMP JUMPDEST PUSH1 0xFF DUP3 DUP2 AND DUP3 DUP3 AND SUB SWAP1 DUP2 GT ISZERO PUSH2 0xB52 JUMPI PUSH2 0xB52 PUSH2 0xF7F JUMP JUMPDEST PUSH4 0x4E487B71 PUSH1 0xE0 SHL PUSH1 0x0 MSTORE PUSH1 0x32 PUSH1 0x4 MSTORE PUSH1 0x24 PUSH1 0x0 REVERT JUMPDEST PUSH1 0x1 DUP2 DUP2 SHR SWAP1 DUP3 AND DUP1 PUSH2 0x104D JUMPI PUSH1 0x7F DUP3 AND SWAP2 POP JUMPDEST PUSH1 0x20 DUP3 LT DUP2 SUB PUSH2 0x106D JUMPI PUSH4 0x4E487B71 PUSH1 0xE0 SHL PUSH1 0x0 MSTORE PUSH1 0x22 PUSH1 0x4 MSTORE PUSH1 0x24 PUSH1 0x0 REVERT JUMPDEST POP SWAP2 SWAP1 POP JUMP JUMPDEST PUSH1 0xFF DUP2 DUP2 AND DUP4 DUP3 AND ADD SWAP1 DUP2 GT ISZERO PUSH2 0xB52 JUMPI PUSH2 0xB52 PUSH2 0xF7F JUMP JUMPDEST PUSH1 0x0 PUSH1 0xFF DUP3 AND PUSH1 0xFF DUP2 SUB PUSH2 0x10A2 JUMPI PUSH2 0x10A2 PUSH2 0xF7F JUMP JUMPDEST PUSH1 0x1 ADD SWAP3 SWAP2 POP POP JUMP JUMPDEST DUP2 DUP2 SUB DUP2 DUP2 GT ISZERO PUSH2 0xB52 JUMPI PUSH2 0xB52 PUSH2 0xF7F JUMP JUMPDEST PUSH4 0x4E487B71 PUSH1 0xE0 SHL PUSH1 0x0 MSTORE PUSH1 0x31 PUSH1 0x4 MSTORE PUSH1 0x24 PUSH1 0x0 REVERT JUMPDEST PUSH1 0x0 PUSH1 0x1 DUP3 ADD PUSH2 0x10E6 JUMPI PUSH2 0x10E6 PUSH2 0xF7F JUMP JUMPDEST POP PUSH1 0x1 ADD SWAP1 JUMP INVALID LOG2 PUSH5 0x6970667358 0x22 SLT KECCAK256 LOG4 SUB 0xCB CODESIZE ISZERO DUP8 SLOAD RETURN 0xB7 0xC4 0xD 0xD DUP1 0x4F 0xAE SIGNEXTEND LOG3 PUSH5 0xE7F1097717 PREVRANDAO 0xDF 0xB6 0xD7 ISZERO 0xD7 0xAF PUSH9 0xFB64736F6C63430008 SGT STOP CALLER 0xC2 JUMPI GAS 0xE SWAP15 MSIZE EXTCODECOPY STOP 0xF9 MSIZE 0xF8 0xC9 0x2F SLT 0xDB 0x28 PUSH10 0xC3395A3B0502D05E2516 PREVRANDAO PUSH16 0x71F85B00000000000000000000000000 "},"methodIdentifiers":{"claimClubIncome()":"9d254d31","dailyPoolPercentage()":"1d98fde8","emergencyWithdraw(address,uint256)":"95ccea67","getDailyPoolInfo()":"16b8a8d7","getRankMembers(uint8)":"0a8b1d93","getUserRank(address)":"b2d1573f","lastResetTime()":"a2177124","mainContract()":"d270e7ab","owner()":"8da5cb5b","rankMembers(uint8,uint256)":"ea7fc16b","ranks(uint256)":"df927bbe","recordTurnover(uint256)":"afe0e9f3","setMainContract(address)":"3ded33bc","todayTurnover()":"d1a6619f","updateUserVolume(address,uint256,uint256)":"c61b403b","usdt()":"2f48ab7d","userRankData(address)":"5c74eef9"}}}}}