{
  "_format": "hh-sol-artifact-1",
  "contractName": "TRKClubIncome",
  "sourceName": "src/TRKClubIncome.sol",
  "abi": [
    {
      "inputs": [
        {
          "internalType": "address",
          "name": "_usdt",
          "type": "address"
        }
      ],
      "stateMutability": "nonpayable",
      "type": "constructor"
    },
    {
      "anonymous": false,
      "inputs": [
        {
          "indexed": true,
          "internalType": "address",
          "name": "user",
          "type": "address"
        },
        {
          "indexed": false,
          "internalType": "uint8",
          "name": "rank",
          "type": "uint8"
        },
        {
          "indexed": false,
          "internalType": "uint256",
          "name": "amount",
          "type": "uint256"
        }
      ],
      "name": "ClubIncomeDistributed",
      "type": "event"
    },
    {
      "anonymous": false,
      "inputs": [
        {
          "indexed": false,
          "internalType": "uint256",
          "name": "timestamp",
          "type": "uint256"
        },
        {
          "indexed": false,
          "internalType": "uint256",
          "name": "previousTurnover",
          "type": "uint256"
        }
      ],
      "name": "DailyPoolReset",
      "type": "event"
    },
    {
      "anonymous": false,
      "inputs": [
        {
          "indexed": true,
          "internalType": "address",
          "name": "user",
          "type": "address"
        },
        {
          "indexed": false,
          "internalType": "uint8",
          "name": "rank",
          "type": "uint8"
        },
        {
          "indexed": false,
          "internalType": "uint256",
          "name": "volume",
          "type": "uint256"
        }
      ],
      "name": "RankAchieved",
      "type": "event"
    },
    {
      "inputs": [],
      "name": "claimClubIncome",
      "outputs": [],
      "stateMutability": "nonpayable",
      "type": "function"
    },
    {
      "inputs": [],
      "name": "dailyPoolPercentage",
      "outputs": [
        {
          "internalType": "uint256",
          "name": "",
          "type": "uint256"
        }
      ],
      "stateMutability": "view",
      "type": "function"
    },
    {
      "inputs": [
        {
          "internalType": "address",
          "name": "_token",
          "type": "address"
        },
        {
          "internalType": "uint256",
          "name": "_amount",
          "type": "uint256"
        }
      ],
      "name": "emergencyWithdraw",
      "outputs": [],
      "stateMutability": "nonpayable",
      "type": "function"
    },
    {
      "inputs": [],
      "name": "getDailyPoolInfo",
      "outputs": [
        {
          "internalType": "uint256",
          "name": "turnover",
          "type": "uint256"
        },
        {
          "internalType": "uint256",
          "name": "poolAmount",
          "type": "uint256"
        },
        {
          "internalType": "uint256",
          "name": "lastReset",
          "type": "uint256"
        }
      ],
      "stateMutability": "view",
      "type": "function"
    },
    {
      "inputs": [
        {
          "internalType": "uint8",
          "name": "_rank",
          "type": "uint8"
        }
      ],
      "name": "getRankMembers",
      "outputs": [
        {
          "internalType": "address[]",
          "name": "",
          "type": "address[]"
        }
      ],
      "stateMutability": "view",
      "type": "function"
    },
    {
      "inputs": [
        {
          "internalType": "address",
          "name": "_user",
          "type": "address"
        }
      ],
      "name": "getUserRank",
      "outputs": [
        {
          "internalType": "uint8",
          "name": "rank",
          "type": "uint8"
        },
        {
          "internalType": "string",
          "name": "rankName",
          "type": "string"
        },
        {
          "internalType": "uint256",
          "name": "totalVolume",
          "type": "uint256"
        },
        {
          "internalType": "uint256",
          "name": "nextRankVolume",
          "type": "uint256"
        }
      ],
      "stateMutability": "view",
      "type": "function"
    },
    {
      "inputs": [],
      "name": "lastResetTime",
      "outputs": [
        {
          "internalType": "uint256",
          "name": "",
          "type": "uint256"
        }
      ],
      "stateMutability": "view",
      "type": "function"
    },
    {
      "inputs": [],
      "name": "mainContract",
      "outputs": [
        {
          "internalType": "address",
          "name": "",
          "type": "address"
        }
      ],
      "stateMutability": "view",
      "type": "function"
    },
    {
      "inputs": [],
      "name": "owner",
      "outputs": [
        {
          "internalType": "address",
          "name": "",
          "type": "address"
        }
      ],
      "stateMutability": "view",
      "type": "function"
    },
    {
      "inputs": [
        {
          "internalType": "uint8",
          "name": "",
          "type": "uint8"
        },
        {
          "internalType": "uint256",
          "name": "",
          "type": "uint256"
        }
      ],
      "name": "rankMembers",
      "outputs": [
        {
          "internalType": "address",
          "name": "",
          "type": "address"
        }
      ],
      "stateMutability": "view",
      "type": "function"
    },
    {
      "inputs": [
        {
          "internalType": "uint256",
          "name": "",
          "type": "uint256"
        }
      ],
      "name": "ranks",
      "outputs": [
        {
          "internalType": "string",
          "name": "name",
          "type": "string"
        },
        {
          "internalType": "uint256",
          "name": "targetVolume",
          "type": "uint256"
        },
        {
          "internalType": "uint256",
          "name": "poolShare",
          "type": "uint256"
        }
      ],
      "stateMutability": "view",
      "type": "function"
    },
    {
      "inputs": [
        {
          "internalType": "uint256",
          "name": "_amount",
          "type": "uint256"
        }
      ],
      "name": "recordTurnover",
      "outputs": [],
      "stateMutability": "nonpayable",
      "type": "function"
    },
    {
      "inputs": [
        {
          "internalType": "address",
          "name": "_mainContract",
          "type": "address"
        }
      ],
      "name": "setMainContract",
      "outputs": [],
      "stateMutability": "nonpayable",
      "type": "function"
    },
    {
      "inputs": [],
      "name": "todayTurnover",
      "outputs": [
        {
          "internalType": "uint256",
          "name": "",
          "type": "uint256"
        }
      ],
      "stateMutability": "view",
      "type": "function"
    },
    {
      "inputs": [
        {
          "internalType": "address",
          "name": "_user",
          "type": "address"
        },
        {
          "internalType": "uint256",
          "name": "_strongLegVolume",
          "type": "uint256"
        },
        {
          "internalType": "uint256",
          "name": "_otherLegsVolume",
          "type": "uint256"
        }
      ],
      "name": "updateUserVolume",
      "outputs": [],
      "stateMutability": "nonpayable",
      "type": "function"
    },
    {
      "inputs": [],
      "name": "usdt",
      "outputs": [
        {
          "internalType": "contract IERC20",
          "name": "",
          "type": "address"
        }
      ],
      "stateMutability": "view",
      "type": "function"
    },
    {
      "inputs": [
        {
          "internalType": "address",
          "name": "",
          "type": "address"
        }
      ],
      "name": "userRankData",
      "outputs": [
        {
          "internalType": "uint256",
          "name": "strongLegVolume",
          "type": "uint256"
        },
        {
          "internalType": "uint256",
          "name": "otherLegsVolume",
          "type": "uint256"
        },
        {
          "internalType": "uint256",
          "name": "totalVolume",
          "type": "uint256"
        },
        {
          "internalType": "uint8",
          "name": "currentRank",
          "type": "uint8"
        },
        {
          "internalType": "uint256",
          "name": "lastClaimTime",
          "type": "uint256"
        },
        {
          "internalType": "uint256",
          "name": "totalEarned",
          "type": "uint256"
        }
      ],
      "stateMutability": "view",
      "type": "function"
    }
  ],
  "bytecode": "0x60806040526103206006553480156200001757600080fd5b50604051620016b8380380620016b88339810160408190526200003a91620003c2565b600080546001600160a01b0383166001600160a01b03199182161782556002805490911633179055426008556040805160a0810182526006606082019081526552616e6b203160d01b6080830152815269021e19e0c9bab240000060208201526109c491810191909152600380546001810182559281905281519192026000805160206200169883398151915201908190620000d7908262000499565b50602082810151600180840191909155604093840151600290930192909255825160a081018452600660608201908152652930b735901960d11b60808301528152690a968163f0a57b400000918101919091526109c492810192909252600380549182018155600081905282519102600080516020620016988339815191520190819062000166908262000499565b50602082810151600180840191909155604093840151600290930192909255825160a0810184526006606082019081526552616e6b203360d01b608083015281526934f086f3b33b68400000918101919091526104e2928101929092526003805491820181556000819052825191026000805160206200169883398151915201908190620001f5908262000499565b50602082810151600180840191909155604093840151600290930192909255825160a0810184526006606082019081526514985b9ac80d60d21b6080830152815269d3c21bcecceda1000000918101919091526104e292810192909252600380549182018155600081905282519102600080516020620016988339815191520190819062000284908262000499565b50602082810151600180840191909155604093840151600290930192909255825160a0810184526006606082019081526552616e6b203560d01b608083015281526a0422ca8b0a00a425000000918101919091526104e292810192909252600380549182018155600081905282519102600080516020620016988339815191520190819062000314908262000499565b50602082810151600180840191909155604093840151600290930192909255825160a081018452600660608201908152652930b735901b60d11b608083015281526a084595161401484a000000918101919091526104e2928101929092526003805491820181556000819052825191026000805160206200169883398151915201908190620003a4908262000499565b50602082015181600101556040820151816002015550505062000565565b600060208284031215620003d557600080fd5b81516001600160a01b0381168114620003ed57600080fd5b9392505050565b634e487b7160e01b600052604160045260246000fd5b600181811c908216806200041f57607f821691505b6020821081036200044057634e487b7160e01b600052602260045260246000fd5b50919050565b601f8211156200049457600081815260208120601f850160051c810160208610156200046f5750805b601f850160051c820191505b8181101562000490578281556001016200047b565b5050505b505050565b81516001600160401b03811115620004b557620004b5620003f4565b620004cd81620004c684546200040a565b8462000446565b602080601f831160018114620005055760008415620004ec5750858301515b600019600386901b1c1916600185901b17855562000490565b600085815260208120601f198616915b82811015620005365788860151825594840194600190910190840162000515565b5085821015620005555787850151600019600388901b60f8161c191681555b5050505050600190811b01905550565b61112380620005756000396000f3fe608060405234801561001057600080fd5b506004361061010b5760003560e01c80639d254d31116100a2578063c61b403b11610071578063c61b403b14610299578063d1a6619f146102ac578063d270e7ab146102b5578063df927bbe146102c8578063ea7fc16b146102ea57600080fd5b80639d254d3114610252578063a21771241461025a578063afe0e9f314610263578063b2d1573f1461027657600080fd5b80633ded33bc116100de5780633ded33bc1461019e5780635c74eef9146101b35780638da5cb5b1461022c57806395ccea671461023f57600080fd5b80630a8b1d931461011057806316b8a8d7146101395780631d98fde81461015c5780632f48ab7d14610173575b600080fd5b61012361011e366004610db9565b6102fd565b6040516101309190610dd4565b60405180910390f35b61014161036d565b60408051938452602084019290925290820152606001610130565b61016560065481565b604051908152602001610130565b600054610186906001600160a01b031681565b6040516001600160a01b039091168152602001610130565b6101b16101ac366004610e38565b6103a0565b005b6101fc6101c1366004610e38565b600460208190526000918252604090912080546001820154600283015460038401549484015460059094015492949193909260ff9092169186565b6040805196875260208701959095529385019290925260ff166060840152608083015260a082015260c001610130565b600254610186906001600160a01b031681565b6101b161024d366004610e53565b61040d565b6101b16104cf565b61016560085481565b6101b1610271366004610e7d565b61077e565b610289610284366004610e38565b610843565b6040516101309493929190610edc565b6101b16102a7366004610f0b565b6109a4565b61016560075481565b600154610186906001600160a01b031681565b6102db6102d6366004610e7d565b610a44565b60405161013093929190610f3e565b6101866102f8366004610f63565b610b06565b60ff811660009081526005602090815260409182902080548351818402810184019094528084526060939283018282801561036157602002820191906000526020600020905b81546001600160a01b03168152600190910190602001808311610343575b50505050509050919050565b60008060006007546127106006546007546103889190610f95565b6103929190610fac565b600854925092509250909192565b6002546001600160a01b031633146103eb5760405162461bcd60e51b81526020600482015260096024820152682737ba1037bbb732b960b91b60448201526064015b60405180910390fd5b600180546001600160a01b0319166001600160a01b0392909216919091179055565b6002546001600160a01b031633146104535760405162461bcd60e51b81526020600482015260096024820152682737ba1037bbb732b960b91b60448201526064016103e2565b60025460405163a9059cbb60e01b81526001600160a01b039182166004820152602481018390529083169063a9059cbb906044016020604051808303816000875af11580156104a6573d6000803e3d6000fd5b505050506040513d601f19601f820116820180604052508101906104ca9190610fce565b505050565b336000908152600460205260409020600381015460ff166105255760405162461bcd60e51b815260206004820152601060248201526f139bc81c985b9ac81858da1a595d995960821b60448201526064016103e2565b60048101546105379062015180610ff7565b42101561057e5760405162461bcd60e51b8152602060048201526015602482015274416c726561647920636c61696d656420746f64617960581b60448201526064016103e2565b60006127106006546007546105939190610f95565b61059d9190610fac565b6003838101549192506000916105b89060019060ff1661100a565b60ff16815481106105cb576105cb611023565b60009182526020808320600392830201600201549186015460ff16835260059052604090912054909150806106375760405162461bcd60e51b81526020600482015260126024820152714e6f206d656d6265727320696e2072616e6b60701b60448201526064016103e2565b6000816127106106478587610f95565b6106519190610fac565b61065b9190610fac565b90504285600401819055508085600501600082825461067a9190610ff7565b909155505060005460405163a9059cbb60e01b8152336004820152602481018390526001600160a01b039091169063a9059cbb906044016020604051808303816000875af11580156106d0573d6000803e3d6000fd5b505050506040513d601f19601f820116820180604052508101906106f49190610fce565b6107325760405162461bcd60e51b815260206004820152600f60248201526e151c985b9cd9995c8819985a5b1959608a1b60448201526064016103e2565b60038501546040805160ff90921682526020820183905233917f14d2ead5ffec3ff3eb7f3a95ec294e30ad7e7de2284bde6e6184462e58a24d2491015b60405180910390a25050505050565b6001546001600160a01b031633146107cc5760405162461bcd60e51b8152602060048201526011602482015270139bdd081b585a5b8818dbdb9d1c9858dd607a1b60448201526064016103e2565b6008546107dc9062015180610ff7565b4210610829576007546040805142815260208101929092527f32227e33d1f6fb77767a8f4f3e67c45772066ba035cf643c6b0492a56c0215e7910160405180910390a16000600755426008555b806007600082825461083b9190610ff7565b909155505050565b6001600160a01b0381166000908152600460205260408120600381015460ff16916060918190841561093057600361087c60018761100a565b60ff168154811061088f5761088f611023565b906000526020600020906003020160000180546108ab90611039565b80601f01602080910402602001604051908101604052809291908181526020018280546108d790611039565b80156109245780601f106108f957610100808354040283529160200191610924565b820191906000526020600020905b81548152906001019060200180831161090757829003601f168201915b50505050509350610953565b604051806040016040528060078152602001664e6f2052616e6b60c81b81525093505b600281015460035490935060ff861610156109975760038560ff168154811061097e5761097e611023565b906000526020600020906003020160010154915061099c565b600091505b509193509193565b6001546001600160a01b031633146109f25760405162461bcd60e51b8152602060048201526011602482015270139bdd081b585a5b8818dbdb9d1c9858dd607a1b60448201526064016103e2565b6001600160a01b03831660009081526004602052604081208381556001810183905590610a1f8484610b3e565b610a2a906002610f95565b600283018190559050610a3d8582610b58565b5050505050565b60038181548110610a5457600080fd5b9060005260206000209060030201600091509050806000018054610a7790611039565b80601f0160208091040260200160405190810160405280929190818152602001828054610aa390611039565b8015610af05780601f10610ac557610100808354040283529160200191610af0565b820191906000526020600020905b815481529060010190602001808311610ad357829003601f168201915b5050505050908060010154908060020154905083565b60056020528160005260406000208181548110610b2257600080fd5b6000918252602090912001546001600160a01b03169150829050565b6000818310610b4d5781610b4f565b825b90505b92915050565b6001600160a01b03821660009081526004602052604081206003810154909160ff90911690805b60035460ff82161015610bda5760038160ff1681548110610ba257610ba2611023565b9060005260206000209060030201600101548510610bc857610bc5816001611073565b91505b80610bd28161108c565b915050610b7f565b508160ff168160ff161115610a3d5760ff821615610bfc57610bfc8583610c83565b60038301805460ff191660ff8316908117909155600081815260056020908152604080832080546001810182559084529282902090920180546001600160a01b0319166001600160a01b038a169081179091558251938452908301879052917fd2a7099d65bdc7ade31790b4570b3985ec853306c8f2d40d68c1abf4464b5e9f910161076f565b60ff81166000908152600560205260408120905b8154811015610d9d57836001600160a01b0316828281548110610cbc57610cbc611023565b6000918252602090912001546001600160a01b031603610d8b5781548290610ce6906001906110ab565b81548110610cf657610cf6611023565b9060005260206000200160009054906101000a90046001600160a01b0316828281548110610d2657610d26611023565b9060005260206000200160006101000a8154816001600160a01b0302191690836001600160a01b0316021790555081805480610d6457610d646110be565b600082815260209020810160001990810180546001600160a01b0319169055019055610d9d565b80610d95816110d4565b915050610c97565b50505050565b803560ff81168114610db457600080fd5b919050565b600060208284031215610dcb57600080fd5b610b4f82610da3565b6020808252825182820181905260009190848201906040850190845b81811015610e155783516001600160a01b031683529284019291840191600101610df0565b50909695505050505050565b80356001600160a01b0381168114610db457600080fd5b600060208284031215610e4a57600080fd5b610b4f82610e21565b60008060408385031215610e6657600080fd5b610e6f83610e21565b946020939093013593505050565b600060208284031215610e8f57600080fd5b5035919050565b6000815180845260005b81811015610ebc57602081850181015186830182015201610ea0565b506000602082860101526020601f19601f83011685010191505092915050565b60ff85168152608060208201526000610ef86080830186610e96565b6040830194909452506060015292915050565b600080600060608486031215610f2057600080fd5b610f2984610e21565b95602085013595506040909401359392505050565b606081526000610f516060830186610e96565b60208301949094525060400152919050565b60008060408385031215610f7657600080fd5b610e6f83610da3565b634e487b7160e01b600052601160045260246000fd5b8082028115828204841417610b5257610b52610f7f565b600082610fc957634e487b7160e01b600052601260045260246000fd5b500490565b600060208284031215610fe057600080fd5b81518015158114610ff057600080fd5b9392505050565b80820180821115610b5257610b52610f7f565b60ff8281168282160390811115610b5257610b52610f7f565b634e487b7160e01b600052603260045260246000fd5b600181811c9082168061104d57607f821691505b60208210810361106d57634e487b7160e01b600052602260045260246000fd5b50919050565b60ff8181168382160190811115610b5257610b52610f7f565b600060ff821660ff81036110a2576110a2610f7f565b60010192915050565b81810381811115610b5257610b52610f7f565b634e487b7160e01b600052603160045260246000fd5b6000600182016110e6576110e6610f7f565b506001019056fea2646970667358221220a403cb38158754f3b7c40d0d804fae0ba364e7f109771744dfb6d715d7af68fb64736f6c63430008130033c2575a0e9e593c00f959f8c92f12db2869c3395a3b0502d05e2516446f71f85b",
  "linkReferences": {},
  "deployedLinkReferences": {}
}