{
  "_format": "hh-sol-artifact-1",
  "contractName": "TRKLuckyDraw",
  "sourceName": "src/TRKLuckyDraw.sol",
  "abi": [
    {
      "inputs": [
        {
          "internalType": "address",
          "name": "_usdt",
          "type": "address"
        }
      ],
      "stateMutability": "nonpayable",
      "type": "constructor"
    },
    {
      "anonymous": false,
      "inputs": [
        {
          "indexed": true,
          "internalType": "uint256",
          "name": "drawId",
          "type": "uint256"
        },
        {
          "indexed": false,
          "internalType": "uint256",
          "name": "endTime",
          "type": "uint256"
        }
      ],
      "name": "DrawCompleted",
      "type": "event"
    },
    {
      "anonymous": false,
      "inputs": [
        {
          "indexed": true,
          "internalType": "uint256",
          "name": "drawId",
          "type": "uint256"
        },
        {
          "indexed": false,
          "internalType": "uint256",
          "name": "startTime",
          "type": "uint256"
        }
      ],
      "name": "DrawStarted",
      "type": "event"
    },
    {
      "anonymous": false,
      "inputs": [
        {
          "indexed": true,
          "internalType": "uint256",
          "name": "drawId",
          "type": "uint256"
        },
        {
          "indexed": true,
          "internalType": "address",
          "name": "winner",
          "type": "address"
        },
        {
          "indexed": false,
          "internalType": "uint256",
          "name": "rank",
          "type": "uint256"
        },
        {
          "indexed": false,
          "internalType": "uint256",
          "name": "amount",
          "type": "uint256"
        }
      ],
      "name": "PrizeAwarded",
      "type": "event"
    },
    {
      "anonymous": false,
      "inputs": [
        {
          "indexed": true,
          "internalType": "address",
          "name": "user",
          "type": "address"
        },
        {
          "indexed": false,
          "internalType": "uint256",
          "name": "drawId",
          "type": "uint256"
        },
        {
          "indexed": false,
          "internalType": "uint256",
          "name": "ticketCount",
          "type": "uint256"
        },
        {
          "indexed": false,
          "internalType": "uint256",
          "name": "totalCost",
          "type": "uint256"
        }
      ],
      "name": "TicketPurchased",
      "type": "event"
    },
    {
      "inputs": [],
      "name": "PRIZE_POOL",
      "outputs": [
        {
          "internalType": "uint256",
          "name": "",
          "type": "uint256"
        }
      ],
      "stateMutability": "view",
      "type": "function"
    },
    {
      "inputs": [],
      "name": "TICKET_PRICE",
      "outputs": [
        {
          "internalType": "uint256",
          "name": "",
          "type": "uint256"
        }
      ],
      "stateMutability": "view",
      "type": "function"
    },
    {
      "inputs": [],
      "name": "TOTAL_TICKETS",
      "outputs": [
        {
          "internalType": "uint256",
          "name": "",
          "type": "uint256"
        }
      ],
      "stateMutability": "view",
      "type": "function"
    },
    {
      "inputs": [],
      "name": "TOTAL_WINNERS",
      "outputs": [
        {
          "internalType": "uint256",
          "name": "",
          "type": "uint256"
        }
      ],
      "stateMutability": "view",
      "type": "function"
    },
    {
      "inputs": [
        {
          "internalType": "uint256",
          "name": "_quantity",
          "type": "uint256"
        }
      ],
      "name": "buyTickets",
      "outputs": [],
      "stateMutability": "nonpayable",
      "type": "function"
    },
    {
      "inputs": [
        {
          "internalType": "address",
          "name": "_user",
          "type": "address"
        },
        {
          "internalType": "uint256",
          "name": "_quantity",
          "type": "uint256"
        }
      ],
      "name": "buyTicketsFromWallet",
      "outputs": [],
      "stateMutability": "nonpayable",
      "type": "function"
    },
    {
      "inputs": [],
      "name": "currentDrawId",
      "outputs": [
        {
          "internalType": "uint256",
          "name": "",
          "type": "uint256"
        }
      ],
      "stateMutability": "view",
      "type": "function"
    },
    {
      "inputs": [
        {
          "internalType": "uint256",
          "name": "",
          "type": "uint256"
        }
      ],
      "name": "draws",
      "outputs": [
        {
          "internalType": "uint256",
          "name": "drawId",
          "type": "uint256"
        },
        {
          "internalType": "uint256",
          "name": "startTime",
          "type": "uint256"
        },
        {
          "internalType": "uint256",
          "name": "endTime",
          "type": "uint256"
        },
        {
          "internalType": "uint256",
          "name": "ticketsSold",
          "type": "uint256"
        },
        {
          "internalType": "bool",
          "name": "isComplete",
          "type": "bool"
        }
      ],
      "stateMutability": "view",
      "type": "function"
    },
    {
      "inputs": [
        {
          "internalType": "address",
          "name": "_token",
          "type": "address"
        },
        {
          "internalType": "uint256",
          "name": "_amount",
          "type": "uint256"
        }
      ],
      "name": "emergencyWithdraw",
      "outputs": [],
      "stateMutability": "nonpayable",
      "type": "function"
    },
    {
      "inputs": [],
      "name": "getCurrentDraw",
      "outputs": [
        {
          "internalType": "uint256",
          "name": "drawId",
          "type": "uint256"
        },
        {
          "internalType": "uint256",
          "name": "ticketsSold",
          "type": "uint256"
        },
        {
          "internalType": "uint256",
          "name": "ticketsRemaining",
          "type": "uint256"
        },
        {
          "internalType": "uint256",
          "name": "startTime",
          "type": "uint256"
        },
        {
          "internalType": "bool",
          "name": "isComplete",
          "type": "bool"
        }
      ],
      "stateMutability": "view",
      "type": "function"
    },
    {
      "inputs": [
        {
          "internalType": "uint256",
          "name": "_drawId",
          "type": "uint256"
        }
      ],
      "name": "getDrawParticipants",
      "outputs": [
        {
          "internalType": "address[]",
          "name": "",
          "type": "address[]"
        }
      ],
      "stateMutability": "view",
      "type": "function"
    },
    {
      "inputs": [
        {
          "internalType": "uint256",
          "name": "_drawId",
          "type": "uint256"
        }
      ],
      "name": "getDrawWinners",
      "outputs": [
        {
          "internalType": "address[]",
          "name": "",
          "type": "address[]"
        }
      ],
      "stateMutability": "view",
      "type": "function"
    },
    {
      "inputs": [
        {
          "internalType": "uint256",
          "name": "_drawId",
          "type": "uint256"
        },
        {
          "internalType": "address",
          "name": "_user",
          "type": "address"
        }
      ],
      "name": "getUserTickets",
      "outputs": [
        {
          "internalType": "uint256",
          "name": "",
          "type": "uint256"
        }
      ],
      "stateMutability": "view",
      "type": "function"
    },
    {
      "inputs": [],
      "name": "mainContract",
      "outputs": [
        {
          "internalType": "address",
          "name": "",
          "type": "address"
        }
      ],
      "stateMutability": "view",
      "type": "function"
    },
    {
      "inputs": [],
      "name": "owner",
      "outputs": [
        {
          "internalType": "address",
          "name": "",
          "type": "address"
        }
      ],
      "stateMutability": "view",
      "type": "function"
    },
    {
      "inputs": [
        {
          "internalType": "uint256",
          "name": "",
          "type": "uint256"
        }
      ],
      "name": "prizeAmounts",
      "outputs": [
        {
          "internalType": "uint256",
          "name": "",
          "type": "uint256"
        }
      ],
      "stateMutability": "view",
      "type": "function"
    },
    {
      "inputs": [
        {
          "internalType": "address",
          "name": "_mainContract",
          "type": "address"
        }
      ],
      "name": "setMainContract",
      "outputs": [],
      "stateMutability": "nonpayable",
      "type": "function"
    },
    {
      "inputs": [
        {
          "internalType": "uint256",
          "name": "",
          "type": "uint256"
        },
        {
          "internalType": "uint256",
          "name": "",
          "type": "uint256"
        }
      ],
      "name": "ticketOwners",
      "outputs": [
        {
          "internalType": "address",
          "name": "",
          "type": "address"
        }
      ],
      "stateMutability": "view",
      "type": "function"
    },
    {
      "inputs": [],
      "name": "usdt",
      "outputs": [
        {
          "internalType": "contract IERC20",
          "name": "",
          "type": "address"
        }
      ],
      "stateMutability": "view",
      "type": "function"
    },
    {
      "inputs": [
        {
          "internalType": "uint256",
          "name": "",
          "type": "uint256"
        },
        {
          "internalType": "address",
          "name": "",
          "type": "address"
        }
      ],
      "name": "userTickets",
      "outputs": [
        {
          "internalType": "uint256",
          "name": "",
          "type": "uint256"
        }
      ],
      "stateMutability": "view",
      "type": "function"
    },
    {
      "inputs": [
        {
          "internalType": "uint256",
          "name": "",
          "type": "uint256"
        }
      ],
      "name": "winnersPerTier",
      "outputs": [
        {
          "internalType": "uint256",
          "name": "",
          "type": "uint256"
        }
      ],
      "stateMutability": "view",
      "type": "function"
    }
  ],
  "bytecode": "0x61018060405269021e19e0c9bab2400000608090815269010f0cf064dd5920000060a05268d8d726b7177a80000060c052683635c9adc5dea0000060e052681043561a88293000006101005268068155a43676e000006101205268022b1c8c1227a00000610140526801158e460913d000006101605262000085906003906008620002d2565b506040805161010081018252600180825260208201819052918101919091526007606082015260286080820152603260a082015261019060c08201526101f460e0820152620000d99060049060086200032d565b50348015620000e757600080fd5b5060405162001963380380620019638339810160408190526200010a91620003e0565b600080546001600160a01b0383166001600160a01b03199182161790915560028054909116331790556200013d62000144565b5062000450565b60058054906000620001568362000412565b91905055506040518060e001604052806005548152602001428152602001600081526020016000815260200160001515815260200160006001600160401b03811115620001a757620001a76200043a565b604051908082528060200260200182016040528015620001d1578160200160208202803683370190505b508152602001600060405190808252806020026020018201604052801562000203578160200160208202803683370190505b509052600580546000908152600660209081526040918290208451815584820151600182015591840151600283015560608401516003830155608084015160048301805460ff191691151591909117905560a084015180519293620002719390850192919091019062000371565b5060c082015180516200028f91600684019160209091019062000371565b509050506005547f2b46639c32e8f8469e0bb6cfd1526eb73f5c83d0596408cadfe59288ac7ffe2a42604051620002c891815260200190565b60405180910390a2565b8280548282559060005260206000209081019282156200031b579160200282015b828111156200031b57825182906001600160501b0316905591602001919060010190620002f3565b5062000329929150620003c9565b5090565b8280548282559060005260206000209081019282156200031b579160200282015b828111156200031b578251829061ffff169055916020019190600101906200034e565b8280548282559060005260206000209081019282156200031b579160200282015b828111156200031b57825182546001600160a01b0319166001600160a01b0390911617825560209092019160019091019062000392565b5b80821115620003295760008155600101620003ca565b600060208284031215620003f357600080fd5b81516001600160a01b03811681146200040b57600080fd5b9392505050565b6000600182016200043357634e487b7160e01b600052601160045260246000fd5b5060010190565b634e487b7160e01b600052604160045260246000fd5b61150380620004606000396000f3fe608060405234801561001057600080fd5b50600436106101375760003560e01c80638da5cb5b116100b8578063bca78fab1161007c578063bca78fab146102f0578063c01c62c4146102f9578063d270e7ab1461030c578063da28a8411461031f578063e7a7f65c1461034a578063fd488f8c1461035d57600080fd5b80638da5cb5b1461028e57806395ccea67146102a1578063a5c5b851146102b4578063afbd1782146102c7578063b0574bb8146102d057600080fd5b80632f366637116100ff5780632f366637146102315780632f48ab7d1461024457806339c714ca146102575780633ded33bc1461026a578063764a71631461027d57600080fd5b80630299e50c1461013c5780630c6400f9146101735780630cc36c361461018857806313965c41146101c85780631a95f15f14610214575b600080fd5b610144610366565b6040805195865260208601949094529284019190915260608301521515608082015260a0015b60405180910390f35b6101866101813660046112f1565b6103b2565b005b61014461019636600461131b565b600660205260009081526040902080546001820154600283015460038401546004909401549293919290919060ff1685565b6101fc6101d6366004611334565b60086020908152600092835260408084209091529082529020546001600160a01b031681565b6040516001600160a01b03909116815260200161016a565b610223678ac7230489e8000081565b60405190815260200161016a565b61018661023f36600461131b565b610693565b6000546101fc906001600160a01b031681565b61022361026536600461131b565b6109b5565b610186610278366004611356565b6109d6565b610223690ed2b525841adfc0000081565b6002546101fc906001600160a01b031681565b6101866102af3660046112f1565b610a3e565b6102236102c236600461131b565b610afb565b61022361271081565b6102e36102de36600461131b565b610b0b565b60405161016a9190611378565b61022360055481565b6102e361030736600461131b565b610b7a565b6001546101fc906001600160a01b031681565b61022361032d3660046113c5565b600760209081526000928352604080842090915290825290205481565b6102236103583660046113c5565b610be7565b6102236103e881565b6005546000908152600660205260408120805460038201548392839283928392919061039481612710611407565b60018401546004909401549299919850965091945060ff1692509050565b6001546001600160a01b031633146104065760405162461bcd60e51b815260206004820152601260248201527113db9b1e481b585a5b8818dbdb9d1c9858dd60721b60448201526064015b60405180910390fd5b600081116104495760405162461bcd60e51b815260206004820152601060248201526f496e76616c6964207175616e7469747960801b60448201526064016103fd565b6005546000908152600660205260409020600481015460ff16156104a05760405162461bcd60e51b815260206004820152600e60248201526d111c985dc818dbdb5c1b195d195960921b60448201526064016103fd565b6127108282600301546104b3919061141a565b11156104f65760405162461bcd60e51b81526020600482015260126024820152714e6f7420656e6f756768207469636b65747360701b60448201526064016103fd565b60005b82811015610565576000818360030154610513919061141a565b61051e90600161141a565b60055460009081526008602090815260408083209383529290522080546001600160a01b0319166001600160a01b038716179055508061055d8161142d565b9150506104f9565b5060055460009081526007602090815260408083206001600160a01b038716845290915281205490036105c357600581018054600181018255600091825260209091200180546001600160a01b0319166001600160a01b0385161790555b60055460009081526007602090815260408083206001600160a01b0387168452909152812080548492906105f890849061141a565b9250508190555081816003016000828254610613919061141a565b90915550506005546001600160a01b038416907f96541f70da731142b18e96f1def4d2a7733deb7d784723106d52c1d906d4c67a908461065b81678ac7230489e80000611446565b6040805193845260208401929092529082015260600160405180910390a261271081600301540361068e5761068e610c11565b505050565b6000811180156106a4575060648111155b6106e35760405162461bcd60e51b815260206004820152601060248201526f496e76616c6964207175616e7469747960801b60448201526064016103fd565b6005546000908152600660205260409020600481015460ff161561073a5760405162461bcd60e51b815260206004820152600e60248201526d111c985dc818dbdb5c1b195d195960921b60448201526064016103fd565b61271082826003015461074d919061141a565b11156107905760405162461bcd60e51b81526020600482015260126024820152714e6f7420656e6f756768207469636b65747360701b60448201526064016103fd565b60006107a483678ac7230489e80000611446565b6000546040516323b872dd60e01b8152336004820152306024820152604481018390529192506001600160a01b0316906323b872dd906064016020604051808303816000875af11580156107fc573d6000803e3d6000fd5b505050506040513d601f19601f82011682018060405250810190610820919061145d565b61085d5760405162461bcd60e51b815260206004820152600e60248201526d14185e5b595b9d0819985a5b195960921b60448201526064016103fd565b60005b838110156108c357600081846003015461087a919061141a565b61088590600161141a565b60055460009081526008602090815260408083209383529290522080546001600160a01b0319163317905550806108bb8161142d565b915050610860565b506005546000908152600760209081526040808320338452909152812054900361090f57600582018054600181018255600091825260209091200180546001600160a01b031916331790555b60055460009081526007602090815260408083203384529091528120805485929061093b90849061141a565b9250508190555082826003016000828254610956919061141a565b90915550506005546040805191825260208201859052810182905233907f96541f70da731142b18e96f1def4d2a7733deb7d784723106d52c1d906d4c67a9060600160405180910390a261271082600301540361068e5761068e610c11565b600381815481106109c557600080fd5b600091825260209091200154905081565b6002546001600160a01b03163314610a1c5760405162461bcd60e51b81526020600482015260096024820152682737ba1037bbb732b960b91b60448201526064016103fd565b600180546001600160a01b0319166001600160a01b0392909216919091179055565b6002546001600160a01b03163314610a845760405162461bcd60e51b81526020600482015260096024820152682737ba1037bbb732b960b91b60448201526064016103fd565b60025460405163a9059cbb60e01b81526001600160a01b039182166004820152602481018390529083169063a9059cbb906044016020604051808303816000875af1158015610ad7573d6000803e3d6000fd5b505050506040513d601f19601f8201168201806040525081019061068e919061145d565b600481815481106109c557600080fd5b600081815260066020818152604092839020909101805483518184028101840190945280845260609392830182828015610b6e57602002820191906000526020600020905b81546001600160a01b03168152600190910190602001808311610b50575b50505050509050919050565b600081815260066020908152604091829020600501805483518184028101840190945280845260609392830182828015610b6e576020028201919060005260206000209081546001600160a01b03168152600190910190602001808311610b505750505050509050919050565b60008281526007602090815260408083206001600160a01b03851684529091529020545b92915050565b6005546000908152600660205260409020600381015461271014610c6e5760405162461bcd60e51b8152602060048201526014602482015273151a58dad95d1cc81b9bdd081cdbdb19081bdd5d60621b60448201526064016103fd565b600481015460ff1615610cb65760405162461bcd60e51b815260206004820152601060248201526f105b1c9958591e48195e1958dd5d195960821b60448201526064016103fd565b6000610cc0610f5f565b90506000806000805b6103e8811015610efa57600554600090815260086020526040812086518290889085908110610cfa57610cfa61147f565b60209081029190910181015182528181019290925260400160009081205460068a01805460018101825590835292822090920180546001600160a01b0319166001600160a01b03909316928317905560038054929350909186908110610d6257610d6261147f565b6000918252602082200154905460405163a9059cbb60e01b81526001600160a01b0385811660048301526024820184905292935091169063a9059cbb906044016020604051808303816000875af1158015610dc1573d6000803e3d6000fd5b505050506040513d601f19601f82011682018060405250810190610de5919061145d565b610e295760405162461bcd60e51b8152602060048201526015602482015274141c9a5e99481d1c985b9cd9995c8819985a5b1959605a1b60448201526064016103fd565b6005546001600160a01b038316907f16b695a62f925592d6d20c814bb52013e1fa726fabbb8579841359c2794f3051610e6386600161141a565b60408051918252602082018690520160405180910390a383610e848161142d565b94505060048581548110610e9a57610e9a61147f565b90600052602060002001548410158015610ec15750600354610ebe90600190611407565b85105b15610ed85784610ed08161142d565b955050600093505b85610ee28161142d565b96505050508080610ef29061142d565b915050610cc9565b5060048501805460ff19166001179055426002860181905560055460405190917ff9903b8012e5b590d2aa911a9496c53d1e470114c1a647a9a0ea4744bcb354db91610f4891815260200190565b60405180910390a2610f586110d8565b5050505050565b604080516103e8808252617d2082019092526060916000919060208201617d00803683370190505090506000610f98612710600161141a565b67ffffffffffffffff811115610fb057610fb0611495565b604051908082528060200260200182016040528015610fd9578160200160208202803683370190505b5090506000805b6103e88210156110cf5780610ff48161142d565b6005546040805142602080830191909152448284015260608201939093526080810184905260a08082018890528251808303909101815260c090910190915280519101209092509050600061104b612710836114ab565b61105690600161141a565b905084818151811061106a5761106a61147f565b60200260200101516110c857600185828151811061108a5761108a61147f565b602002602001019015159081151581525050808685815181106110af576110af61147f565b6020908102919091010152836110c48161142d565b9450505b5050610fe0565b50919392505050565b600580549060006110e88361142d565b91905055506040518060e0016040528060055481526020014281526020016000815260200160008152602001600015158152602001600067ffffffffffffffff81111561113757611137611495565b604051908082528060200260200182016040528015611160578160200160208202803683370190505b5081526020016000604051908082528060200260200182016040528015611191578160200160208202803683370190505b509052600580546000908152600660209081526040918290208451815584820151600182015591840151600283015560608401516003830155608084015160048301805460ff191691151591909117905560a0840151805192936111fd9390850192919091019061125b565b5060c0820151805161121991600684019160209091019061125b565b509050506005547f2b46639c32e8f8469e0bb6cfd1526eb73f5c83d0596408cadfe59288ac7ffe2a4260405161125191815260200190565b60405180910390a2565b8280548282559060005260206000209081019282156112b0579160200282015b828111156112b057825182546001600160a01b0319166001600160a01b0390911617825560209092019160019091019061127b565b506112bc9291506112c0565b5090565b5b808211156112bc57600081556001016112c1565b80356001600160a01b03811681146112ec57600080fd5b919050565b6000806040838503121561130457600080fd5b61130d836112d5565b946020939093013593505050565b60006020828403121561132d57600080fd5b5035919050565b6000806040838503121561134757600080fd5b50508035926020909101359150565b60006020828403121561136857600080fd5b611371826112d5565b9392505050565b6020808252825182820181905260009190848201906040850190845b818110156113b95783516001600160a01b031683529284019291840191600101611394565b50909695505050505050565b600080604083850312156113d857600080fd5b823591506113e8602084016112d5565b90509250929050565b634e487b7160e01b600052601160045260246000fd5b81810381811115610c0b57610c0b6113f1565b80820180821115610c0b57610c0b6113f1565b60006001820161143f5761143f6113f1565b5060010190565b8082028115828204841417610c0b57610c0b6113f1565b60006020828403121561146f57600080fd5b8151801515811461137157600080fd5b634e487b7160e01b600052603260045260246000fd5b634e487b7160e01b600052604160045260246000fd5b6000826114c857634e487b7160e01b600052601260045260246000fd5b50069056fea264697066735822122090698194ebf67ee2e946979fdfbb50d87abdd68f356549831a07daba9dc1758164736f6c63430008130033",
  "linkReferences": {},
  "deployedLinkReferences": {}
}